:020000041000EA
:1000000000B5324B212058609868022188439860DF
:10001000D860186158612E4B002199600221596106
:100020000121F02299502B49196001219960352056
:1000300000F044F80222904214D00621196600F024
:1000400034F8196E01211966002018661A6600F04E
:100050002CF8196E196E196E052000F02FF8012189
:100060000842F9D1002199601B49196000215960AB
:100070001A491B48016001219960EB211966A021F2
:10008000196600F012F800219960164914480160C1
:100090000121996001BC002800D000471248134993
:1000A000086003C880F30888084703B5996A0420EC
:1000B0000142FBD001200142F8D103BD02B5186610
:1000C0001866FFF7F2FF186E186E02BD00000240BE
:1000D000000000180000070000035F00212200005C
:1000E000F4000018222000A00001001008ED00E03C
:1000F00000000000000000000000000074B24E7A12
:1001000000200420F7010010C3010010C5010010F9
:10011000C1010010C1010010C1010010C101001097
:10012000C1010010C1010010C1010010C701001081
:10013000C1010010C1010010C9010010CB01001065
:10014000CD010010CD010010CD010010CD01001037
:10015000CD010010CD010010CD010010CD01001027
:10016000CD010010CD010010CD010010CD01001017
:10017000CD010010CD010010CD010010CD01001007
:10018000CD010010CD010010CD010010CD010010F7
:10019000CD010010CD010010CD010010CD010010E7
:1001A000CD010010CD010010CD010010CD010010D7
:1001B000CD010010CD010010CD010010CD010010C7
:1001C00000BE00BE00BE00BE00BE00BEEFF3058054
:1001D000103800BEF2EB887184490010A449001069
:1001E0003802001090A31AE71E481F49086006C88D
:1001F00081F3088810471D480068002801D019487D
:10020000F3E70DA40ECC002902D000F012F8F9E7B4
:100210001749184A002000E001C19142FCD116495B
:100220008847164988471649884700BEFDE701C937
:1002300001C29A42FBD37047A4490010C0000020BD
:1002400040110020245A0010000004200000042067
:10025000245A0010001004200010042000000000A8
:10026000704700000000000008ED00E0000000D032
:1002700040110020BC21002055190010210300105E
:100280004D190010F8B5C0460448054B10B583421F
:1002900003D0044B002B00D0984710BD4011002024
:1002A000401100200000000006480749091A8B1081
:1002B000C90FC91810B5491003D0044B002B00D04A
:1002C000984710BD401100204011002000000000A0
:1002D00010B5074C2378002B09D1FFF7D5FF054B4C
:1002E000002B02D0044800E000BF0123237010BDA2
:1002F000C81200200000000064450010054B10B536
:10030000002B03D00449054800E000BFFFF7CCFFF5
:1003100010BDC04600000000CC1200206445001053
:1003200010B501F017FC044C200001F063FCFA202A
:10033000800000F04FFEF7E7644500108023DB05E6
:100340001868000F7047C0460FB400B5084883B066
:1003500001F050FC049B002B07D005A91800019167
:1003600001F0DAFA034801F045FC012001F0ECFA53
:100370007445001084450010F8B5EFF3108772B68D
:100380000E4E3368002BFCD0BFF35F8FCB08C41830
:100390000725A446C45C01230D40AB401800204053
:1003A000234208D1624623431370BFF35F8F30604E
:1003B00087F31088F8BD1000FFF7C6FF2C0100D0AE
:1003C000F8B5CE4647468C4680B5EFF3108872B636
:1003D000214D2C68002CFCD0BFF35F8F9A422CD8A3
:1003E000D4080721055D0619012411408C402C42D8
:1003F0001FD007218946063909E0D408055D061992
:100400004C460F001440A7403C002F4211D001324F
:100410009342F2D201204042BFF35F8F00220E4B85
:100420001A6088F3108800280FDB0CBC90469946B0
:10043000F8BD2C4310003470EEE7BFF35F8F00234C
:100440002B6088F31088012040426346002BECD0DB
:100450000898FFF779FFC0462C0100D0044A1078B5
:10046000431CDBB2172B00D9102313707047C04612
:100470007810002000B5054B83B0010000931822CE
:100480001F230348FFF79CFF03B000BD8845001001
:10049000401A00200021044B044ABFF35F8F02C3BF
:1004A0009342FAD17047C046000100D0800100D0CD
:1004B000054B064A1360064A136053609360D3608D
:1004C00013615361936170478080808000E400E095
:1004D00004E400E01F2318401E3B8340002905D0A0
:1004E000C021044A490053501360704780220149DB
:1004F0008B50FAE700E100E001228240034B1B68C9
:100500001340581E8341D8B27047C04600E100E056
:1005100001238340014A13607047C04600E200E0B7
:10052000084B10309B688000C358002B07D0064A48
:1005300000209B1A2F229A424041C0B270470020EF
:10054000FCE7C04600ED00E07C10002070B50D0017
:10055000EFF3108672B60F4A1368002BFCD0BFF37E
:100560005F8F0D4B10309B6884001B590B4A9342E0
:1005700003D09D4201D000F0D1FF074B9B681D5175
:10058000BFF35F8FBFF35F8F0022024B1A6086F3C9
:10059000108870BD240100D000ED00E0CD010010F6
:1005A000F0B557464E464546DE46E0B5894683B02F
:1005B00005001700EFF3108A72B65E4A1368002B2D
:1005C000FCD0BFF35F8F00205B4B18569B46002882
:1005D00000DA6CE05A464400584E2418A40033193F
:1005E00098469B7910351370554BAA009B68019271
:1005F0009B589C469B1B2F2B28D801226146914378
:10060000CB79BB4208D86AE053009B189B00F318D3
:10061000DD79BD4251D9190006228A56002AF3DA43
:100620000B1D9B46474E43465C46043B1B1B1B056C
:10063000454C5B0D23438B80887141468A714A4645
:10064000424B8E800B60CF718A601BE0404B9C4513
:1006500042D142463F4B023413803F4B3619043B94
:100660009E1B3605384B760D1E433C4B56809380BF
:10067000FF23D771937143464A469A60012342464D
:100680001A43944661462E4B019A9B689950BFF3DA
:100690005F8FBFF35F8F0022264B1A608AF31088AA
:1006A00003B03CBC90469946A246AB46F0BD00F074
:1006B00035FF5B46002018568CE70B1D9B468B8848
:1006C00004345B051B155B4436199E1BE02336057D
:1006D000760D1B021E43A6E700F020FFB9E7454652
:1006E0000B001F489B1B5B415843000D194B2B808F
:1006F000A31C9C46B4446546174B0434043B5B1B67
:100700001B05114D5B0DAC462B43454636196B80DE
:100710000B1F9E1B6346A87148463605760D1E4387
:100720000A4BAE80EF71A8600B60434613439C46B2
:10073000A8E7C046240100D0F51E00207C10002050
:1007400000ED00E001BD000000E0FFFF0148804730
:10075000CD01001000A1FFFFAC10002001BDFFFF84
:10076000AAAA0000F0B501240443EFF30581EFF3DA
:10077000108672B6214A1368002BFCD0BFF35F8F3E
:100780001F4B05001F4AED1A6D416A43120D1E4DA5
:100790008900AF6852B27F58A7421CD00621595633
:1007A00091421CD012215956914222D01E215956F5
:1007B000914220D02A2159560324914210D0134B44
:1007C00019781A708171BFF35F8F00220B4B1A608A
:1007D00086F31088F0BDAB680D4C5C50EFE7002449
:1007E0006100091989005B18FF21997109499980F5
:1007F000E5E70124F4E70224F2E7C046240100D033
:100800007C100020AAAA000000ED00E0F51E0020E8
:10081000CD01001001BDFFFF00B5074B83B0010003
:100820000093002205230548FFF7CAFD002801DBDD
:100830001F23181A03B000BDA4450010F91E0020A4
:10084000024B9C46614489000160704740000034BF
:10085000F8B5134D134E2C00FF27B5421ED2236866
:10086000002B0FD0FFF7FAFD01002800FFF7E8FF8B
:10087000A780BFF35F8F0834B4420FD223682500EE
:10088000002BEFD1FFF7EAFD01002800FFF7D8FFAA
:100890002771BFF35F8F0834B442EFD3F8BDC04671
:1008A000381100204011002010B50400FFF7D6FDDC
:1008B00001002000FFF7C4FFFF232371BFF35F8F08
:1008C00010BDC04610B504000120FFF7D3FD034B57
:1008D000C3189B002360BFF35F8F10BD400000343E
:1008E000034B9C46614489000160BFF35F8F7047F2
:1008F000400000340A4B1968EFF3108072B60A68A2
:10090000002AFCD0BFF35F8F1B68BFF35F8F00220C
:100910001A6080F3108840BF002000217047C04655
:10092000D41E0020F0B5DE4657464E464546E0B59B
:1009300085B0EFF30582032313409A001100039260
:10094000B74A5258904601229A40B64B91461A60D7
:1009500033E043469B881BB2002B00DB9FE04346FD
:100960009B79002B00D0F1E0434608241C5F002C4B
:1009700000DA19E142465269630094461B19DB0014
:1009800063449C68DD68631C00D115E1A648A64B52
:1009900084469A6A039BA01A634419001B699B1A38
:1009A000984200D20C61A04800F0A8FB241A8D41A7
:1009B000002D00DDF8E000D12EE14B469A4843635C
:1009C000434608229B5E9A46002BC2DB4246526990
:1009D0005B0093465344DB009B445B469E68DF68A4
:1009E00000F08CFB801BB9410029B2DB002F00DA3C
:1009F000EDE05B468D4A1B69934200D1E0E0414641
:100A00005A460820085E5288000410435A4651692D
:100A1000984704000D0023002B4300D1D7E0002DA0
:100A200000DBF0E0361BAF4134003D005B469C60CC
:100A3000DD600021595E00298BDB43465B692200A3
:100A40009C462B0048004018C00060448668C76878
:100A5000921BBB41002B00DA7BE74346664602004F
:100A60000094019519810CE07B00DB19DB00F31881
:100A7000009801999C68DD68001BA941002904DBEE
:100A80001A000023D75E002FEEDA5B461F80534624
:100A9000138043469B881BB2002B00DA5FE7434676
:100AA0001A69EFF3108172B61368002BFCD0BFF304
:100AB0005F8F43469B8842461BB29A4601235B42A6
:100AC00093801369BFF35F8F00221A6081F310884F
:100AD0005346002B00DA42E743465B699C460823F5
:100AE00043449B4653465F0043465744FF00082259
:100AF0009A5E67445E46BC68FD68002A19DB3B00CD
:100B00000094019567469C4604E01E000023F25EB7
:100B1000002A0BDB0098019953009B18DB00FB189F
:100B20009C68DD68001BA9410029EEDA6346BC46DB
:100B30001F005346338000217B5E3A809A46002B8B
:100B4000D0DA43469B79002B00D10DE700234246C3
:100B50009371434646460821595E08364B1C23D004
:100B600047468C46556902E006004B1C17D04B00E7
:100B70005B18DB00E8180A00E95E43881BB2002B13
:100B8000F2DA01235B42DC178360C4609445ECD049
:100B900031803B89944603803A814B1CE7D16446FF
:100BA000B846002C00DBE5E640BF05B03CBC9046F3
:100BB0009946A246AB46F0BD6B1C00D0E6E6F2E6D5
:100BC0005B465C69200023699847002821D15B4679
:100BD00042461B8813811269EFF3108372B61168C5
:100BE0000029FCD0BFF35F8F4246594652880A80E5
:100BF0004246514651801269BFF35F8F0021116058
:100C000083F31088A5E6084800F078FA24184D41CF
:100C10000CE765682468FEE6002C00D1CDE6C3E74A
:100C2000B81E00203C70054000400540250900101A
:100C300070B52E4C2569002D04D00A212C48FFF7F1
:100C4000FFFD70BD2B4E0321300000F04DFAE66031
:100C5000FFF704FC284B03229C46D02322701B067E
:100C60001B6801216370254B6044A3600F23800043
:100C700020610220638063694942A18019800231AA
:100C8000198647311D83585218315A5275325C39D2
:100C90009952183201319952183201319952183251
:100CA00001319952083518329D5202311832995249
:100CB00018320131995218320131995218320131EA
:100CC00099521832013199521832013199520C4B14
:100CD0000C49DC6001303562FFF738FC012103204C
:100CE000FFF7F8FB084B1D60A7E7C046C4100020C3
:100CF000D41E00200040054040000034FFFF1000DB
:100D0000B81E0020250900103860054000487047D3
:100D1000C4100020F8B51F0008AB1B7804001600B3
:100D2000002B07D100F0F2F932003B00121A8B4180
:100D3000002B4CDB2269EFF3108072B61368002B96
:100D4000FCD0BFF35F8F62690223E15E94464B00E3
:100D50005B18DB006344002901DB1A88628022698A
:100D6000BFF35F8F0025156080F31088002930DB0A
:100D7000069A9E60DF601A61079A5A615A880132AA
:100D80005204520C151C002A1FD0A8B20A045D8020
:100D900010432569EFF3108672B62A68002AFCD04A
:100DA000BFF35F8FA2881A80A1802369BFF35F8F92
:100DB00000221A6086F31088074923788C46013296
:100DC0009A40E36863441A60F8BD0125DDE700201E
:100DD000FAE701204042F7E73C200000F0B50100AF
:100DE0000469EFF3108772B620680028FCD0BFF3C7
:100DF0005F8F02200D5E48696C0084466419E40030
:100E00006444002D01DB208848800869BFF35F8FB0
:100E10000026066087F31088002D2EDBE3606388D0
:100E20000598013320615B0406985B0CA260606149
:100E30001A1C002B1FD090B22B04628018430A6941
:100E4000EFF3108672B61368002BFCD0BFF35F8FF0
:100E50008B8823808D800B69BFF35F8F00221A601F
:100E600086F310880B7801329A40CB6804498C468F
:100E700063441A60F0BD0122DDE701204042F9E73A
:100E80003C20000030B543890A14934233DD5300FF
:100E90009B184269DB00944604696344EFF31085B4
:100EA00072B62268002AFCD0BFF35F8F5A8809040B
:100EB00094B2090C8A4208D00369BFF35F8F002205
:100EC0001A6085F31088002030BD8022120214437E
:100ED0005C80012302698371BFF35F8F0021116081
:100EE00085F31088054902788C469340C26801203A
:100EF00062441360E8E70020E6E7C0463C200000BB
:100F000040787047F0B504000D0006267642F717CA
:100F1000C64636196F4100B582B08F4214D811D041
:100F200000F0F4F832003B00121A8B41002B15DC64
:100F3000002B44D02000290000F0F2F802B004BCDD
:100F40009046F0BD8642EBD90026002700F0DEF87F
:100F500032003B00121A8B41002BE9DD00F0D6F87D
:100F600032003B00121A8B41002B0ADB0023019355
:100F7000144B3200009314483B00FFF72FFF00286A
:100F8000D8DBB0460026BC46104A114F7B6A9C4510
:100F900004D8B96A8845CDD99C45CBD11168EFF307
:100FA000108072B60B68002BFCD0BFF35F8F136804
:100FB000BFF35F8F1E6080F3108820BFE6E7002A32
:100FC000B8D0CBE7F5080010C4100020D41E0020D4
:100FD0000040054070B5060000F098F8FA220400C1
:100FE0000D00002330000021920000F017FC0019D2
:100FF0006941002902DBFFF785FF70BD012001492F
:101000004042F8E7FFFFFF7FF0B5CE46474680B588
:1010100004000D0083B0EFF30587002F3BD12F4E66
:1010200081463378F26804339B00916A9B58421AD8
:101030005B1A9A420ED320BF294A0020536AAB4262
:1010400003D3926A013091453CD803B00CBC904662
:101050009946F0BD00F05AF822002B00121A8B417D
:10106000002B26DB1F4B2200009330002B00019742
:10107000FFF7B4FE011E1CDD194BA8465A6A9542C3
:1010800025D920BF3000FFF7FDFE154A0020536A26
:101090009845DAD8D5E7124A0020536A8B42D4D358
:1010A000926A0130A242D0D25B1A581E8341D8B254
:1010B000CBE70B4A0020536AAB42C6D3926A0120A9
:1010C0009145C2D9EB1A581E8341D8B2BDE79B6A3D
:1010D0009C42D7D99542D5D1D3E7C046C410002051
:1010E00000400540F508001010B5024A0248FFF71D
:1010F00043F910BDC0450010441A00200300416AA6
:101100000A00986A596A8A42FAD17047034B596AB1
:101110000A00986A596A9142FAD170470040054026
:10112000064A536A9942FCD807D1044B02E05A6A36
:10113000914202D19A6A8242F9D370470040054039
:10114000F8B54E464546DE465746E0B588460500AA
:101150000A991800160000F0BFFA0A9B6C001F02E3
:10116000324B64199C46A4006444636881469F42E4
:1011700000D967602B1FDBB29A46012B30D9C02300
:1011800080229B01E31812011A60294BAD005959C6
:101190009B4600291BD1226876017240E0268023FD
:1011A000164052465B01E3181E60012A30D98023A5
:1011B00080229B01E31812011A605B464A46676071
:1011C0005A513CBC90469946A246AB46F8BD586978
:1011D00000F082FA431C5800C0180338FDD2DAE749
:1011E0004346012BCBD1C02303229B01E3181A6095
:1011F000023AA3681A42FCD0226876015640E022E7
:10120000802316400A4A5B019346E3181E60AD0036
:1012100042462168514003220A401A600123424697
:101220009340A2681342FCD0C1E7C0460080004052
:10123000481A0020F0B546469846354B4F469C4626
:10124000D64644002418A40064446368C0B50F0067
:101250001600FF2B02D880235B006360031FDBB204
:101260009946012B31D9C02380229B01E31812013A
:101270001A60284B850059599A4600291CD12268CA
:1012800076017240E026802316404A465B01E3184F
:101290001E60012A30D9802380229B01E3181201AD
:1012A0001A6080235B004246636053465A511CBC5F
:1012B00090469946A246F0BD586900F00DFA431CCD
:1012C0005800C0180338FDD2D9E7012FCBD1C02375
:1012D00003229B01E3181A60023AA3681A42FCD069
:1012E000226876015640E02280231640094A5B01BD
:1012F0009246E3181E6085000322216879400A4067
:101300001A600123BB40A2681342FCD0C3E7C04669
:1013100000800040481A0020014B8000C0587047F0
:10132000481A0020F8B50400204817001D000E00E0
:1013300000F0D2F90100380000F0CEF9069A2B0433
:10134000120313432268002A1FDB194AA2185142D4
:101350004A41802149018C4652420A401549624463
:101360000A6015490A60154917000D68AF43FBD1A3
:10137000134A2660A1182122A0600A602268002A70
:10138000FCDAE36008230B60F8BD3F2221680A40C5
:10139000B242DAD1A2681205120D8242D5D1EE21F5
:1013A000E268C9020A409A42CFD1EDE7001BB700BC
:1013B0000040FDBF00E0004000F0004008C00040D9
:1013C0000430000010B5140080221B4BD2051A60B7
:1013D00000281AD00123194A1843194BDA61194A17
:1013E00042401A62596298628022134BD2051A60F9
:1013F0001549164A1160E022D2041A60002C07D168
:101400008022134B12061A6010BD0D4BD861EBE71A
:1014100080236201121B9200121912015B049A428E
:1014200000D30C4A0C4B1A60054B5A608022084BC3
:10143000D2051A60E8E7C04600B00540D3C007B047
:10144000008005402D3FF84FFCFF010008200140BF
:1014500000A00540FFFFFF00A81E00208023024AD5
:101460009B000B43D362704700800540142310B5E6
:101470000100188804331B88984710BD162310B547
:101480000100188802331B88984710BDF0B5C64686
:1014900000B5002916D0142304000125984618270A
:1014A000890046184346216818883B88984701C43C
:1014B000431E984140420540A642F3D1280004BC97
:1014C0009046F0BD0125F9E7142370B50400188893
:1014D00004331B880D000549984703000020002CA9
:1014E00001DB0130A04029009847C046554200006A
:1014F000AA23064A1B0113602F230549D360054B1D
:1015000019605368002BFCDA7047C0460040024067
:1015100000B0FA00006002407047C04610B50148B4
:10152000FEF712FFE445001070B5074B074C9C42D4
:1015300009D2013B1D1BAD080135AD002D1908CCAA
:101540009847AC42FBD170BD5C45001020450010AF
:10155000054B064A06491A60064A074B1A601000F6
:101560000B689843FBD1704700E00040BFCDFBFE05
:1015700008C00040FE7F3C0000F00040044BDB6CE4
:10158000002B03D18022034BD2021A607047C04661
:10159000000011504C201150044A054B1A60054AB6
:1015A0001368DB018033FBD17047C046FFFFFF01AA
:1015B00000F0004008C000404022034B9A675A6781
:1015C0001A67DA667047C04600F0014010B5FEF7B2
:1015D00061FF10BD70B5044D044C2800C022A16805
:1015E00000F08CF9A56070BD0000002000ED00E067
:1015F000002310B5294C82B0A367FFF779FF0122C1
:10160000274B1A60636C012BFCD10322254B1A6017
:10161000224A936B012BFCD1013300930121224A12
:1016200022480433FFF77EFE052301210093204A60
:101630002048FFF777FE0022022104201E4BFFF70F
:10164000F9FD0022012105201C4BFFF7F3FD0022CC
:10165000002107201A4BFFF7EDFD00220021082092
:10166000174BFFF7E7FD8023DB00009300220021EA
:101670000920134BFFF764FD0022104B00210620C8
:10168000FFF7D8FD0420FFF747FE0E4900F024F8CD
:1016900001000020FFF7E2FE02B010BD0080004014
:1016A0003CB0004030B00040002F6859008002403C
:1016B000008C864700C00240001BB70040597307EA
:1016C000006CDC0240420F0001480421014B184726
:1016D000E01000208D140010114A936F9B0813D264
:1016E00010665166002905D0FFE7FFE7FFE7516F5D
:1016F000106F704704B5002801D00020C04302F0ED
:10170000C7FE002104BDC046F0B5146E556E576F7C
:10171000166FFFF7E5FF1466556657671667F0BD4D
:10172000000000D0132370B51D78012D19D014DDF1
:101730002948FFF7A3FE06002848FFF79FFE284C24
:1017400080223100200000F0D9F8022D06D0254873
:10175000FFF78CFE244B186070BD214C234AA26415
:10176000F5E72E001E4C214AA3085B421E401D4295
:101770002FD0330022602020B1006118801B0A6046
:101780004A608A60CA600A614A618A61CA610A6203
:101790004A628A62CA620A634A638A63CA630A64E3
:1017A0004A648A64CA640A654A658A65CA650A66C3
:1017B0004A668A66CA660A674A674008102803D1E3
:1017C0008A67CA67A264C2E71E339B00E250A26424
:1017D000BDE70023CFE7C046534400005346000056
:1017E000FC1E00204C330000D01E0020F11700101A
:1017F00007B5604601880A0A0230DF2AFAD1C9B269
:10180000820804D3028840880004104300E0006886
:10181000014A5050039007BDFC1E00205143434332
:10182000C9188C46110C83B24B4310B4040C6143AD
:1018300092B280B2504362431C041B0C001910BCCE
:1018400059411304120CC018514161447047000003
:10185000132310B512481C78FFF710FE0100012C6D
:101860000AD003DD80220F4800F048F80E48FFF749
:10187000FDFD0E4B186010BD0A4C5422200000F0F4
:101880003DF80B4B6365A365E36523666366A3665A
:10189000E36623676367A367E3672362E361E5E7C2
:1018A00053460000FC1F00204C330000D01E0020D7
:1018B000B518001007B5604601880A0A0230DF2A11
:1018C000FAD1C9B2820804D30288408800041043C8
:1018D00000E00068014A5050039007BDFC1F002043
:1018E00001480421014B1847F01000208D1400100E
:1018F000014B1B6818470000F0100020014B5B688B
:1019000018470000F010002010B5002800D110BDCD
:1019100000F024F9FBE7C04610B5094A030014683B
:1019200084B0002C08D0012200910648524203A93D
:10193000A047012004B010BD00F05CF90020F9E7D9
:10194000A41E00200919001000BEFDE710B5FFF726
:10195000FBFFC04670B5FFF7E7FD074C074B9C4205
:1019600009D2013B1D1BAD080135AD002D1908CC76
:101970009847AC42FBD170BD5C4500106445001037
:10198000030010B508001B681100984710BDC04641
:10199000F8B54746CE4680B5437D07000D001600DA
:1019A000002B37D000240020002A1EDD4B1E984655
:1019B0001B4B9946002C2BD043461B5D0D3B5A42D6
:1019C0005341DBB22A5D0A2A13D00134A642F1DC6E
:1019D000864203DD311A3B6828189847AD19013D4E
:1019E0002B780D3B5A4253413B750CBC90469946AF
:1019F000F8BD002BE9D1A04203DA211A3B68281870
:101A00009847484602213B68013498472000DDE7AB
:101A10003B7DD7E70368110028009847E5E7C046FB
:101A200084460010F0B5DE4657464E464546E0B5C2
:101A300085B017001C0006000D00FFF767FB0023B0
:101A4000314A12184B41002B59DB304908008A46B5
:101A500002F036FD01906B1C03D1300002F0CAFC8D
:101A60000500002C26D12A4B98462A4B1C68002CD6
:101A700015D0002F21D1284F02E02469002C0ED070
:101A80002368002BF9D03B68002B01D0A342F4D18E
:101A900020002A003100C0472469002CF0D1019BAE
:101AA000002B28D1280005B03CBC90469946A246A0
:101AB000AB46F0BD194B9846D7E7174B994602AB9A
:101AC000DF1D0A239B4602E02469002CE7D023682F
:101AD000002BF9D04B461B68002B01D0A342F3D159
:101AE0002A0031002000C0475B4601223900200057
:101AF0003B70C047E8E7504602F0C2FCD2E7012243
:101B0000074B5242A1E7C04640420F003811002067
:101B100081190010981A0020A01A002091190010B5
:101B2000FFFFFF7F0A4A1368002B05D10CE01A0063
:101B30001B691032002B07D09842F8D1002902D13E
:101B400003691360016170470029FCD01060FAE757
:101B5000981A002010B500F08BFA10BDF0B5CE46F3
:101B6000474680B583B06B460500DE1D3070FFF739
:101B7000CDFA00231A4A12184B41002B2CDB1949CD
:101B80000800884602F09CFC174B07001C68002CDC
:101B900016D0164B994602E02469002C10D0236819
:101BA000002BF9D04B461B68002B01D0A342F3D188
:101BB000200001223100FFF7EBFE2469002CEED15A
:101BC000002F05D1280003B00CBC90469946F0BD0B
:101BD000404602F055FCF5E70122054B5242CEE7A4
:101BE00040420F0038110020981A0020A01A00204F
:101BF000FFFFFF7F70B5040002F0FCFB0123010032
:101C0000050001222000FFF70DFF084B1C68002C87
:101C100006D06368002B05D098472469002CF8D1C2
:101C2000280070BD2469002CF3D1F9E7981A002030
:101C30007047C0460022014B1A707047F61E002004
:101C40004B790020FF2B0BD18B79002B08D1CB795E
:101C5000012B05D1082A03D98A78024B09301A7062
:101C60007047C046F61E00200120704710B50129BC
:101C700009D115495379107909781B0203430020D3
:101C8000994202D010BD0120FCE75378012B08D007
:101C9000022BF7D1002064220021FFF793FB0120E3
:101CA000F0E7D37891781B021943DB0507D54A0A80
:101CB000100001231A407E331940FFF705FC012074
:101CC0004A0A4042F5E7C046F61E00200048704729
:101CD000A846001070B5050014000120012909D1A3
:101CE00053780020012B05D1637912791B0213432D
:101CF000072B00D070BD21002800024A9F3301F05D
:101D00004BFAF7E7CC4600100123037000487047F8
:101D1000884600104A780B7812021A438B7810B567
:101D20001B041A43CB781B0613439622D20093421E
:101D300000D010BD0022012011004042FFF7C4FB7B
:101D4000024B1860024B19607047C046381A0020D9
:101D50003C1A002010B5024B1878FEF7D9FB10BDD5
:101D6000F71E0020154B70B51A68002A22D0EFF339
:101D7000108172B610680028FCD0BFF35F8F00227C
:101D80000F48596002701B68BFF35F8F1A6081F3C0
:101D90001088002400250B4E3078FEF7ADFB00289C
:101DA00004D1002400252900200070BD3078FEF702
:101DB000AFFBF8E7FA240025A400ECE7B01E0020F2
:101DC000F81E0020F71E002070B5040000200E0051
:101DD00001F006FB002835D0002001F019FB002897
:101DE00030D0FFF793F90023184A12184B41002B0B
:101DF00024DB174D280002F063FB002822D00020CE
:101E000001F0EEFA00280BD101200021032440420A
:101E100000F006FD6442280002F032FB200070BD95
:101E2000002001F0F5FA0028EED021003200002059
:101E300001F0FAFA041EEED1033CECE70122054B57
:101E40005242D6E703246442E8E7C04640420F000E
:101E5000D81E0020FFFFFF7F10B5FFF757F90023C2
:101E60000E4A12184B41002B13DB0D4C200002F0E0
:101E700027FB00280CD001200021404200F0D0FCBC
:101E8000002001F01DFB0028F5D1200002F0F8FA37
:101E900010BD0122034B5242E7E7C04640420F000B
:101EA000D81E0020FFFFFF7FF8B5DE46574680B5FD
:101EB00005000C00FFF72AF90023364A12184B419F
:101EC000002B5ADB344908008A4602F0F9FA002850
:101ED00003D10CBC92469B46F8BD002001F080FA6D
:101EE00000284ED00026002C43DD2C4B9B4614E0EE
:101EF000A919002001F020FB070001200021404229
:101F000000F08EFC002001F0DBFAFFF7FFF8234B16
:101F1000F61918605960B4422BDD002001F02EFB49
:101F2000A71B0200B84200DD3A00002AE0D10120E0
:101F30000021404200F074FC002001F0C1FA0020B2
:101F400001F04EFA002814D0002001F017FB002801
:101F5000E1D1FFF7DBF85B460F001A685B680021F0
:101F600084460F4812184B419F4202D8D3D1944562
:101F7000D1D9504602F084FAABE70122094B524214
:101F8000A0E700200021054B18605960504602F080
:101F900077FA9EE740420F00D81E0020C0120020B2
:101FA00020A10700FFFFFF7F30B52A4C85B000213C
:101FB000200002F075FA00281CD1274B1A68002A6D
:101FC00016D0EFF3108172B610680028FCD0BFF372
:101FD0005F8F01242148596002781B68D2B20470D7
:101FE000BFF35F8F0020186081F31088002A17D09C
:101FF00005B030BD01200021404200F011FC00205E
:1020000001F006FA0500200002F03AFA002DEFD0A8
:10201000134B1B68002BEBD0124A10689847E7E778
:10202000FEF774FE0400FFF771F8FA220023920015
:1020300012184B41002B09DB012102910021019173
:10204000094920000091FEF765FED1E70122074B08
:102050005242F1E7D81E0020B01E0020F81E0020DA
:10206000381A00203C1A0020651D0010FFFFFF7F7A
:10207000D02310B51B0684B01C68FEF747FEFEF7A0
:102080003FFFA04202D0002004B010BD284B1B78B7
:1020900001F0A6FD27480368002B41D00120FEF780
:1020A000BBFBFF23244C254920701840FEF74EFA55
:1020B00020780121FEF70EFA0520FEF731FA0028FC
:1020C00021D1082200211E48FFF712FCFEF71EFE58
:1020D0000400FFF71BF8FA220023920012184B416C
:1020E000002B20DB012102910021019115492000E4
:1020F0000091FEF70FFE0028C5DB13480121FFF712
:1021000011FD0120C0E70120FEF7B4F901000C48E1
:10211000FEF7E6FB002205200C49FEF741FAECE74A
:10212000FEF7C2FBBAE70122094B5242DAE7C0468A
:10213000A0490010D81E0020F71E0020A91F001083
:10214000B01E0020651D001000110020551D00105C
:10215000FFFFFF7F00487047144800100048704799
:10216000C047001070B5040016480378002B20D03B
:10217000002C06D1C1241448144BA40043800480D1
:1021800070BD052C1CD8124B0F48A400E558811CCB
:10219000002304E001330A800231132B0DD0EA5CE6
:1021A000DCB2002AF6D1C023013464009B001C433A
:1021B000E5E7112100F016F8DAE7CA24A400DEE70B
:1021C0000020DDE7E01E0020701A00200904000056
:1021D0002848001010B5024800F0E2F810BDC046D3
:1021E000C81E002030B54B1E012900D1B0E06B4A5B
:1021F00011780D112C0030349F2900D9ABE0047008
:10220000012B00D1C7E00F21147821400C0030349D
:10221000092900DDA1E04470022B00D1BBE0517818
:102220000D112C0030349F2900D999E08470032BC4
:1022300000D1B0E00F21547821400C00303409293E
:1022400000DD8FE0C470042B00D1A4E091780D1163
:102250002C0030349F2900D987E00471052B00D170
:1022600099E00F21947821400C003034092900DDD9
:102270007DE04471062B00D18DE0D1780D112C004A
:1022800030349F2900D975E08471072B00D182E09A
:102290000F21D47821400C003034092900DD6BE097
:1022A000C471082B00D176E011790D112C00303467
:1022B0009F2964D80472092B00D16CE00F21147996
:1022C00021400C00303409295BDC44720A2B62D0B7
:1022D00051790D112C0030349F2955D884720B2B65
:1022E00059D00F21547921400C00303409294DDC9C
:1022F000C4720C2B4FD091790D112C0030349F29D2
:1023000000D9073404730D2B45D00F219479214057
:102310000C003034092901DD37310C0044730E2BD9
:1023200039D0D1790D112C0030349F2900D90734D0
:1023300084730F2B2FD0D1790F220A40110037312F
:10234000092A01DC30321100C173102B23D0103068
:102350000023037030BD073451E737310C005AE7D2
:10236000073463E737310C006CE7073475E7373122
:102370000C007EE7073487E737310C0090E707341D
:1023800098E737310C00A0E70734A7E737310C0096
:10239000C4720C2BAFD1C018DAE7C046C81E0020AB
:1023A00030B5002589B004000922002101A800955C
:1023B000FFF79EFA0922002105A80495FFF798FA75
:1023C0004B236A466846137004A90D2202F050F8A8
:1023D0001521082220006944FFF790FA09B030BDAA
:1023E000F8B500F041F90C231A4DFF22AB67052028
:1023F0001949FEF7D5F8194C402200212000FFF7BB
:1024000077FA402700230126002221201449667014
:1024100063802783E276A1600B6022545F30608482
:10242000453810492254104A63602787A262E16050
:1024300013606362E16202F013F880239B052E644F
:10244000EB649023094AEA508022094B5202DA6475
:10245000F8BDC046000011501D050020A41A002040
:1024600084001050000110508000105010D0010066
:102470000020115010B501210520FEF72BF810BDEA
:1024800010B500220021024800F00EF910BDC04630
:10249000C41A0020044B1970002904D08021902315
:1024A000024A8902D1507047F21E002000201150CC
:1024B0000B785B0602D14B78052B00D070478A78E9
:1024C000014B1A60FAE7C04600001150F0B5C6464D
:1024D00000B5CC7888780A794B797F21A407014030
:1024E0001B02C50913434F00A20F1400324E7A1984
:1024F0005201B218907001206840507000205B05B6
:102500005B0DD0701383D4768046CA00012D33D082
:102510002A488446880162448446B4446046826006
:1025200040461060002933D0254AC90090466246D3
:10253000414451603F223F339343022C00D15B0062
:1025400020487A1901685201B218D1601E4ACB188E
:10255000036051405340802288465201934228D85C
:102560004346A4061C4380237F197F011B06F619EE
:102570001C4373681C6011E014488446880162445F
:102580008446B4446046826240461060002909D106
:1025900000236D01761973600D4BF360012004BCBC
:1025A0009046F0BD084AC9009046624641445162D7
:1025B000C0E7FEF7B3FFD3E7A41A00208400105051
:1025C00004001050AC1E002000001050800010507D
:1025D0000001105010B501F043FF10BD10B57F2071
:1025E0000C0020404000E409110000191A00034BC0
:1025F0004001C01800F058F8012010BDA41A0020B6
:102600007F23180010B508400B420BD0C909802267
:10261000400040180649400140181201002101F015
:1026200077FF10BD0223034AC9095B1A9366EEE7E0
:10263000A41A0020002011507F23180010B5084074
:102640000B4200D110BD00234000C90941180448C5
:102650004901401800220349C37001F059FFF1E716
:10266000A41A0020FFF7FFFF80220A4B520410B586
:102670001A60094B09491A6010000B689843FBD196
:102680008022002152010648FFF732F90922054B4A
:102690005A6710BD00E0004000F0004008C0004054
:1026A000000010500000115070B5837E04000D0032
:1026B0001600002B19D100232100E3820133A682EA
:1026C000A3762561A01C1B3101F01AFF002804D05D
:1026D00080219023084A8902D150200001F0F8FEA1
:1026E000002805D00123237770BD01F001FFE2E748
:1026F000200001F0F5FEF7E7002011507047C046BA
:102700007047C04600207047002070477047C046A1
:102710007047C0467047C0467047C046024B587865
:10272000431E9841C0B2704710160020024B187823
:102730004007C00F7047C04610160020F8B5474646
:10274000CE4680B52B4F80463B780120FF2B03D02F
:102750000CBC90469946F8BD002154222648FFF74C
:10276000C7F80022254C264B20001A70FEF79CF873
:10277000244B1C60244C20001430FEF7A3F82000EA
:1027800001F0F4FD214B224D1C60224B002B04D0A4
:102790002800FFF7B9FA204B1860204900240023D5
:1027A00089462A781C4E10E03268630194466344DF
:1027B000002B12D05B68002B0FD098472A78013489
:1027C000E4B2511C2300A14209DBA242ECD89B1ABF
:1027D0005B014B445B68002BEFD10020B8E7434618
:1027E00040463B70FFF7FCFD4046FFF743FE0120EB
:1027F000AEE7C0463411002010160020C815002096
:10280000F31E002064160020181100206816002016
:10281000F11E0020091D0010E412002044490010A0
:10282000F0B5DE4657464E464546E0B5BF4B8BB049
:102830001B78FF2B00D126E1BD4B07AC9A46BD4B60
:102840009B4653461D686A69EFF3108172B61368A0
:10285000002BFCD0BFF35F8FA9612800210001F09D
:10286000CFFB6A69AB69BFF35F8F0021116083F30F
:102870001088002800D106E16378082BE1D85A4679
:102880009B00D3589F466368002BDAD0A068984716
:10289000D7E77F232179A84D0B405800CA092D188E
:1028A000AD182A00012630321079B043107110792A
:1028B0000336B0431071002B00D1EDE09F4A2B7D11
:1028C0001278934200D3DBE09D4A5B011268D31873
:1028D000002B00D1D7E09D6962792078A368A847D2
:1028E000AFE7984A1378002B00D1CCE01378013B76
:1028F000DBB213701378002BA3D101228E4B012180
:102900001B788D4813438C4A8B4D13703423D25C53
:102910008A43C254C25C04208243EA540133EA5C15
:102920008A43EA54EA5C8243EA54237800209946B9
:1029300000F098FC602223791A40602A0DD0402ACA
:1029400000D1B4E0DB06DB0E012B00D102E1022B4B
:1029500000D1C6E0002B00D1B5E020780021FFF7C0
:102960004FFE80212078FFF74BFE6AE7724D2B78EF
:10297000DB0700D465E7FFF7CFFE62E76E4BDB783D
:10298000DB0700D45DE76068FFF7BAFE59E76A4DE0
:102990002B78DB0700D454E728780007C00FFFF737
:1029A000B9FE4EE76849654D894665490023002612
:1029B000884627782A7810E04246126873019446C8
:1029C0006344002B66D0DB68380098472A780136CC
:1029D000F6B2511C33008E423CDC9642ECD39B1A7B
:1029E0005B014B44EFE75849544D89465449002355
:1029F0000026884627782A7810E04246126873013C
:102A000094466344002B20D0DB68380098472A782E
:102A10000136F6B2511C33008E4205DCB242ECD8CE
:102A20009B1A5B014B44EFE7434D542200212800E1
:102A3000FEF75EFF1022FF21281DFEF759FF280038
:102A40002022FF211430FEF753FF00F001FCFFF7B6
:102A50005FFEF6E6384D542200212800FEF748FFBD
:102A60001022FF21281DFEF743FF28002022FF210E
:102A70001430FEF73DFF00F0EBFB2379AB70E0E68E
:102A8000501C98420EDA0BB03CBC90469946A246C8
:102A9000AB46F0BD284DEEE762792078A36800F0E0
:102AA000F5FBCEE69B1A284A5B01D31813E72748AB
:102AB00000F0D8FB0121484608AAFFF70BF90028CF
:102AC00000D0BEE649E7202A00D149E1002A00D023
:102AD00043E76379092B00D93FE71D4A9B00D35890
:102AE0009F467023217A0B4200D036E77F25124B98
:102AF0000D406D00CF095B19DB191E7D0F4B1B7854
:102B00009E425DD3581CB04200DA45E1F61A0E4BE6
:102B100076019E19002A00D142E1706900F0A2FB03
:102B200001214846736908AA9847C8E73411002074
:102B3000681600209C48001010160020F11E00208E
:102B4000E4120020F31E002044490010D51C0010A0
:102B5000C0480010237A0F2B00D9FEE6D44A9446D1
:102B6000D44A63441B791278934234D3511C99425E
:102B700000DAF2E6D04D9B1A5B01ED18686900F0AF
:102B800071FB012148466B6908AA9847002800D0CC
:102B900057E66022150023791D401A4200D0DCE67A
:102BA00063790A3B012B00D9D7E600F05BFB637920
:102BB0000A2B00D150E1484608A900F0D5FA40E6BA
:102BC000BE4B76011B689E19002A00D1E8E0002E5A
:102BD00000D1C2E6A1E7B94A5B011568ED18002DE6
:102BE00000D1BAE6CAE7B24BA6795B789E42E2D042
:102BF000AF4B5B78002B00D066E1AD4B5E70002ED2
:102C000000D151E1701EC0B2FFF7A8FA002800D130
:102C100046E143780493022B00D041E10121C279BF
:102C20000700931152110B400A4012015B0113433C
:102C30009F4A2F31127809378A4313439C4A1370F5
:102C4000C37882781B021343C31802939B4B9846A8
:102C5000029BBB4200D808E101227B7800920B2B3B
:102C600004D1FB7800933B78FF187B78042B00D0CD
:102C700016E1029B0026DB1B9BB203938D4B1D7854
:102C8000002301931BE0424612687301D518002D02
:102C900000D105E139004846039A2B699847059011
:102CA000082803D9039A824200D3E1E0814B013620
:102CB0001D78F6B26B1C01969E4200DDF0E0B54235
:102CC000E1D8019B5D1B7C4B6D019C466544E1E7AF
:102CD000774B06AA5B78023213704846012308A995
:102CE00000F05AFAADE5E088030AC0B20F2B00D914
:102CF00033E673499A008A58974608A800F0B8FA54
:102D00004846A179FFF7BCFB0222694B1B781343AD
:102D1000674A137095E5E388012B00D01DE6082271
:102D2000634B1B789343624A137044E70220604B65
:102D3000197806AB9A1C8B068908DB0F01400B4300
:102D400013804846022308A900F026FA79E5E388B3
:102D5000012B00D001E60822554B1B781343E2E714
:102D6000237A0F2B00D9F8E5514A9446514A63441F
:102D70001B791278934228D2504A5B011568ED18EE
:102D8000002D00D1E9E5686900F06CFA01214846A0
:102D90006B6908AA984792E60026002A00D0DCE575
:102DA0000222637998469343012B17D04346002BA8
:102DB00000D0D2E53E4B06AA9C466544EF19303759
:102DC0003B7902329B07DB0FBAE7511C994200DACC
:102DD000C3E5394D9B1A5B01ED18D4E7E388002B5E
:102DE00013D14346012B25D0364B1878FFF708FC4A
:102DF0002F4B02229C466544EF1930373B79134331
:102E000001223B713B7913433B71002E00D118E541
:102E1000706900F027FA736908AA012148469847AB
:102E2000002000F01FFA3523214AD35CDB0700D5D0
:102E300007E5C0E6234B1878FFF7FEFB1C4B022288
:102E40009C466544EF1930373B79934342463B71CA
:102E50003B7993433B71D8E706AB9A1C4846012364
:102E600008A9157000F098F9EBE4FFF74FFCA2E613
:102E7000009B012B00D184E0009B002B70D000232D
:102E8000B97805E016710133009ADBB2934267D23C
:102E900007485A188446D2B262441079FF28F1D00C
:102EA0000023034A537058E5FFF732FC83E6C0461F
:102EB00010160020F11E002044490010E4120020EA
:102EC000E84800103411002000214846FFF7E2FADC
:102ED0004846FFF77FFB434B434D9B7843490093A4
:102EE0000027002388462A7810E0424612687B01BA
:102EF00094466344002B21D0DB68484698472A78E3
:102F00000137FFB2511C3B008F4207DCBA42ECD8BC
:102F10009B1A374A5B0194466344EDE75422002133
:102F20003048FEF7E5FC2F4B1022FF21181DFEF75D
:102F3000DFFC2022FF212F48FEF7DAFC294B009A04
:102F40009A705AE6FEF7C2FE021E00D105E5D3785C
:102F500091781B020B43484608A900F01DF9AEE525
:102F6000059D33002A003900224800F0BFFEAC4620
:102F70001D4B019A1B7867440133934200DB67E6DF
:102F80008EE71D4B2A699A4200D078E7049B009394
:102F900075E7FFF7B7FB021E00D1DEE44846137861
:102FA00008A900F0F9F88AE52189FFF7DBF8021E8D
:102FB000F4D1D2E4022B0FD0FFF7A6FB021EC6D13C
:102FC000CBE4FFF7C7F8021E00D1C6E4122348463F
:102FD00008A900F0E1F872E5FFF7C0F8021EB6D1CB
:102FE000BBE4C04610160020F11E0020E4120020B1
:102FF000444900102416002085360010F8B55746C5
:103000004E46DE4645460C00E0B516001F00002A7D
:103010003CD0702398461E4B00259B461D4B9A467C
:103020001AE05B461B78200099465346997800F0D9
:1030300021FE00281CD021004846FFF747FA00284F
:1030400016D0A378DA09012A19D00A9A013513702B
:103050002378E418B54219DA6378052B08D1E378B0
:103060009B079B0FBB4203D14246A3781A42D8D09C
:1030700000203CBC90469946A246AB46F8BD0B9A50
:10308000013513702378E418B542E5DB0120F0E741
:103090003411002010160020702270B58B780C00BF
:1030A0001A4201D0002070BD064B20001D78064B4F
:1030B000997800F0DFFD0028F4D021002800FFF708
:1030C00005FAF0E734110020101600200B007F20D5
:1030D000064A184010B5DB09116834334200D01895
:1030E000034B181800F082FD10BDC0466416002086
:1030F000101600200B007F20064A184010B5DB098F
:10310000116834334200D018034B181800F096FDB4
:1031100010BDC046641600201016002070B57F2434
:103120000C4060000E4CCD09241864193034257908
:103130000020ED0700D570BD0126257909483543EB
:1031400000782571FFF74AFA0028F4D1012223798B
:10315000934323712379033293432371EBE7C046F2
:10316000101600203411002070B50A4E0500082208
:1031700030000C00FEF7C2FB002161560023C9435A
:10318000C90F2800F3600022C901B360FFF7C6FF32
:1031900070BDC046B4150020F8B5CE4647469046EF
:1031A000294E80B58146082230000D001F00FEF731
:1031B000A5FB4346B3600023F381EC79AB7924028D
:1031C0001C43231CBC4200D93B1C9FB2B381002C82
:1031D00012D0002F1ED04346002B32D03B1C402F74
:1031E0001ED89FB233787F2B1FD80021174A3B008F
:1031F0004846FFF793FF09E0002169560023C943C1
:10320000C90F00224846C901FFF788FF0CBC904651
:103210009946F8BD33787F2B10D980210022E6E74C
:1032200040239FB233787F2BDFD9084C3A004146C8
:103230002000FEF763FB80212200D8E70021002256
:10324000D5E70020E2E7C046B4150020D0150020E5
:1032500010B5142200210248FEF74AFB10BDC046FB
:10326000B4150020014B18617047C046B41500200A
:1032700010B5054C010008222000FEF73FFB00239B
:10328000A360E36010BDC046B4150020F8B5394C0A
:103290001D0023780600DA09C9098A4210D00020EF
:1032A000002D00D0F8BD21003000FFF701F923699F
:1032B000002B41D022000321300098470120F1E784
:1032C0007F2B06D8A068002838D02A002A49FEF7AC
:1032D00015FBA368E28959195219E38892B2E28179
:1032E000A160934214D03F2D12D9A589A81A071CBA
:1032F00080B240282ED82378BFB27F2B2CD8002153
:10330000AA4234D01C4A3B003000FFF707FFC9E750
:103310002369002B05D022000221300098470028A5
:103320000ED0002161560023C943C90F002230008E
:10333000C901FFF7F3FEB5E70120B3E70020B1E7CD
:1033400000213000FFF75CF930008021FFF758F9C9
:103350000120A7E74027CEE7AA4207D0064C3A0053
:103360002000FEF7CBFA80212200CCE7802100224A
:10337000C9E7C046B4150020D015002070B5040080
:10338000FFF7CCF9002802D10025280070BDFFF717
:10339000CDF9051EF8D1E378002BF5D026001036C4
:1033A000300000F017FE3F28EED90020E178FFF74B
:1033B0008DFE0028E8D0300000F00CFE3F2809D92F
:1033C00092239B00E21800204023E178FFF7A6FE3D
:1033D0000500DAE7E1780020FFF78CFED5E7C0466C
:1033E00010B50400FFF79AF9002801D1002010BDA4
:1033F000FFF79CF90028F9D1B2208000444303482C
:103400000019037901201840F1E7C046EC120020B2
:10341000B2239B00584310B5024B1030C01800F087
:10342000BBFD10BDEC120020F0B5B226B60046433D
:103430003500C6461F4F204B1035040000B57D19DE
:103440009A4200D91D4A280092B200F027FE804619
:10345000FFF764F9002803D1404604BC9046F0BD54
:10346000FFF764F90028F7D1B2239B005C433C19B5
:10347000E378002BF0D0280000F0ACFD3F28EBD91A
:103480000020E178FFF722FE0028E5D0280000F0B8
:10349000A1FD3F2809D992239B00F218E17840232F
:1034A000BA180020FFF73AFED6E7E1780020FFF7D0
:1034B00021FED1E7EC120020FEFF0000FFFF00001C
:1034C000F8B50400FFF72AF9002801D10020F8BD63
:1034D000FFF72CF90028F9D1B220800044432500E1
:1034E000144E2435AD19280000F056FD0028EDD00B
:1034F00037190020B978FFF7E9FD0028E6D0A223AC
:103500009B009C466444A41921002800402200F03E
:10351000C5FDB978051E08D0030022000020FFF782
:10352000FDFD0028D2D02800D1E70020FFF7E2FD02
:10353000CCE7C046EC12002070B5B224A40044438E
:103540000B4B2434E4180B4B05009A4200D90A4A6D
:10355000200092B200F05EFE0600200000F01CFD8C
:103560003F2801D8300070BD2800FFF7A9FFF9E718
:10357000EC120020FEFF0000FFFF0000B2239B00C2
:10358000584310B5024B2430C01800F023FD10BD85
:10359000EC120020B222F0B500251C4C83B00021B3
:1035A00020009200FEF7A4F9194B80261D70FF231E
:1035B0006371E1235B02A3602100082320007600F1
:1035C000A3733200A58138310095073B103000F01D
:1035D000ABFC21000123200039313200FF31009380
:1035E000243000F0A1FC8E239B00E7183800FDF783
:1035F0005BF990239B00E6183000FDF755F9E56173
:1036000027622663656303B0F0BDC046EC1200205C
:10361000E8120020074B1A6A196B002A02D0002218
:10362000DA611A62002902D000221A635A6301206B
:103630007047C046EC12002070B50F4C05220021E7
:103640002000FEF755F90D4D2B78DA0707D50C4C05
:103650009B070CD50121200000F0A8FE70BD2000C2
:10366000103000F083FE2B78054C9B07F2D420002D
:1036700000F07CFEEEE7C046EC120020E8120020CD
:1036800010130020F0B5C64600B54B79060082B095
:10369000022B02D18B79022B05D00025280002B025
:1036A00004BC9046F0BD224FBB78002BF5D18B783F
:1036B00009253B700C780C196378242B0BD1082A50
:1036C00002D80FE0AA420DD32378E418ED186378EE
:1036D000ADB2242BF6D0052B08D0042B02D1637990
:1036E0000A2B11D03800FFF749FED7E72100300040
:1036F000FFF7D2FC0028D0D0A3787B702378ED1898
:10370000E4186378ADB2E8E7237821009846094BC6
:103710000222019301330093300002234144FFF75A
:103720006DFC0028B9D00E354544ADB2DAE7C0468D
:10373000EC120020EE120020F8B56023140012787D
:10374000050013400020202B12D1304E63792779D9
:1037500032781B023B439A420AD16378222B28D04D
:1037600007D8202B17D0212B02D101293FD00120CF
:10377000F8BD232BFCD1012941D00329F7D1244BDB
:10378000002BF4D0E178A37809020020194300E06F
:1037900000BF0120ECE7012929D00329E7D11D4B07
:1037A000002BE4D0310000200831FEF7B3FA0120ED
:1037B000DEE7012923D00329D9D101252F003000CC
:1037C000A378E478023924021C43274034717940FD
:1037D000243000F0EBFD104B002BC8D02A00640809
:1037E00000203900224000E000BF0120C0E707238D
:1037F00021002800094AFFF7CFFC0120B8E721008B
:103800002800FFF7B1FC0120B2E7C046EC1200200F
:1038100000000000151D001000000000F412002040
:10382000F8B545465746DE464E46E0B54B4D804618
:10383000EA780C001F008A4260D19AB292239B0062
:10384000EE1810239A46AA443100504600F0E2FCDC
:10385000434B002B19D06B79FF2B16D0002F14D0BF
:10386000F2199146AB4603E001364E450DD06B7917
:1038700032789A42F8D1504600F0A4FB0028F3D1E8
:103880005B46597900E000BFEEE7364B002B04D0D1
:10389000354800F097FB002859D02800FFF76EFD4F
:1038A000AB78A34207D0012420003CBC9046994647
:1038B000A246AB46F8BD2D4B002B02D0002000E005
:1038C00000BFFEF72BFF00281DD1294C200000F07F
:1038D00063FB0028E7D1002FE5D0BB06E3D1243CF1
:1038E000A1784046FFF7F2FB2500041EDBD0002341
:1038F00000224046A978FFF711FCD5E7AB788B4250
:10390000D9D00024D0E7FEF711FF194C0028DDD1F3
:10391000200000F041FB0028D8D02500243D0020E5
:10392000A978FFF7D3FB0028D0D099239B00E61895
:1039300031004022200000F0B1FBA978031E09D01D
:1039400032000020FFF7EAFB0028ACD1BEE700E020
:1039500000BFA2E70020FFF7CDFBB7E7EC12002085
:103960000000000000000000FC1200200000000029
:1039700010130020B32270B5144C84B00021200035
:103980009200FDF7B5FF231D029323002000802540
:103990004026CD336D00FF33A93000930022002371
:1039A000002103960195FF3000F0BAF923002000B2
:1039B0004433A83402930122002300210396019589
:1039C0000094843000F0ACF904B070BD6C16002097
:1039D00010B5054C200000F0D9F920002538FF383B
:1039E00000F0D4F9012010BD1418002010B5064CC9
:1039F00000232000B1302370FF3000F0B7FC20001E
:103A00008C3000F0B3FC10BD6C160020F0B54E46B3
:103A10004546DE465746E0B54B798146884683B039
:103A2000FF2B27D1AA23454FFF33FE5C253B0C78A3
:103A3000FF3BFB5C4444A5181E431BD18B783B70B5
:103A40000B79002B12D0D8235B009A46253BFF3B15
:103A50009B46BA44BB446378052B05D112E023781A
:103A6000E4186378052B0DD0A542F8D84346E41A34
:103A7000A0B200E0002003B03CBC90469946A246AC
:103A8000AB46F0BDA542F1D921004846FFF704FB43
:103A90000028EFD0A3780136F6B2DB09012B2AD03B
:103AA000504600F063FCAA23A278FF33FA546379EE
:103AB00022791B021343224AD42194465B055B0DF5
:103AC00063445A425341022049007A5C5B008243BE
:103AD00013437B5451464846083900F0B7F9002893
:103AE000C8D02378E41843461B79B342B3D8434681
:103AF000E41AA0B2BFE7584600F038FC5A468523C6
:103B0000A1788C3AD154637921791B020B430C497B
:103B10005B058C465B0D634459424B4184215B003D
:103B200001930223505C9843019B0343535459462D
:103B30000020083900F058F9D3E7C0466C16002081
:103B400000FEFFFFF8B5AA2506001F48FF35455DBA
:103B50001F008D4216D08523C35C00248B420FD1F9
:103B60001A4B002B04D039040020090C00E000BFE0
:103B7000174D3000290000F037F90124002814D037
:103B80002000F8BDDA235B00C35A002B13D1114B80
:103B9000002B04D000201049BAB200E000BF300072
:103BA0000E4900F053F90124EAE73A0029003000F9
:103BB00000F0EEF8E4E7D6235B00C158B130BAB2AA
:103BC000FF3000F027FBE2E76C1600200000000049
:103BD000F0160020000000007016002014180020CD
:103BE00010B50020FEF7AAFD10BDC046037870B5E1
:103BF000DB0704000E00DD0F002B17D103785B07F5
:103C000001D5280070BD01213000494200F050FC70
:103C10002378DB07DD0F002B0AD123785B0708D45C
:103C20000422237801251343237002E00025E8E7EE
:103C30000025300000F024FCE3E7C04670B50D001D
:103C4000012104004942280000F032FC23785B0780
:103C5000DE0F002B04DB280000F012FC300070BDEA
:103C60002378DB0704D40422237893432370F2E7FC
:103C70000026F0E7437902791B0213435B055A0DD6
:103C8000C3789B079B0F022B05D0032B15D0002078
:103C9000012B08D0704702291CD0002040239342FA
:103CA0004041C0B2F6E702394B4259410D4B9C46A8
:103CB000614491424041C0B2ECE702394B42594164
:103CC000F023002049429B0019404031914240417D
:103CD000C0B2DFE7044B9C46624450425041C0B240
:103CE000D8E7C046FF03000000FEFFFF8A1870B54A
:103CF000914207D27F264C78052C04D00C78091904
:103D00008A42F8D870BD34008D782C4064000419C4
:103D1000ED0963550C7809198A42ECD8F2E7C046E0
:103D2000F0B5C64600B582B0150008AA40CA040026
:103D300017880BAA1288012090460A0021780240B9
:103D4000814320001143217000933A000123310088
:103D5000083000F0E9F8002E01D0002F08D10A9BAE
:103D6000012063604346638002B004BC9046F0BD0E
:103D700026001C363000FCF797FD0023002D01D0F3
:103D8000330000266361A661E9E7C0460120704761
:103D9000F8B5E023070008000C785B00A407E417DF
:103DA0001C4008300D0016003F3400F0F5F80028E4
:103DB00007D1002E05D0344203D101242B781C42B8
:103DC00001D00020F8BD38006978FFF77FF900289E
:103DD000F7D02B781C42F4D10023002238006978F8
:103DE000FFF79CF9EEE7C046F8B50D000835060070
:103DF00028000C0000F0D0F8002803D00127237819
:103E00001F4201D00020F8BD30006178FFF75EF955
:103E10000028F7D028006288616800F03FF9237815
:103E2000051E0BD01F42EDD103006268300061789F
:103E3000FFF774F90028E5D02800E4E71F42E1D13C
:103E400030006178FFF756F9DCE7C046F8B5CE469A
:103E5000474680B58B8906000C00002B08D1012550
:103E60000B781D4241D000200CBC90469946F8BD0D
:103E70000B789B0734D440235B42994640252700AA
:103E80000837380000F0A6F8A842ECD301222378C6
:103E900090461A42E7D130006178FFF717F9002801
:103EA000E1D0380000F096F842462378854231D8B8
:103EB0001A42D8D14B4662881840051C80B2904205
:103EC00000D9151CADB200226178002D00D06268C7
:103ED0002B003000FFF722F90028C4D02800C3E7E8
:103EE0008025104BAD009946C9E74978FFF7EEF8F9
:103EF0000028B8D023781D42B5D1638800226178AC
:103F0000002B00D062683000FFF708F90028AAD023
:103F10006088A9E71A42A6D130006178FFF7EAF875
:103F2000A1E7C04600FEFFFFF0B5C64600B504009D
:103F300006A805788020884617001E0000028242ED
:103F400027D8E068002803D00121494200F0B0FAE8
:103F50002069002803D00121494200F0A9FA434614
:103F6000236073045B0CED031D430023E068638151
:103F7000A780E5802381002801D000F081FA206924
:103F80000124002801D000F07BFA200004BC9046F8
:103F9000F0BD0024F9E7C04610B504894189828844
:103FA000A3B288B28C4207D31B1A9BB2101C9A4250
:103FB00000D9181C80B210BD5100091A5B189BB2C1
:103FC000F4E7C04603894089181A43425841C0B2F9
:103FD0007047C04630B5048941898288A3B28DB24A
:103FE0008C4207D35B1B9BB200209A4201D9D31AA3
:103FF00098B230BD5000401B1B189BB2F4E7C0467E
:1040000070B5040000690D00002803D00121494269
:1040100000F04EFA26896289A088B1B293B2964226
:1040200033D3CA1A92B2002A28D0904208D28142D1
:1040300030D30B1A9BB26381984203D81B1A9BB2F0
:104040009842FBD9E28821685204520C534328005D
:10405000C918FDF753FC618901254B1C9BB2A08850
:1040600099420ED9002340001B1A9BB2206963813C
:10407000002801D000F004FA280070BD00256389F3
:104080009BB240008342F1DBEEE74200D21A8A186D
:1040900092B2C8E709188BB26381CDE7F0B54F46FD
:1040A0004646D6460400006989469046C0B50028B9
:1040B00003D00121494200F0FBF921896389A788D7
:1040C0008AB29DB2994249D3561BB6B2002E4BD04C
:1040D000B74205D2BA4255D2D21995B23E00658197
:1040E0004346B0454CD89EB2AF4203D8ED1BADB2AB
:1040F000AF42FBD9E288781B5204530C1900984652
:10410000236869439C4680B26144864232D9434663
:10411000584383B21A0048469A46FDF7EFFB4346E0
:104120004846F71BED195D4321685044AAB2FDF7DC
:10413000E5FB6189A7888B199BB27A00994215D952
:104140009B1A9BB220696381002801D000F098F986
:1041500030001CBC90469946A246F0BD7E00761BFE
:104160009619B6B2002EB3D163899BB27A009342FE
:10417000E8DBE5E7424648467243FDF7BFFBD8E778
:10418000331CB0E7D51BADB2A8E7C046F8B50400B4
:10419000C0680E00002803D00121494200F088F9D0
:1041A000258920896189A288ADB283B28FB2884205
:1041B00028D3DB1B9BB29A4209D8E779FF0906D1C5
:1041C000E068002801D000F05BF93800F8BD2B0052
:1041D000954203D39B1A9BB29342FBD2E28821689B
:1041E0005204520C5343C8183100FDF787FBA288D4
:1041F0006B1C9BB252009D4209D99B1A9BB20127AE
:104200002381DDE75100C91B5B189BB2D3E79342C2
:10421000F5DBF2E7F0B54546DE4657464E46E0B5DB
:1042200004008846150083B0002A6AD0C0680028C0
:1042300003D00121494200F03BF92789E2796389E3
:10424000A688BFB29BB2D20943D19F4263D272000B
:10425000D31AFB189BB2002291469E4233D9F31A1F
:104260001A1C9BB2AB4200D92A1C93B299464B460A
:10427000002B28D0DB199BB29B463D00BE4203D8E1
:10428000AD1BADB2B542FBD2E288711B5204530C98
:1042900018009A46236868439C4689B260444945A1
:1042A00045D352464B4641465A43FDF727FBA38868
:1042B0005B00BB4501D39B4503DB5A46D31A9BB237
:1042C0009B465B462381E06800281CD000F0D8F8AC
:1042D00019E0B54222D29F423ED3FA1A92B271003F
:1042E00052198A4208DB9A1992B2571BBFB2934601
:1042F000BB4236D97F1ABFB2EB199BB29B46A94687
:10430000BBE700239946484603B03CBC904699461B
:10431000A246AB46F0BDFB1A9BB29CE7AA1BE58800
:104320001F006D046D0C5543B146A8449FE75346EA
:1043300059438BB21A0041460193FDF7DFFA494613
:104340008A1B5146AA184A43019B2068434419001E
:1043500092B2FDF7D3FAAAE77100CA1ABA1892B25C
:10436000BEE7A946B94200DD87E7C3E710B5040000
:10437000C068002803D00121494200F099F8206963
:10438000002803D00121494200F092F80023E068A0
:1043900063812381002801D000F072F82069002891
:1043A00001D000F06DF8012010BDC04670B50400CA
:1043B000C0680D00002803D00121494200F078F8C0
:1043C0002069002803D00121494200F071F87F21C3
:1043D000E379ED011940E0682943E171002801D03B
:1043E00000F04EF82069002801D000F049F80120C3
:1043F00070BDC04610B5830727D00378002B26D0A8
:104400000300032102E01A78002A1CD001330B427A
:10441000F9D119680F4A104C8A188A4322420FD1E9
:10442000043319680B4A8A188A43224208D104339C
:104430001968084A8A188A432242F1D000E0013301
:104440001A78002AFBD1181A10BD0300E1E70020FA
:10445000FAE7C046FFFEFEFE80808080F8B5C046C9
:1044600001B40248844601BC604700BFAD03002090
:1044700001B40248844601BC604700BFE902002045
:1044800001B40248844601BC604700BF49020020D5
:1044900001B40248844601BC604700BFF50F00200C
:1044A00001B40248844601BC604700BFC10000203F
:1044B00001B40248844601BC604700BFB901002036
:1044C00001B40248844601BC604700BF09010020D6
:1044D00001B40248844601BC604700BFC50C0020FF
:1044E00001B40248844601BC604700BF590D00205A
:1044F00001B40248844601BC604700BFFD0C0020A7
:1045000001B40248844601BC604700BF9D0C0020F6
:1045100001B40248844601BC604700BF090D002079
:10452000511500107D150010C9160010E11800107B
:104530002517001051180010F115001099150010E2
:10454000B9150010CD15001051080010D515001038
:10455000310C001019150010B1040010FD020010FC
:04456000D521001051
:1045640048656C6C6F2C20776F726C6421000000BE
:104574000A2A2A2A2050414E4943202A2A2A0A007C
:104584000A0000004E6F207370696E6C6F636B736A
:104594002061726520617661696C61626C650000FE
:1045A4004E6F207573657220495251732061726594
:1045B40020617661696C61626C65000048617264B7
:1045C4007761726520616C61726D20256420616C75
:1045D400726561647920636C61696D6564000000D3
:1045E40048617264206173736572740052656C650E
:1045F40061736500626F6F74325F77323571303882
:1046040030000000322E312E300000007069636FDC
:104614000000000068656C6C6F5F776F726C6400FB
:104624004665622032342032303235000500525063
:10463400DE65F468245A0010060052505422A29DEC
:104644002446001006005250861C0302184600102F
:1046540006005250BBFF3CB61046001006005250F4
:10466400ABB360530846001006005250E182887FC5
:10467400F845001006005250D3F07542F045001082
:104684000D0A000000000000311C001000000000B2
:10469400351C0010411C00106D1C0010691C00101A
:1046A40000000000050F2100011C100500DF60DD83
:1046B400D88945C74C9CD2659D9E648A9F0000039F
:1046C40006A60001000000000A0000000000030626
:1046D400A6000800020002009C00140003005749D1
:1046E4004E5553420000000000000000000080000E
:1046F400040001002800440065007600690063009E
:10470400650049006E007400650072006600610077
:1047140063006500470055004900440000004E0056
:104724007B00620063003700330039003800630007
:1047340031002D0037003300630064002D00340085
:104744006300620037002D00390038006200380031
:104754002D00390031003300610038006600630029
:10476400610037006200660036007D000000000032
:1047740055534220737464696E202F207374646FE0
:10478400757400000600525053B4F4A1744700102D
:104794005261737062657272792050690000000082
:1047A4005069636F00000000426F617264204344EB
:1047B4004300000052657365740000000902540050
:1047C400030100807D080B000202020000090400BE
:1047D4000001020200040524002001052401000157
:1047E40004240206052406000107058103080010BD
:1047F40009040100020A000000070502024000004B
:10480400070582024000000904020000FF000105C0
:1048140012011002EF0201408A2E0A000001010277
:10482400030100000000000094470010A44700109A
:10483400E01E0020AC470010B8470010556E6861B8
:104844006E646C65642049525120307825780A00E2
:10485400657020253032582077617320616C726551
:1048640061647920617661696C61626C6500000045
:1048740043616E277420636F6E74696E756520786A
:10488400666572206F6E20696E6163746976652057
:10489400657020253032580042280010A4290010E9
:1048A400E62900107C2900108E2900106C290010C4
:1048B400E228001092280010862800102C2D0010E9
:1048C400162D00105A2900104E2D00105A290010E0
:1048D400FA2C0010E62C00105A290010D02C0010DD
:1048E400E62B00105A290010C22F0010B42F00101C
:1048F400A82F00105A2900105A290010922F0010D6
:10490400B42F00105A2900105A2900105A290010F7
:104914005A2900105A2900105A2900105A29001047
:10492400442F0010300E0020300E0020860E002090
:10493400A60E0020200E0020B60F00207A0E0020C4
:1049440000000000953500101536001039360010AF
:10495400853600103937001021380010000000009F
:104964000000000075390010D1390010ED39001035
:104974000D3A0010D51C0010453B0010000000004B
:10498400304600103C4600104846001054460010C3
:10499400604600106C4600107846001088470010EE
:1049A400030010B50068EFF3108472B60268002AA1
:1049B400FCD0BFF35F8F04229A56002A0BDB002938
:1049C4000FD000200A601B68BFF35F8F00221A60BB
:1049D40084F3108810BDD0221206126801201A71C7
:1049E400F1E70020EFE7C046F0B5C6461E0000B56B
:1049F400040015000368EFF3108272B619680029E9
:104A0400FCD0BFF35F8F0423E356002B36DB216811
:104A1400BFF35F8F0020086082F31088D022002744
:104A24001206D7579F4203D1002004BC9046F0BD24
:104A3400002398460CE02268BFF35F8F4146116063
:104A440083F310882800310000F066FF0028EBD1C2
:104A54002268EFF3108372B611680029FCD0BFF30B
:104A64005F8F22797F2AE6D922682771BFF35F8F8F
:104A74000021116083F310880120D6E7D0231B06A0
:104A84001B6823712368BFF35F8F0021196082F3D1
:104A940010880120C9E7C046F0B5C64600B50D0030
:104AA400040000F049FFFA2206000F00002328004A
:104AB4000021920000F020FF36184F41002F2CDB1C
:104AC400D0231B061B68002598460BE02268BFF321
:104AD4005F8F156083F310883000390000F01CFFED
:104AE400002818D12268EFF3108372B611680029E8
:104AF400FCD0BFF35F8F22797F2AE7D94246227127
:104B04002268BFF35F8F0021116083F310880120B6
:104B140004BC9046F0BD0020FAE70126014F76421E
:104B2400CEE7C046FFFFFF7F0268EFF3108172B645
:104B34001368002BFCD0BFF35F8FFF23037103685E
:104B4400BFF35F8F00221A6081F3108840BF704763
:104B540010B5084C2378002B0AD180230648074956
:104B64005B051A68C25004338B42FAD101232370C7
:104B740010BDC046F41E00203819001000010010BA
:104B840010B5024B0133984710BDC04638190020B8
:104B9400054B1A6880239B005340C02292001340A7
:104BA400024A13607047C0460C8001400C900140DB
:104BB400034B1A68C0239B009343024A1360704757
:104BC4000C8001400C9001401423F0B5D6464F46AA
:104BD40046469A46814618880433C0B598460E0066
:104BE4001B882749140098475346070018884346F2
:104BF40024491B8898475346050018884346224990
:104C04001B8898478046FFF7A3FFB847A847FFF7DC
:104C1400BFFF002C1BD0C021220008270220490519
:104C24003D008B6A1D4018420BD0002C09D0131B89
:104C34000D2B1FD84B461B78013C0B6601239C4669
:104C4400E1442300002D0CD11343002BE8D1FFF7DE
:104C5400AFFFC047FFF794FF1CBC90469946A2469D
:104C6400F0BD002AF1D00B6E013A33701300013607
:104C74002343EAE7002DD3D0002AD1D0F3E7C0467E
:104C840049460000455800004643000000231C4AE2
:104C940010B59360D3601B4A00219360D3601A4A15
:104CA4001A489360D3601A4A9360D360194A936098
:104CB400D360194A9360D360184A9360D360184A4A
:104CC4009360D360174A9360D360174A9360D360AC
:104CD400164A9360D360164A9360D360154A936072
:104CE400D360154A9360D360144A9360D360F02272
:104CF400920000F0F9FD124B124A1A6010BDC04632
:104D0400000010500800105010001050E41A002049
:104D1400180010502000105028001050300010507F
:104D240038001050400010504800105050001050EF
:104D3400580010506000105068001050700010505F
:104D4400AC1E002080011050F0B55746DE464E469A
:104D54004546E0B5264B87B09F6D002F24D0254BE8
:104D64000024994601239B46234B01269A4604E0DE
:104D740001347600E4B2202C16D03E42F8D04B46E3
:104D84005A469E6563085B00A2439B185B0153442B
:104D94001800984600F086FC00280CD10134B74373
:104DA400E4B27600002FE6D107B03CBC90469946A9
:104DB400A246AB46F0BD42464346D28A03AD9B7839
:104DC4000192002108222800009300F08DFD0723A2
:104DD4006B70009B019A2B71002328000121AA60AB
:104DE4006B7100F07FFC404600F0F8FBD6E7C0464C
:104DF4000000115000301150A41A00209823C84A12
:104E0400F0B5D55880232E009B02102485B01E4097
:104E14001D4279D0C34BC44C9A6AC44B00261A6015
:104E24003B23E35C022B00D132E17B23E35C022BC6
:104E340000D13EE1BB23E35C022B00D14BE1FB2319
:104E4400E35C022B00D158E13C23FF33E35C022BEB
:104E540000D18BE17C23FF33E35C022B00D19AE188
:104E6400BC23FF33E35C022B00D1A9E1FC23FF3315
:104E7400E35C022B00D1B8E1AD4BE35C022B00D123
:104E8400C8E1AC4BE35C022B00D1D7E1AA4BE35C55
:104E9400022B00D1E6E1A94BE35C022B00D1F5E142
:104EA400A74BE35C022B00D104E2A64BE35C022B8C
:104EB40000D113E2A44BE35C022B00D1D2E0A34B5C
:104EC400E35C022B00D12DE2002E08D1A04B1B780D
:104ED400002B04D180219F4A90338902D15001AE26
:104EE4008F4B0C22002130009C6C00F0FDFCC02391
:104EF40064059B00640D74603000338001218026BA
:104F040000F0F0FB944CB602EB0600D5A6E080233B
:104F14005B021D4235D0844C1E43A37E002B15D06A
:104F240000F012FD012800D9ECE1C022002120008C
:104F3400920100F059FB200000F050FB00F004FD4A
:104F4400012803D90222834B5A661A6601273A23A1
:104F5400E770E35C002B25D123230122E2546A4647
:104F64000023D380C023DB0093807C4A02AB03CAB6
:104F740003C3012101A800F0B5FB8022754B920206
:104F84001A6580235B011D4224D18023DB011D426D
:104F94003CD180231B021D424DD1AE4200D0DFE143
:104FA40005B0F0BD00F0D0FC012800D9B2E1C02268
:104FB4006B4F00213800920100F016FB380000F01E
:104FC4000DFB00F0C1FC0128C6D90122614B5A66D1
:104FD4001A66C1E700241E43514B1C60FFF756FEBE
:104FE4000C22002101A800F07FFC80236A465B00AC
:104FF4009380012101A8147200F074FB8022554BA8
:1050040012031A658023DB011D42C2D001AC0C22BD
:10501400002120001E4300F067FC8023DB00238076
:105024000121200000F05EFB10224A4B1A65802308
:105034001B021D42B1D001AC0C22002120001E43F2
:1050440000F052FCA023DB0023800121200000F0AB
:1050540049FB80223F4B12011A659EE7FFF774FE5D
:10506400260054E73F4BE35C002B00D127E7EF23F6
:105074009B00E25C002A00D066E1344BE35C022B27
:1050840000D02CE7384BE35C002B00D04FE126E73F
:105094003833E65C002E00D1C7E60233E25C002A16
:1050A40000D1C2E600222000E254203000F0C4FA0D
:1050B400BBE67833E35C002B00D1BBE67C22A15C29
:1050C4001E00002900D1B5E600232000A35460305F
:1050D40000F0B2FAAEE6B833E35C002B00D1AEE6E2
:1050E400BC22A15C1E00002900D1A8E600232000F8
:1050F400A354A03000F0A0FAA1E6F833E35C002B3F
:1051040000D1A1E6FC22A15C1E00002900D19BE68F
:1051140000232000A354E03000F08EFA94E6C04649
:105124000000115000400540A41A00209C1A0020E1
:105134003B0200007B020000BB020000FB020000F7
:105144003B0300007B030000BB030000FB030000E3
:10515400F21E002000301150100002000000105018
:10516400C41A0020BA030000FA0300003933FF33E5
:10517400E35C002B00D16DE69E225200A15C1E0070
:10518400002900D166E6200000232130A354FF301B
:1051940000F052FA5EE67933FF33E35C002B00D172
:1051A4005EE6BE225200A15C1E00002900D157E633
:1051B400200000236130A354FF3000F03DFA4FE695
:1051C400B933FF33E35C002B00D14FE6DE225200FB
:1051D400A15C1E00002900D148E620000023A13074
:1051E400A354FF3000F028FA40E6F933FF33E35CC0
:1051F400002B00D140E6FE225200A15C1E000029D3
:1052040000D139E620000023E130A354FF3000F040
:1052140013FA31E6554BE35C002B00D131E68F22C3
:105224009200A15C1E00002900D12AE60023A354A9
:1052340088239B00E01800F0FFF922E64C4BE35C66
:10524400002B00D122E69F229200A15C1E000029BF
:1052540000D11BE60023A35498239B00E01800F020
:10526400EBF913E6434BE35C002B00D113E6AF22CA
:105274009200A15C1E00002900D10CE60023A35477
:10528400A8239B00E01800F0D7F904E63A4BE35C4E
:10529400002B00D104E6BF229200A15C1E0000296D
:1052A40000D1FDE50023A354B8239B00E01800F0CF
:1052B400C3F9F5E5314BE35C002B00D1F5E5CF22D2
:1052C4009200A15C1E00002900D1EEE50023A35446
:1052D400C8239B00E01800F0AFF9E6E5284BE35C37
:1052E400002B00D1E6E5DF229200A15C1E0000291C
:1052F40000D1DFE50023A354D8239B00E01800F07D
:105304009BF9D7E502221F4B1F491A664B6E1A42BE
:10531400FCD00AE601221B4B1B491F664B6E1A4246
:10532400FCD044E6194BE35C002B00D1CCE5FF2311
:105334009B00E25C002A00D1D1E50022E2541C3B30
:10534400E01800F079F9CAE50022E2541C3BE018A9
:1053540000F072F90E4BE35C022B00D0BFE591E63E
:1053640031000C48694000F0DFFAC0463A02000000
:105374007A020000BA020000FA0200003A030000B8
:105384007A0300000020115000001150FA030000BD
:10539400FB03000040480010F0B5D6464F46464691
:1053A4000300C0B51C8B808A8A46221C844200D923
:1053B400021C802692B2801ADD7884B2F6009C82A8
:1053C4001643002D02D09026B601164301277D40D6
:1053D400DD705D783000002D47D15146D8688901D1
:1053E40089468446511E88461F69CC44002A37D01A
:1053F4004C4629000434001987426941080061467B
:105404003C1DA1426D410543082040458041404276
:10541400284238D060463843810734D1151FAD087F
:10542400691C89460020002461463D5801340D5012
:105434000430A145F8D849468D0061464C194146CF
:105444007F19481BAA4209D03D782570002805D051
:105454007D786570012801D0B878A0701F699C8A96
:105464008020BA1800021A613043002C02D1802334
:10547400DB0118435346002B00D000041CBC9046AB
:105484009946A246F0BD002061463C5C0C540130B4
:105494008242F9D1E2E7C04682680300F0B51068A1
:1054A400002900D0000C5A788005800D002A08D10C
:1054B400DA8A8218DA821A8B824201D900229A820D
:1054C400F0BDDA688901451EAC461C6956180028EF
:1054D40032D004315118002215008C425541290064
:1054E400251DAE42524125000A430321354329407C
:1054F4004D426941114225D06246082A22D9002230
:105504000021051FAD080135B7580131A7500432F9
:105514008D42F9D86246AD0076196419571BA8422A
:1055240009D032782270002F05D072786270012F72
:1055340001D0B278A2701C69DA8A24188218DA823F
:105544001C61B8E70022B15CA15401329042FAD147
:105554001C69F1E710B50400836800211B68FFF79C
:105564009BFF63681B685B0002D5238B834200D0DA
:1055740010BD01212000FFF78FFFF9E7084A03005F
:10558400126C0020920703D41B78DB09012B00D096
:1055940070470878023843425841C0B2F8E7C04621
:1055A40000001150010010B51B310230FFF7E6FF77
:1055B40000280CD00649074B8C46074A9B6A1268A0
:1055C40063449B1A0020C6229A424041C0B210BDD7
:1055D400E0FCFFFF004005409C1A00200023837676
:1055E400436103617047C04610B58368002901D048
:1055F4001C682140002A12D08024E4001143224276
:105604000DD01A6822420CD1084A0A401A60084A8E
:10561400126C920703D40C23033BFDD283681960F8
:1056240010BD8178034800F07FF9C046FFFBFFFFFF
:105634000000115054480010436870B500218025C3
:105644001E680400FFF7A8FE134B6D011B6C054395
:105654009B070FD5A3785B060FD0104B1E40802309
:105664009B05334362680021136020002A00FFF782
:10567400BBFF70BDA378DB09EFD0A38A002BECD06D
:1056840001212000FFF788FEA023054ADB053240F4
:1056940005431343E6E7C04600001150FFFFFFAF88
:1056A400FFFFFFDF70B5857E0400002D13D0FFF7E8
:1056B40051FFA38A002B01D1280070BD2000FFF701
:1056C40071FF051E03D0012300252377F4E7200092
:1056D400FFF7B2FFF0E78178014800F025F9C046F2
:1056E40074480010F0B5CE46474680B543780500AF
:1056F4000E0085B0062B0BD86F4A9B00D3589F46EB
:105704006E4B1A78D2071DD504211A780A431A70F1
:105714006B4B1C686269EFF3108172B61368002B3F
:10572400FCD0BFF35F8FA1612000290000F0D4F802
:105734006269A369BFF35F8F0021116083F310884E
:10574400002804D105B00CBC90469946F0BD320047
:105754006978287800F0D8F8F4E75A4A13780133C6
:10576400DBB21370D4E70121544B1A788A431A70C0
:105774001A7801318A431A7000225A701A78023159
:105784008A431A70C4E75049504F8946504900244F
:10579400002388463A780CE04146096863018C4648
:1057A4006344002B0AD10134E4B2511C2300A1420A
:1057B40011DB9442F0D39B1A5B014B44DB69002B51
:1057C400F1D06968287898473A780134E4B2511CDA
:1057D4002300A142EDDA394F3B785B072AD5042236
:1057E4003B7801AC93430021200008323B7000F069
:1057F4007BF82B78237005236370314B1B68984624
:105804005A69EFF3108172B61368002BFCD0BFF312
:105814005F8F434640469961210000F05DF843469E
:105824005A699B69BFF35F8F0021116083F310886D
:1058340000283AD1FB78DB0700D483E701AC0C22C3
:105844000021200000F050F82B78237003236370AC
:105854006B6863601A4B1D686A69EFF3108172B656
:105864001368002BFCD0BFF35F8FA96128002100CF
:1058740000F032F86A69AB69BFF35F8F00211160F1
:1058840083F31088002800D15CE732006178207827
:1058940000F03AF856E7094B1A78D20700D451E7DA
:1058A40004211A788A431A7032E73200617820782A
:1058B40000F02AF8BEE7C046284900101016002060
:1058C40068160020F31E002044490010F11E002039
:1058D400E41200207047C04601B40248844601BC6B
:1058E400604700BF8D41001001B40248844601BCEA
:1058F400604700BFF118001001B40248844601BC9F
:10590400604700BF1D18001001B40248844601BC62
:10591400604700BFFD26001001B40248844601BC64
:10592400604700BF0910001001B40248844601BC5E
:10593400604700BF4903001001B40248844601BC1B
:10594400604700BF0D11001001B40248844601BC39
:10595400604700BF3D03001010000000000000007D
:105964000000010000000000000000000000020030
:105974000000000000000000000003000000000020
:10598400000000000000FF000000000001B54868AE
:1059940001318E460047704609380149884701BDE8
:1059A4006507001000000000000000000000000077
:1059B4000000000000000000401100200000000072
:1059C400503300004C3300005433000052330000C5
:1059D4004D5300004D430000533400004334000095
:1059E400A91E0010591E0010C91D0010411D0010F1
:1059F4000000000000010000FC20002010000C004A
:105A04000000000000000000000000000000000092
:105A140000000000FF000000000000000000000083
:04000005100001E9FD
:00000001FF
