:020000041000EA
:1000000000B5324B212058609868022188439860DF
:10001000D860186158612E4B002199600221596106
:100020000121F02299502B49196001219960352056
:1000300000F044F80222904214D00621196600F024
:1000400034F8196E01211966002018661A6600F04E
:100050002CF8196E196E196E052000F02FF8012189
:100060000842F9D1002199601B49196000215960AB
:100070001A491B48016001219960EB211966A021F2
:10008000196600F012F800219960164914480160C1
:100090000121996001BC002800D000471248134993
:1000A000086003C880F30888084703B5996A0420EC
:1000B0000142FBD001200142F8D103BD02B5186610
:1000C0001866FFF7F2FF186E186E02BD00000240BE
:1000D000000000180000070000035F00212200005C
:1000E000F4000018222000A00001001008ED00E03C
:1000F00000000000000000000000000074B24E7A12
:1001000000200420F7010010C3010010C5010010F9
:10011000C1010010C1010010C1010010C101001097
:10012000C1010010C1010010C1010010C701001081
:10013000C1010010C1010010C9010010CB01001065
:10014000CD010010CD010010CD010010CD01001037
:10015000CD010010CD010010CD010010CD01001027
:10016000CD010010CD010010CD010010CD01001017
:10017000CD010010CD010010CD010010CD01001007
:10018000CD010010CD010010CD010010CD010010F7
:10019000CD010010CD010010CD010010CD010010E7
:1001A000CD010010CD010010CD010010CD010010D7
:1001B000CD010010CD010010CD010010CD010010C7
:1001C00000BE00BE00BE00BE00BE00BEEFF3058054
:1001D000103800BEF2EB88719C1E0010C41E001087
:1001E0003802001090A31AE71E481F49086006C88D
:1001F00081F3088810471D480068002801D019487D
:10020000F3E70DA40ECC002902D000F012F8F9E7B4
:100210001749184A002000E001C19142FCD116495B
:100220008847164988471649884700BEFDE701C937
:1002300001C29A42FBD37047C41E0010C0000020C8
:100240006002002064200010000004200000042050
:1002500064200010001004200010042000000000A2
:10026000704700000000000008ED00E0000000D032
:100270006002002060060020C91700102103001052
:10028000C1170010F8B5C0460448054B10B58342AD
:1002900003D0044B002B00D0984710BD6002002013
:1002A000600200200000000006480749091A8B1070
:1002B000C90FC91810B5491003D0044B002B00D04A
:1002C000984710BD6002002060020020000000007E
:1002D00010B5074C2378002B09D1FFF7D5FF054B4C
:1002E000002B02D0044800E000BF0123237010BDA2
:1002F000E003002000000000681D0010054B10B551
:10030000002B03D00449054800E000BFFFF7CCFFF5
:1003100010BDC04600000000E4030020681D00106E
:1003200010B501F051FB044C200001F09FFBFA20B6
:10033000800000F037FDF7E7681D001010B540247D
:10034000084A83009A181268C0005440C022224014
:10035000054CA44663441A60044B9C4660444160CB
:1003600010BDC04604C0014004D00140004001401F
:100370000FB400B5084883B001F078FB049B002B54
:1003800007D005A91800019101F000FA034801F017
:100390006DFB012001F012FA781D0010881D00107D
:1003A000F8B5EFF3108772B60E4E3368002BFCD011
:1003B000BFF35F8FCB08C4180725A446C45C012394
:1003C0000D40AB4018002040234208D16246234331
:1003D0001370BFF35F8F306087F31088F8BD100093
:1003E000FFF7C6FF2C0100D0044A1078431CDBB293
:1003F000172B00D9102313707047C046B00100209E
:100400000021044B044ABFF35F8F02C39342FAD129
:100410007047C046000100D0800100D0054B064A5D
:100420001360064A136053609360D3601361536195
:10043000936170478080808000E400E004E400E085
:100440001F2318401E3B8340002905D0C021044AC9
:100450004900535013607047802201498B50FAE7DE
:1004600000E100E070B50D00EFF3108672B60F4AA0
:100470001368002BFCD0BFF35F8F0D4B10309B68CF
:1004800084001B590B4A934203D09D4201D000F0D7
:1004900085FF074B9B681D51BFF35F8FBFF35F8FD5
:1004A0000022024B1A6086F3108870BD240100D030
:1004B00000ED00E0CD010010F0B5DE4657464E4697
:1004C0004546E0B50C0083B0EFF3108972B65F4A81
:1004D0001368002BFCD0BFF35F8F5D4B9A6803005D
:1004E00010339F00D5595B4A904695423DD0A542B6
:1004F0004ED0594EAA1B2F2A37D8584A9346126815
:100500009446012261469246824011401F221040CB
:10051000524682409246019180225146584681506F
:10052000BFF35F8FEFF305829346002A32D1012398
:100530002A009A439068844208D17DE04B005B1802
:100540009B00F318986884422ED01A000621515659
:100550000029F3DA84424ED0019B002B1FD0C02229
:1005600051463E4B520099501960394B9B68DD5102
:10057000BFF35F8FBFF35F8F0022344B1A6089F3A4
:10058000108803B03CBC90469946A246AB46F0BDED
:100590001500EAE79342CAD000F000FFC7E78023C6
:1005A00051462E4AD150E0E706215956002923DB57
:1005B0004A005018800034188046A0689860E0799E
:1005C000D871062020569871A0797F2825D8A48854
:1005D000F01A6405241544440019E0240005400D78
:1005E00024022043988052181D4B9200B6181A78A6
:1005F0001970B271B0E71300594600290FD1FF31CD
:1006000091711849918016490A789A71164A9B1B74
:100610005B415A43120D0A709EE71448E2E7144A00
:100620001449D21A083A5002400D014399801249E8
:1006300052080A43DA808FE7062151561300002939
:10064000B6DA5A46002AEAD14546DCE7240100D052
:1006500000ED00E0CD010010B401002000E100E059
:100660005804002001BDFFFFAAAA000001BD000040
:10067000EE01002000F0FFFF00F8FFFFF0B50124BD
:100680000443EFF30581EFF3108672B6214A136835
:10069000002BFCD0BFF35F8F1F4B05001F4AED1AE4
:1006A0006D416A43120D1E4D8900AF6852B27F58EA
:1006B000A7421CD00621595691421CD012215956EE
:1006C000914222D01E215956914220D02A215956BA
:1006D0000324914210D0134B19781A708171BFF323
:1006E0005F8F00220B4B1A6086F31088F0BDAB6859
:1006F0000D4C5C50EFE700246100091989005B187C
:10070000FF21997109499980E5E70124F4E7022462
:10071000F2E7C046240100D0B4010020AAAA0000DC
:1007200000ED00E058040020CD01001001BDFFFFE6
:10073000024B9C46614489000160704740000034D0
:10074000F8B5134D134E2C00FF27B5421ED2236877
:10075000002B0FD0FFF748FE01002800FFF7E8FF4D
:10076000A780BFF35F8F0834B4420FD223682500FF
:10077000002BEFD1FFF738FE01002800FFF7D8FF6C
:100780002771BFF35F8F0834B442EFD3F8BDC04682
:1007900058020020600200200A4B1968EFF3108015
:1007A00072B60A68002AFCD0BFF35F8F1B68BFF3E4
:1007B0005F8F00221A6080F3108840BF0020002164
:1007C0007047C04650040020F0B5DE4657464E46FE
:1007D0004546E0B585B0EFF30582032313409A0048
:1007E00011000392B74A5258904601229A40B64BE4
:1007F00091461A6033E043469B881BB2002B00DB16
:100800009FE043469B79002B00D0F1E0434608244B
:100810001C5F002C00DA19E14246526963009446DD
:100820001B19DB0063449C68DD68631C00D115E183
:10083000A648A64B84469A6A039BA01A63441900F3
:100840001B699B1A984200D20C61A04800F03EFB45
:10085000241A8D41002D00DDF8E000D12EE14B4639
:100860009A484363434608229B5E9A46002BC2DBAC
:10087000424652695B0093465344DB009B445B460F
:100880009E68DF6800F022FB801BB9410029B2DBC3
:10089000002F00DAEDE05B468D4A1B69934200D1E0
:1008A000E0E041465A460820085E528800041043A2
:1008B0005A465169984704000D0023002B4300D18C
:1008C000D7E0002D00DBF0E0361BAF4134003D00E7
:1008D0005B469C60DD600021595E00298BDB43464E
:1008E0005B6922009C462B0048004018C000604411
:1008F0008668C768921BBB41002B00DA7BE7434642
:10090000664602000094019519810CE07B00DB191A
:10091000DB00F318009801999C68DD68001BA94171
:10092000002904DB1A000023D75E002FEEDA5B46B5
:100930001F805346138043469B881BB2002B00DA6E
:100940005FE743461A69EFF3108172B61368002B14
:10095000FCD0BFF35F8F43469B8842461BB29A464A
:1009600001235B4293801369BFF35F8F00221A60FB
:1009700081F310885346002B00DA42E743465B6957
:100980009C46082343449B4653465F0043465744D6
:10099000FF0008229A5E67445E46BC68FD68002A34
:1009A00019DB3B000094019567469C4604E01E005D
:1009B0000023F25E002A0BDB0098019953009B187C
:1009C000DB00FB189C68DD68001BA9410029EEDAFA
:1009D0006346BC461F005346338000217B5E3A804D
:1009E0009A46002BD0DA43469B79002B00D10DE7C5
:1009F000002342469371434646460821595E083615
:100A00004B1C23D047468C46556902E006004B1C20
:100A100017D04B005B18DB00E8180A00E95E43883A
:100A20001BB2002BF2DA01235B42DC178360C46047
:100A30009445ECD031803B89944603803A814B1C2D
:100A4000E7D16446B846002C00DBE5E640BF05B0C0
:100A50003CBC90469946A246AB46F0BD6B1C00D00C
:100A6000E6E6F2E65B465C692000236998470028C9
:100A700021D15B4642461B8813811269EFF3108334
:100A800072B611680029FCD0BFF35F8F4246594609
:100A900052880A804246514651801269BFF35F8FE7
:100AA0000021116083F31088A5E6084800F00EFAD3
:100AB00024184D410CE765682468FEE6002C00D13F
:100AC000CDE6C3E73C0400203C70054000400540F3
:100AD000C907001070B52E4C2569002D04D00A21DD
:100AE0002C48FFF725FE70BD2B4E0321300000F08F
:100AF000E3F9E660FFF778FC284B03229C46D023FD
:100B000022701B061B6801216370254B6044A360A3
:100B10000F23800020610220638063694942A18025
:100B200019800231198647311D83585218315A52A3
:100B300075325C39995218320131995218320131AB
:100B40009952183201319952083518329D520231AA
:100B50001832995218320131995218320131995292
:100B6000183201319952183201319952183201313B
:100B700099520C4B0C49DC6001303562FFF772FC76
:100B800001210320FFF75CFC084B1D60A7E7C0466E
:100B9000FC010020500400200040054040000034CB
:100BA000FFFF10003C040020C9070010386005401A
:100BB000F0B501000469EFF3108772B620680028D1
:100BC000FCD0BFF35F8F02200D5E48696C00844645
:100BD0006419E4006444002D01DB20884880086922
:100BE000BFF35F8F0026066087F31088002D2EDB91
:100BF000E36063880598013320615B0406985B0C11
:100C0000A26060611A1C002B1FD090B22B0462807E
:100C100018430A69EFF3108672B61368002BFCD0F4
:100C2000BFF35F8F8B8823808D800B69BFF35F8F4D
:100C300000221A6086F310880B7801329A40CB6844
:100C400004498C4663441A60F0BD0122DDE70120AF
:100C50004042F9E73C20000030B543890A14934232
:100C600033DD53009B184269DB00944604696344FA
:100C7000EFF3108572B62268002AFCD0BFF35F8FB5
:100C80005A88090494B2090C8A4208D00369BFF358
:100C90005F8F00221A6085F31088002030BD80220B
:100CA000120214435C80012302698371BFF35F8FDA
:100CB0000021116085F31088054902788C46934025
:100CC000C268012062441360E8E70020E6E7C046FE
:100CD0003C200000F0B504000D0006267642F71710
:100CE000C64636196F4100B582B08F4214D811D074
:100CF00000F0F4F832003B00121A8B41002B15DC97
:100D0000002B44D02000290000F01CF902B004BCE4
:100D10009046F0BD8642EBD90026002700F0DEF8B1
:100D200032003B00121A8B41002BE9DD00F0D6F8AF
:100D300032003B00121A8B41002B0ADB0023019387
:100D4000144B3200009314483B00FFF731FF00289A
:100D5000D8DBB0460026BC46104A114F7B6A9C4542
:100D600004D8B96A8845CDD99C45CBD11168EFF339
:100D7000108072B60B68002BFCD0BFF35F8F136836
:100D8000BFF35F8F1E6080F3108820BFE6E7002A64
:100D9000B8D0CBE799070010FC01002050040020D8
:100DA0000040054070B5060000F098F8FA220400F3
:100DB0000D00002330000021920000F06FFC0019AC
:100DC0006941002902DBFFF785FF70BD0120014961
:100DD0004042F8E7FFFFFF7FF0B5CE46474680B5BB
:100DE00004000D0083B0EFF30587002F3BD12F4E99
:100DF00081463378F26804339B00916A9B58421A0B
:100E00005B1A9A420ED320BF294A0020536AAB4294
:100E100003D3926A013091453CD803B00CBC904694
:100E20009946F0BD00F05AF822002B00121A8B41AF
:100E3000002B26DB1F4B2200009330002B00019774
:100E4000FFF7B6FE011E1CDD194BA8465A6A9542F3
:100E500025D920BF3000FFF7FFFE154A0020536A56
:100E60009845DAD8D5E7124A0020536A8B42D4D38A
:100E7000926A0130A242D0D25B1A581E8341D8B286
:100E8000CBE70B4A0020536AAB42C6D3926A0120DB
:100E90009145C2D9EB1A581E8341D8B2BDE79B6A6F
:100EA0009C42D7D99542D5D1D3E7C046FC0100205A
:100EB000004005409907001010B5024A0248FFF7AC
:100EC0006FFA10BD8C1D0010040400200300416A5D
:100ED0000A00986A596A8A42FAD17047034B596AE4
:100EE0000A00986A596A9142FAD170470040054059
:100EF00070B504000D00124A536A1900966A536ACD
:100F00008B42FAD13000190024184D41AB4211D860
:100F10000ED02B000A494A6A9A42FCD307D1084AEC
:100F200002E0516A994202D1916AA142F9D370BD9F
:100F3000A642EED9012301246442E5175B42E9E7AA
:100F400000400540064A536A9942FCD807D1044B39
:100F500002E05A6A914202D19A6A8242F9D37047FA
:100F600000400540F8B5040006200D0000F074F9BB
:100F7000002843D0364B3749E3185A425341802268
:100F8000D20394465B421340334A63441360334AAE
:100F9000136018000A689043FBD12D4B8021E318A1
:100FA0005A4253412E4A5B0049000620995200F0F4
:100FB00053F92900C00000F0CFFA0130C3091ED157
:100FC000402701226262A362266BF30722D4E36A00
:100FD000244B0620E51800232B60266300F03CF923
:100FE0003900800000F0B8FA7022E36A5A407E238C
:100FF00013402B601C4B23630323A364F8BD1B4ADF
:1010000093421ED900231A4A1A4F6262A362266BCA
:10101000F307DCD5184B144AE3181A60656AA36A13
:101020000620AD01ED1800F017F9144900F094FA0C
:10103000AD020100280000F08FFA0021FFF758FFF1
:10104000C5E74006800E9F011A003F180300B9E76C
:101050000080FCBF08C0004000E0004000F00040FD
:101060005C0400202C10000001030000FEFF0000C3
:10107000FFFF0000C0FF3F00303000004E0E0000B8
:10108000F8B54E464546DE465746E0B5884605006B
:101090000A991800160000F05FFA0A9B6C001F0204
:1010A000324B64199C46A4006444636881469F42A5
:1010B00000D967602B1FDBB29A46012B30D9C023C1
:1010C00080229B01E31812011A60294BAD00595987
:1010D0009B4600291BD1226876017240E0268023BE
:1010E000164052465B01E3181E60012A30D9802366
:1010F00080229B01E31812011A605B464A46676032
:101100005A513CBC90469946A246AB46F8BD586938
:1011100000F022FA431C5800C0180338FDD2DAE769
:101120004346012BCBD1C02303229B01E3181A6055
:10113000023AA3681A42FCD0226876015640E022A7
:10114000802316400A4A5B019346E3181E60AD00F7
:1011500042462168514003220A401A600123424658
:101160009340A2681342FCD0C1E7C0460080004013
:1011700008040020F0B546469846354B4F469C463D
:10118000D64644002418A40064446368C0B50F0028
:101190001600FF2B02D880235B006360031FDBB2C5
:1011A0009946012B31D9C02380229B01E3181201FB
:1011B0001A60284B850059599A4600291CD122688B
:1011C00076017240E026802316404A465B01E31810
:1011D0001E60012A30D9802380229B01E31812016E
:1011E0001A6080235B004246636053465A511CBC20
:1011F00090469946A246F0BD586900F0ADF9431CEF
:101200005800C0180338FDD2D9E7012FCBD1C02335
:1012100003229B01E3181A60023AA3681A42FCD029
:10122000226876015640E02280231640094A5B017D
:101230009246E3181E6085000322216879400A4027
:101240001A600123BB40A2681342FCD0C3E7C0462A
:101250000080004008040020014B8000C058704707
:1012600008040020F8B50400204817001D000E00F7
:1012700000F072F90100380000F06EF9069A2B04B4
:10128000120313432268002A1FDB194AA218514295
:101290004A41802149018C4652420A401549624424
:1012A0000A6015490A60154917000D68AF43FBD164
:1012B000134A2660A1182122A0600A602268002A31
:1012C000FCDAE36008230B60F8BD3F2221680A4086
:1012D000B242DAD1A2681205120D8242D5D1EE21B6
:1012E000E268C9020A409A42CFD1EDE7001BB7007D
:1012F0000040FDBF00E0004000F0004008C000409A
:10130000043000008023024A9B000B43D3627047E5
:1013100000800540142310B50100188804331B8891
:10132000984710BD162310B50100188802331B889A
:10133000984710BDF0B5C64600B5002916D0142355
:10134000040001259846182789004618434621685D
:1013500018883B88984701C4431E98414042054085
:10136000A642F3D1280004BC9046F0BD0125F9E760
:10137000AA23064A1B0113602F230549D360054B9E
:1013800019605368002BFCDA7047C04600400240E9
:1013900000B0FA00006002407047C04610B5014836
:1013A000FEF7E6FFB01D001070B5074B074C9C42DE
:1013B00009D2013B1D1BAD080135AD002D1908CC2C
:1013C0009847AC42FBD170BD641D0010281D001071
:1013D000054B064A06491A60064A074B1A60100078
:1013E0000B689843FBD1704700E00040BFCDFBFE87
:1013F00008C00040FE7F3C0000F00040044BDB6C66
:10140000002B03D18022034BD2021A607047C046E2
:10141000000011504C201150044A054B1A60054A37
:101420001368DB018033FBD17047C046FFFFFF012B
:1014300000F0004008C000404022034B9A675A6702
:101440001A67DA667047C04600F0014010B5FEF733
:10145000D7FF10BD70B5044D044C2800C022A16810
:1014600000F086F9A56070BD0000002000ED00E0EE
:10147000002310B5294C82B0A367FFF779FF012242
:10148000274B1A60636C012BFCD10322254B1A6099
:10149000224A936B012BFCD1013300930121224A94
:1014A00022480433FFF7DEFE052301210093204A82
:1014B0002048FFF7D7FE0022022104201E4BFFF731
:1014C00059FE0022012105201C4BFFF753FE00228C
:1014D000002107201A4BFFF74DFE002200210820B3
:1014E000174BFFF747FE8023DB000093002200210B
:1014F0000920134BFFF7C4FD0022104B00210620EA
:10150000FFF738FE0420FFF7A7FE0E4900F024F88D
:1015100001000020FFF7F6FE02B010BD0080004081
:101520003CB0004030B00040002F685900800240BD
:10153000008C864700C00240001BB700405973076B
:10154000006CDC0240420F0001480421014B1847A7
:101550002002002035130010114A936F9B0813D20C
:1015600010665166002905D0FFE7FFE7FFE7516FDE
:10157000106F704704B5002801D00020C04300F070
:10158000C3FB002104BDC046F0B5146E556E576F05
:10159000166FFFF7E5FF1466556657671667F0BDCF
:1015A000000000D0132370B51D78012D19D014DD73
:1015B0002948FFF7B7FE06002848FFF7B3FE284C7E
:1015C00080223100200000F0D3F8022D06D02548FB
:1015D000FFF7A0FE244B186070BD214C234AA26483
:1015E000F5E72E001E4C214AA3085B421E401D4217
:1015F0002FD0330022602020B1006118801B0A60C8
:101600004A608A60CA600A614A618A61CA610A6284
:101610004A628A62CA620A634A638A63CA630A6464
:101620004A648A64CA640A654A658A65CA650A6644
:101630004A668A66CA660A674A674008102803D164
:101640008A67CA67A264C2E71E339B00E250A264A5
:10165000BDE70023CFE7C0465344000053460000D7
:10166000600400204C3300004C0400207116001070
:1016700007B5604601880A0A0230DF2AFAD1C9B2EA
:10168000820804D3028840880004104300E0006808
:10169000014A5050039007BD60040020514343436A
:1016A000C9188C46110C83B24B4310B4040C61432F
:1016B00092B280B2504362431C041B0C001910BC50
:1016C00059411304120CC018514161447047000085
:1016D000132310B512481C78FFF724FE0100012CDB
:1016E0000AD003DD80220F4800F042F80E48FFF7D1
:1016F00011FE0E4B186010BD0A4C5422200000F061
:1017000037F80B4B6365A365E36523666366A366E1
:10171000E36623676367A367E3672362E361E5E743
:1017200053460000600500204C3300004C040020AC
:101730003517001007B5604601880A0A0230DF2A13
:10174000FAD1C9B2820804D3028840880004104349
:1017500000E00068014A5050039007BD600500207A
:1017600001480421014B18473002002035130010B6
:10177000014B5B68184700003002002010B50028BC
:1017800000D110BD00F026F9FBE7C04610B5094AAC
:101790000300146884B0002C08D001220091064890
:1017A000524203A9A047012004B010BD00F05EF929
:1017B0000020F9E7380400207D17001000BEFDE787
:1017C00010B5FFF7FBFFC04670B5FFF7EDFD074C06
:1017D000074B9C4209D2013B1D1BAD080135AD00F2
:1017E0002D1908CC9847AC42FBD170BD641D001088
:1017F000681D0010030010B508001B681100984711
:1018000010BDC046F8B54746CE4680B5437D0700BB
:101810000D001600002B37D000240020002A1EDD0A
:101820004B1E98461B4B9946002C2BD043461B5D04
:101830000D3B5A425341DBB22A5D0A2A13D00134D0
:10184000A642F1DC864203DD311A3B68281898472E
:10185000AD19013D2B780D3B5A4253413B750CBCF1
:1018600090469946F8BD002BE9D1A04203DA211A2F
:101870003B6828189847484602213B68013498473E
:101880002000DDE73B7DD7E703681100280098477B
:10189000E5E7C046501E0010F0B5DE4657464E46FE
:1018A0004546E0B585B017001C0006000D00FFF7A7
:1018B00015FB0023314A12184B41002B59DB3049EC
:1018C00008008A4600F028FA01906B1C03D1300012
:1018D00000F0DCF90500002C26D12A4B98462A4B53
:1018E0001C68002C15D0002F21D1284F02E024695C
:1018F000002C0ED02368002BF9D03B68002B01D0C0
:10190000A342F4D120002A003100C0472469002CF2
:10191000F0D1019B002B28D1280005B03CBC90469B
:101920009946A246AB46F0BD194B9846D7E7174BF0
:10193000994602ABDF1D0A239B4602E02469002C76
:10194000E7D02368002BF9D04B461B68002B01D051
:10195000A342F3D12A0031002000C0475B46012298
:10196000390020003B70C047E8E7504600F0C4F95A
:10197000D2E70122074B5242A1E7C04640420F0086
:1019800058020020F5170010300400203404002015
:1019900005180010FFFFFF7F0A4A1368002B05D1CE
:1019A0000CE01A001B691032002B07D09842F8D1C6
:1019B000002902D103691360016170470029FCD03E
:1019C0001060FAE73004002010B500F037F901206C
:1019D00010BDC046F0B5CE46474680B583B06B46D5
:1019E0000500DE1D3070FFF779FA00231A4A12183D
:1019F0004B41002B2CDB19490800884600F08CF97C
:101A0000174B07001C68002C16D0164B994602E0B5
:101A10002469002C10D02368002BF9D04B461B689A
:101A2000002B01D0A342F3D1200001223100FFF7A7
:101A3000E9FE2469002CEED1002F05D1280003B067
:101A40000CBC90469946F0BD404600F055F9F5E7CC
:101A50000122054B5242CEE740420F0058020020BF
:101A60003004002034040020FFFFFF7F70B5040025
:101A700000F00CF901230100050001222000FFF70E
:101A80000BFF084B1C68002C06D06368002B05D0A8
:101A900098472469002CF8D1280070BD2469002CD7
:101AA000F3D1F9E730040020F0B50D1E15DD0E4B23
:101AB0000D271A680D4B4519D31859424B410C4953
:101AC0005B005E5E20210478A64207D0936919422C
:101AD000FCD101301460A842F5D1F0BD93691942E0
:101AE000FCD11760F2E7C046540400200080FCBF20
:101AF0005C04002030B50500002924DD00201024FE
:101B00001A4B013D1A6893691C4217D10130936941
:101B10001C42FCD113682B548142F4D1144B1B6836
:101B2000002B0AD050239363516B183B0B40114993
:101B30008C4662441360002814D030BD0C4B1B68E7
:101B4000002BEFD1F7E70A4B1B68002B0AD050227D
:101B5000064B1B689A63596B183A0A4005498C4634
:101B600063441A6003204042E7E7C0465404002063
:101B7000FC03002034100000064B10B51B68002B3E
:101B800006D00021044A12689163044A10689847FD
:101B900010BDC046FC0300205404002000040020B7
:101BA0000822034B19688B691A42FCD17047C04662
:101BB0005404002070B51B4E1B4B32680500D3182F
:101BC0005842434114331C00002D04D0174B1A68AF
:101BD000002A11D070BD154E3368002BFAD00021B9
:101BE00020009563FEF72CFC20001149FEF764FCF1
:101BF000104B35601D60EDE71D600E4B2000196035
:101C00000B49FEF72FFC01212000FEF719FC5022A2
:101C100033689A63596B183A0A4007498C46634403
:101C20001A60D7E7540400200080FCBFFC030020AA
:101C3000791B001000040020341000000D4B10B57B
:101C40001B780D4B0D4C1B780D4B02211B780D4B57
:101C500000202360FEF772FB02210120FEF76EFBDD
:101C6000E12120684902FFF77DF901210648FFF7CD
:101C700093FE10BDB81E0010BC1E001054040020BE
:101C8000C01E0010004003404002002010B5830732
:101C900027D00378002B26D00300032102E01A7816
:101CA000002A1CD001330B42F9D119680F4A104C9D
:101CB0008A188A4322420FD1043319680B4A8A18C2
:101CC0008A43224208D104331968084A8A188A4391
:101CD0002242F1D000E001331A78002AFBD1181A11
:101CE00010BD0300E1E70020FAE7C046FFFEFEFE5C
:101CF00080808080F8B5C04601B40248844601BCAB
:101D0000604700BF7101002001B40248844601BC55
:101D1000604700BF9901002001B40248844601BC1D
:101D2000604700BFC1000020D1130010FD13001058
:101D30004915001061170010A5150010D1160010EC
:101D40007114001019140010391400104D140010F3
:101D50004107001055140010D50A00109913001007
:081D60001D040010FD0200103B
:101D680048656C6C6F2C20776F726C6421000000E2
:101D78000A2A2A2A2050414E4943202A2A2A0A00A0
:101D88000A000000486172647761726520616C61C5
:101D9800726D20256420616C726561647920636CC2
:101DA80061696D6564000000486172642061737345
:101DB8006572740052656C6561736500626F6F745B
:101DC800325F77323571303830000000322E312ED4
:101DD800300000007069636F0000000068656C6C7B
:101DE8006F5F776F726C640046656220313820320D
:101DF8003032350005005250DE65F468642000106A
:101E0800060052505422A29DF01D001006005250A8
:101E1800861C0302E41D001006005250BBFF3CB6AE
:101E2800DC1D001006005250ABB36053D41D0010E7
:101E380006005250E182887FC41D001006005250EF
:101E4800D3F07542BC1D00100D0A000055415254D4
:101E580020737464696E0000554152542073746491
:101E68006F7574005541525420737464696E202F45
:101E7800207374646F7574000600525053B4F4A153
:101E88006C1E00100800525012000000080052504A
:041E980092100000A4
:101E9C00FC1D0010081E0010141E0010201E001047
:101EAC002C1E0010381E0010441E0010801E001046
:081EBC008C1E0010941E0010A2
:101EC400F0B5C6461E0000B5040015000368EFF324
:101ED400108272B619680029FCD0BFF35F8F042307
:101EE400E356002B36DB2168BFF35F8F00200860C8
:101EF40082F31088D02200271206D7579F4203D1BD
:101F0400002004BC9046F0BD002398460CE02268F3
:101F1400BFF35F8F4146116083F3108828003100BE
:101F240000F03EF80028EBD12268EFF3108372B67C
:101F340011680029FCD0BFF35F8F22797F2AE6D98C
:101F440022682771BFF35F8F0021116083F310882B
:101F54000120D6E7D0231B061B6823712368BFF337
:101F64005F8F0021196082F310880120C9E7C04601
:101F74000268EFF3108172B61368002BFCD0BFF334
:101F84005F8FFF2303710368BFF35F8F00221A6022
:101F940081F3108840BF70477047C04600000000BE
:101FA40001B40248844601BC604700BFD90D00104B
:101FB400100000000000000000000100000000000C
:101FC400000000000000020000000000000000000B
:101FD4000000030000000000000000000000FF00FB
:101FE4000000000001B5486801318E460047704684
:101FF40009380149884701BD7D0600100000000032
:1020040000000000000000000000000000000000CC
:10201400600200200000000000000000000000003A
:10202400503300004C33000054330000523300009E
:102034004D5300004D43000053340000433400006E
:10204400A91A0010A11B0010F51A0010B51B0010EE
:10205400000000000001000000000000000000007B
:04000005100001E9FD
:00000001FF
