:020000041000EA
:1000000000B5324B212058609868022188439860DF
:10001000D860186158612E4B002199600221596106
:100020000121F02299502B49196001219960352056
:1000300000F044F80222904214D00621196600F024
:1000400034F8196E01211966002018661A6600F04E
:100050002CF8196E196E196E052000F02FF8012189
:100060000842F9D1002199601B49196000215960AB
:100070001A491B48016001219960EB211966A021F2
:10008000196600F012F800219960164914480160C1
:100090000121996001BC002800D000471248134993
:1000A000086003C880F30888084703B5996A0420EC
:1000B0000142FBD001200142F8D103BD02B5186610
:1000C0001866FFF7F2FF186E186E02BD00000240BE
:1000D000000000180000070000035F00212200005C
:1000E000F4000018222000A00001001008ED00E03C
:1000F00000000000000000000000000074B24E7A12
:1001000000200420F7010010C3010010C5010010F9
:10011000C1010010C1010010C1010010C101001097
:10012000C1010010C1010010C1010010C701001081
:10013000C1010010C1010010C9010010CB01001065
:10014000CD010010CD010010CD010010CD01001037
:10015000CD010010CD010010CD010010CD01001027
:10016000CD010010CD010010CD010010CD01001017
:10017000CD010010CD010010CD010010CD01001007
:10018000CD010010CD010010CD010010CD010010F7
:10019000CD010010CD010010CD010010CD010010E7
:1001A000CD010010CD010010CD010010CD010010D7
:1001B000CD010010CD010010CD010010CD010010C7
:1001C00000BE00BE00BE00BE00BE00BEEFF3058054
:1001D000103800BEF2EB8871906F0010B06F001005
:1001E0003802001090A31AE71E481F49086006C88D
:1001F00081F3088810471D480068002801D019487D
:10020000F3E70DA40ECC002902D000F012F8F9E7B4
:100210001749184A002000E001C19142FCD116495B
:100220008847164988471649884700BEFDE701C937
:1002300001C29A42FBD37047B06F0010C00000208B
:100240004811002038800010000004200000042025
:10025000388000100010042000100420000000006E
:10026000704700000000000008ED00E0000000D032
:1002700048110020E4210020593B00102103001008
:10028000513B0010F8B5C0460448054B10B58342F9
:1002900003D0044B002B00D0984710BD481100201C
:1002A000481100200000000006480749091A8B1079
:1002B000C90FC91810B5491003D0044B002B00D04A
:1002C000984710BD48110020481100200000000090
:1002D00010B5074C2378002B09D1FFF7D5FF054B4C
:1002E000002B02D0044800E000BF0123237010BDA2
:1002F000D012002000000000EC680010054B10B583
:10030000002B03D00449054800E000BFFFF7CCFFF5
:1003100010BDC04600000000D4120020EC680010A0
:1003200070B503F04BFD012006F010FA124AC1022D
:100330000A40124983011143A0221148D2059A189C
:10034000106019200F4C54609060D1600E4A9446A2
:1003500080226344520419681142FCD1200003F04A
:100360007DFD0A4D2100280003F002FEFA208000E6
:1003700000F05AFEF6E7C046FDFF1FFF31801F0068
:10038000FC680010081F002010000050F0680010EA
:100390008023DB051868000F7047C0460FB400B516
:1003A000084883B003F05AFD049B002B07D005A931
:1003B0001800019103F0B2FB034803F04FFD012048
:1003C00003F0C4FB1869001028690010F8B5EFF3BA
:1003D000108772B60E4E3368002BFCD0BFF35F8FD0
:1003E000CB08C4180725A446C45C01230D40AB40CC
:1003F00018002040234208D1624623431370BFF304
:100400005F8F306087F31088F8BD1000FFF7C6FFDC
:100410002C0100D0F8B5CE4647468C4680B5EFF3A8
:10042000108872B6214D2C68002CFCD0BFF35F8F72
:100430009A422CD8D4080721055D061901241140E1
:100440008C402C421FD007218946063909E0D40888
:10045000055D06194C460F001440A7403C002F4292
:1004600011D001329342F2D201204042BFF35F8F9C
:1004700000220E4B1A6088F3108800280FDB0CBC9A
:1004800090469946F8BD2C4310003470EEE7BFF358
:100490005F8F00232B6088F3108801204042634661
:1004A000002BECD00898FFF779FFC0462C0100D054
:1004B000044A1078431CDBB2172B00D910231370A9
:1004C0007047C0467810002000B5054B83B001008E
:1004D000009318221F230348FFF79CFF03B000BDC1
:1004E0002C690010481A00200021044B044ABFF375
:1004F0005F8F02C39342FAD17047C046000100D01B
:10050000800100D0054B064A1360064A1360536011
:100510009360D360136153619361704780808080E2
:1005200000E400E004E400E01F2318401E3B834089
:10053000002905D0C021044A490053501360704778
:10054000802201498B50FAE700E100E0012282405D
:10055000034B1B681340581E8341D8B27047C046F6
:1005600000E100E001238340014A13607047C04668
:1005700000E200E0084B10309B688000C358002B5D
:1005800007D0064A00209B1A2F229A424041C0B24F
:1005900070470020FCE7C04600ED00E07C10002022
:1005A00070B50D00EFF3108672B60F4A1368002B7A
:1005B000FCD0BFF35F8F0D4B10309B6884001B593C
:1005C0000B4A934203D09D4201D000F0D1FF074B6C
:1005D0009B681D51BFF35F8FBFF35F8F0022024BFB
:1005E0001A6086F3108870BD240100D000ED00E091
:1005F000CD010010F0B557464E464546DE46E0B503
:10060000894683B005001700EFF3108A72B65E4A80
:100610001368002BFCD0BFF35F8F00205B4B185694
:100620009B46002800DA6CE05A464400584E2418D5
:10063000A400331998469B7910351370554BAA00C6
:100640009B6801929B589C469B1B2F2B28D801220C
:1006500061469143CB79BB4208D86AE053009B18AE
:100660009B00F318DD79BD4251D9190006228A5644
:10067000002AF3DA0B1D9B46474E43465C46043B7B
:100680001B1B1B05454C5B0D23438B80887141462A
:100690008A714A46424B8E800B60CF718A601BE0A4
:1006A000404B9C4542D142463F4B023413803F4B66
:1006B0003619043B9E1B3605384B760D1E433C4BCA
:1006C00056809380FF23D771937143464A469A60C0
:1006D000012342461A43944661462E4B019A9B6879
:1006E0009950BFF35F8FBFF35F8F0022264B1A60D4
:1006F0008AF3108803B03CBC90469946A246AB46AC
:10070000F0BD00F035FF5B46002018568CE70B1D4E
:100710009B468B8804345B051B155B4436199E1B76
:10072000E0233605760D1B021E43A6E700F020FFEE
:10073000B9E745460B001F489B1B5B415843000D22
:10074000194B2B80A31C9C46B4446546174B0434BC
:10075000043B5B1B1B05114D5B0DAC462B43454613
:1007600036196B800B1F9E1B6346A87148463605E1
:10077000760D1E430A4BAE80EF71A8600B604346B6
:1007800013439C46A8E7C046240100D0001F002068
:100790007C10002000ED00E001BD000000E0FFFF44
:1007A00001488047CD01001000A1FFFFAC100020E0
:1007B00001BDFFFFAAAA0000F0B501240443EFF336
:1007C0000581EFF3108672B6214A1368002BFCD026
:1007D000BFF35F8F1F4B05001F4AED1A6D416A433F
:1007E000120D1E4D8900AF6852B27F58A7421CD02F
:1007F0000621595691421CD012215956914222D0BD
:100800001E215956914220D02A2159560324914243
:1008100010D0134B19781A708171BFF35F8F0022CB
:100820000B4B1A6086F31088F0BDAB680D4C5C5022
:10083000EFE700246100091989005B18FF21997115
:1008400009499980E5E70124F4E70224F2E7C0466C
:10085000240100D07C100020AAAA000000ED00E0D6
:10086000001F0020CD01001001BDFFFF00B5074BA8
:1008700083B001000093002205230548FFF7CAFD5D
:10088000002801DB1F23181A03B000BD48690010BF
:10089000041F0020024B9C466144890001607047A0
:1008A00040000034F8B5134D134E2C00FF27B5421D
:1008B0001ED22368002B0FD0FFF7FAFD010028009D
:1008C000FFF7E8FFA780BFF35F8F0834B4420FD271
:1008D00023682500002BEFD1FFF7EAFD0100280077
:1008E000FFF7D8FF2771BFF35F8F0834B442EFD30F
:1008F000F8BDC046381100204811002010B5040092
:10090000FFF7D6FD01002000FFF7C4FFFF2323718E
:10091000BFF35F8F10BDC04610B504000120FFF784
:10092000D3FD034BC3189B002360BFF35F8F10BD43
:1009300040000034034B9C46614489000160BFF3D2
:100940005F8F7047400000340A4B1968EFF3108046
:1009500072B60A68002AFCD0BFF35F8F1B68BFF332
:100960005F8F00221A6080F3108840BF00200021B2
:100970007047C046DC1E0020F0B5DE4657464E46A6
:100980004546E0B585B0EFF30582032313409A0096
:1009900011000392B74A5258904601229A40B64B32
:1009A00091461A6033E043469B881BB2002B00DB64
:1009B0009FE043469B79002B00D0F1E0434608249A
:1009C0001C5F002C00DA19E142465269630094462C
:1009D0001B19DB0063449C68DD68631C00D115E1D2
:1009E000A648A64B84469A6A039BA01A6344190042
:1009F0001B699B1A984200D20C61A04800F0A8FB2A
:100A0000241A8D41002D00DDF8E000D12EE14B4687
:100A10009A484363434608229B5E9A46002BC2DBFA
:100A2000424652695B0093465344DB009B445B465D
:100A30009E68DF6800F08CFB801BB9410029B2DBA7
:100A4000002F00DAEDE05B468D4A1B69934200D12E
:100A5000E0E041465A460820085E528800041043F0
:100A60005A465169984704000D0023002B4300D1DA
:100A7000D7E0002D00DBF0E0361BAF4134003D0035
:100A80005B469C60DD600021595E00298BDB43469C
:100A90005B6922009C462B0048004018C00060445F
:100AA0008668C768921BBB41002B00DA7BE7434690
:100AB000664602000094019519810CE07B00DB1969
:100AC000DB00F318009801999C68DD68001BA941C0
:100AD000002904DB1A000023D75E002FEEDA5B4604
:100AE0001F805346138043469B881BB2002B00DABD
:100AF0005FE743461A69EFF3108172B61368002B63
:100B0000FCD0BFF35F8F43469B8842461BB29A4698
:100B100001235B4293801369BFF35F8F00221A6049
:100B200081F310885346002B00DA42E743465B69A5
:100B30009C46082343449B4653465F004346574424
:100B4000FF0008229A5E67445E46BC68FD68002A82
:100B500019DB3B000094019567469C4604E01E00AB
:100B60000023F25E002A0BDB0098019953009B18CA
:100B7000DB00FB189C68DD68001BA9410029EEDA48
:100B80006346BC461F005346338000217B5E3A809B
:100B90009A46002BD0DA43469B79002B00D10DE713
:100BA000002342469371434646460821595E083663
:100BB0004B1C23D047468C46556902E006004B1C6F
:100BC00017D04B005B18DB00E8180A00E95E438889
:100BD0001BB2002BF2DA01235B42DC178360C46096
:100BE0009445ECD031803B89944603803A814B1C7C
:100BF000E7D16446B846002C00DBE5E640BF05B00F
:100C00003CBC90469946A246AB46F0BD6B1C00D05A
:100C1000E6E6F2E65B465C69200023699847002817
:100C200021D15B4642461B8813811269EFF3108382
:100C300072B611680029FCD0BFF35F8F4246594657
:100C400052880A804246514651801269BFF35F8F35
:100C50000021116083F31088A5E6084800F078FAB7
:100C600024184D410CE765682468FEE6002C00D18D
:100C7000CDE6C3E7C01E00203C70054000400540A3
:100C80007909001070B52E4C2569002D04D00A2179
:100C90002C48FFF7FFFD70BD2B4E0321300000F004
:100CA0004DFAE660FFF704FC284B03229C46D02354
:100CB00022701B061B6801216370254B6044A360F2
:100CC0000F23800020610220638063694942A18074
:100CD00019800231198647311D83585218315A52F2
:100CE00075325C39995218320131995218320131FA
:100CF0009952183201319952083518329D520231F9
:100D000018329952183201319952183201319952E0
:100D10001832013199521832013199521832013189
:100D200099520C4B0C49DC6001303562FFF738FCFE
:100D300001210320FFF7F8FB084B1D60A7E7C04621
:100D4000C4100020DC1E002000400540400000349C
:100D5000FFFF1000C01E0020790900103860054018
:100D600000487047C4100020F8B51F0008AB1B787E
:100D700004001600002B07D100F0F2F932003B000E
:100D8000121A8B41002B4CDB2269EFF3108072B6F4
:100D90001368002BFCD0BFF35F8F62690223E15E12
:100DA00094464B005B18DB006344002901DB1A8882
:100DB00062802269BFF35F8F0025156080F3108881
:100DC000002930DB069A9E60DF601A61079A5A613B
:100DD0005A8801325204520C151C002A1FD0A8B2A6
:100DE0000A045D8010432569EFF3108672B62A6805
:100DF000002AFCD0BFF35F8FA2881A80A1802369EC
:100E0000BFF35F8F00221A6086F3108807492378AA
:100E10008C4601329A40E36863441A60F8BD0125AC
:100E2000DDE70020FAE701204042F7E73C20000020
:100E3000F0B501000469EFF3108772B6206800284E
:100E4000FCD0BFF35F8F02200D5E48696C008446C2
:100E50006419E4006444002D01DB2088488008699F
:100E6000BFF35F8F0026066087F31088002D2EDB0E
:100E7000E36063880598013320615B0406985B0C8E
:100E8000A26060611A1C002B1FD090B22B046280FC
:100E900018430A69EFF3108672B61368002BFCD072
:100EA000BFF35F8F8B8823808D800B69BFF35F8FCB
:100EB00000221A6086F310880B7801329A40CB68C2
:100EC00004498C4663441A60F0BD0122DDE701202D
:100ED0004042F9E73C20000030B543890A149342B0
:100EE00033DD53009B184269DB0094460469634478
:100EF000EFF3108572B62268002AFCD0BFF35F8F33
:100F00005A88090494B2090C8A4208D00369BFF3D5
:100F10005F8F00221A6085F31088002030BD802288
:100F2000120214435C80012302698371BFF35F8F57
:100F30000021116085F31088054902788C469340A2
:100F4000C268012062441360E8E70020E6E7C0467B
:100F50003C20000040787047F0B504000D000626E4
:100F60007642F717C64636196F4100B582B08F42F8
:100F700014D811D000F0F4F832003B00121A8B4163
:100F8000002B15DC002B44D02000290000F0F2F8E3
:100F900002B004BC9046F0BD8642EBD90026002783
:100FA00000F0DEF832003B00121A8B41002BE9DD25
:100FB00000F0D6F832003B00121A8B41002B0ADBFE
:100FC00000230193144B3200009314483B00FFF7B9
:100FD0002FFF0028D8DBB0460026BC46104A114F30
:100FE0007B6A9C4504D8B96A8845CDD99C45CBD14C
:100FF0001168EFF3108072B60B68002BFCD0BFF3C2
:101000005F8F1368BFF35F8F1E6080F3108820BF6F
:10101000E6E7002AB8D0CBE749090010C410002049
:10102000DC1E00200040054070B5060000F098F876
:10103000FA2204000D00002330000021920001F08C
:10104000D5F900196941002902DBFFF785FF70BD62
:10105000012001494042F8E7FFFFFF7FF0B5CE468F
:10106000474680B504000D0083B0EFF30587002FDD
:101070003BD12F4E81463378F26804339B00916A4E
:101080009B58421A5B1A9A420ED320BF294A00206D
:10109000536AAB4203D3926A013091453CD803B006
:1010A0000CBC90469946F0BD00F05AF822002B0087
:1010B000121A8B41002B26DB1F4B220000933000BD
:1010C0002B000197FFF7B4FE011E1CDD194BA8464B
:1010D0005A6A954225D920BF3000FFF7FDFE154A18
:1010E0000020536A9845DAD8D5E7124A0020536A9F
:1010F0008B42D4D3926A0130A242D0D25B1A581EDE
:101100008341D8B2CBE70B4A0020536AAB42C6D327
:10111000926A01209145C2D9EB1A581E8341D8B278
:10112000BDE79B6A9C42D7D99542D5D1D3E7C0464B
:10113000C4100020004005404909001010B5024AC3
:101140000248FFF743F910BD646900104C1A0020F3
:101150000300416A0A00986A596A8A42FAD17047C4
:10116000034B596A0A00986A596A9142FAD170474A
:1011700000400540064A536A9942FCD807D1044B07
:1011800002E05A6A914202D19A6A8242F9D37047C8
:1011900000400540F8B54E464546DE465746E0B5A8
:1011A000884605000A991800160000F0E7FA0A9B25
:1011B0006C001F02324B64199C46A40064446368AF
:1011C00081469F4200D967602B1FDBB29A46012BF4
:1011D00030D9C02380229B01E31812011A60294BE9
:1011E000AD0059599B4600291BD1226876017240F7
:1011F000E0268023164052465B01E3181E60012A58
:1012000030D9802380229B01E31812011A605B46CB
:101210004A4667605A513CBC90469946A246AB4646
:10122000F8BD586900F0AAFA431C5800C0180338EA
:10123000FDD2DAE74346012BCBD1C02303229B0129
:10124000E3181A60023AA3681A42FCD022687601B9
:101250005640E022802316400A4A5B019346E31879
:101260001E60AD0042462168514003220A401A60C8
:10127000012342469340A2681342FCD0C1E7C04616
:1012800000800040501A0020F0B546469846354B85
:101290004F469C46D64644002418A4006444636824
:1012A000C0B50F001600FF2B02D880235B006360DF
:1012B000031FDBB29946012B31D9C02380229B0149
:1012C000E31812011A60284B850059599A460029E3
:1012D0001CD1226876017240E026802316404A46DF
:1012E0005B01E3181E60012A30D9802380229B0114
:1012F000E31812011A6080235B0042466360534684
:101300005A511CBC90469946A246F0BD586900F05F
:1013100035FA431C5800C0180338FDD2D9E7012F15
:10132000CBD1C02303229B01E3181A60023AA368C1
:101330001A42FCD0226876015640E02280231640F3
:10134000094A5B019246E3181E608500032221686A
:1013500079400A401A600123BB40A2681342FCD0C6
:10136000C3E7C04600800040501A0020014B8000B7
:10137000C0587047501A0020F8B5040020481700E4
:101380001D000E0000F0FAF90100380000F0F6F937
:10139000069A2B04120313432268002A1FDB194A02
:1013A000A21851424A41802149018C4652420A40CA
:1013B000154962440A6015490A60154917000D680D
:1013C000AF43FBD1134A2660A1182122A0600A6016
:1013D0002268002AFCDAE36008230B60F8BD3F2294
:1013E00021680A40B242DAD1A2681205120D824287
:1013F000D5D1EE21E268C9020A409A42CFD1EDE789
:10140000001BB7000040FDBF00E0004000F00040BE
:1014100008C000400430000010B5140080221B4BAF
:10142000D2051A6000281AD00123194A1843194B13
:10143000DA61194A42401A62596298628022134B5B
:10144000D2051A601549164A1160E022D2041A60CA
:10145000002C07D18022134B12061A6010BD0D4BD1
:10146000D861EBE780236201121B9200121912016E
:101470005B049A4200D30C4A0C4B1A60054B5A602D
:101480008022084BD2051A60E8E7C04600B005404C
:10149000D3C007B0008005402D3FF84FFCFF01008E
:1014A0000820014000A00540FFFFFF00B01E002003
:1014B0008023024A9B000B43D362704700800540A3
:1014C000142310B50100188804331B88984710BDF9
:1014D000162310B50100188802331B88984710BDE9
:1014E000F0B5C64600B5002916D014230400012526
:1014F00098461827890046184346216818883B8873
:10150000984701C4431E984140420540A642F3D18A
:10151000280004BC9046F0BD0125F9E7142370B5FE
:101520000400188804331B880D0005499847030000
:101530000020002C01DB0130A04029009847C04664
:1015400055420000AA23064A1B0113602F230549B8
:10155000D360054B19605368002BFCDA7047C04616
:101560000040024000B0FA00006002407047C046F0
:1015700010B50148FEF712FF8869001070B5074BDF
:10158000074C9C4209D2013B1D1BAD080135AD0043
:101590002D1908CC9847AC42FBD170BDE46800100F
:1015A000A8680010054B064A06491A60064A074B10
:1015B0001A6010000B689843FBD1704700E00040B0
:1015C000BFCDFBFE08C00040FE7F3C0000F00040A5
:1015D000044BDB6C002B03D18022034BD2021A6038
:1015E0007047C046000011504C201150044A054B72
:1015F0001A60054A1368DB018033FBD17047C0468F
:10160000FFFFFF0100F0004008C000404022034BF4
:101610009A675A671A67DA667047C04600F0014059
:1016200010B5FEF761FF10BD70B5044D044C2800E5
:10163000C022A16800F04AFFA56070BD0000002034
:1016400000ED00E0002310B5294C82B0A367FFF73E
:1016500079FF0122274B1A60636C012BFCD1032216
:10166000254B1A60224A936B012BFCD10133009366
:101670000121224A22480433FFF77EFE052301217F
:101680000093204A2048FFF777FE00220221042021
:101690001E4BFFF7F9FD0022012105201C4BFFF72F
:1016A000F3FD0022002107201A4BFFF7EDFD002279
:1016B00000210820174BFFF7E7FD8023DB00009394
:1016C000002200210920134BFFF764FD0022104B7C
:1016D00000210620FFF7D8FD0420FFF747FE0E4942
:1016E00000F04CF801000020FFF7E2FE02B010BD50
:1016F000008000403CB0004030B00040002F6859EE
:1017000000800240008C864700C00240001BB700EA
:1017100040597307006CDC0240420F00014804216D
:10172000014B1847E0100020E1140010124A936F9B
:101730009B0815D29066D166002905D0FFE7FFE728
:10174000FFE7516F106F704704B580210906C2177B
:101750005140002800D0C84305F05EF8002104BDC8
:10176000F0B5146E556E576F166FFFF7E3FF1466F2
:10177000556657671667F0BD000000D0114A936F99
:101780009B0813D210665166002905D0FFE7FFE7DA
:10179000FFE7516F106F704704B5002801D000209B
:1017A000C04305F039F8002104BDC046F0B5146E01
:1017B000556E576F166FFFF7E5FF1466556657674E
:1017C0001667F0BD000000D094464A4A926F920816
:1017D000624601D228E0C046F0B5464E346E756EC2
:1017E000776F366F00F020F89446424A14665566CB
:1017F000576716676246F0BD94463E4A926F92085C
:10180000624601D254E0C046F0B53A4E346E756E71
:10181000776F366F00F04CF89446364A146655667A
:10182000576716676246F0BD002B24DB11D00029F4
:101830003EDA00B5C943404200D1013100F038F82A
:10184000C943404200D10131DB43524200D1013350
:1018500000BD002AEBD1002801D1002905D00020CD
:10186000C90FC90701D1C043410800B504F0C4FF46
:101870000022002300BD00B500290ADBDB435242F1
:1018800000D1013300F014F8C943404200D10131C6
:1018900000BDC943404200D10131DB43524200D177
:1018A000013300F005F8DB43524200D1013300BDA3
:1018B000002923D1002B18D1002A0CD0BC460D4F93
:1018C00038667A6600210023FFE7FFE7FFE77A6FBB
:1018D000386F67467047002801D00748010000B5FF
:1018E00004F08AFF0022002300BD02000B0000204C
:1018F00000217047000000D0FFFFFFFF002B00D049
:10190000BFE0130C28D1002AE7D080B4114F39660C
:101910007A66FFE7FFE730B4040C7B6F396F1B0476
:1019200023433B667A66FFE7FFE7FFE7C04684B2E2
:101930007B6F3D6F1B0423433B667A66FFE7FFE73F
:10194000C04600232C042D0C7A6F386F00196941B2
:10195000B0BC7047000000D0F0B594460025140ECE
:1019600001D112020835140F01D112010435940F70
:1019700001D192000235D40F01D152000135D40BB0
:101980000134254F7C66254C3C660E0C93B2FFE774
:10199000FFE7FFE73C6F6643360C7703BE467343B1
:1019A000DF0B5B04C01AB941130C7343DB18C91A6F
:1019B000CE086643360CB64493B273431F0F1B0127
:1019C000C01AB941130C73431F0B1B05C01AB94150
:1019D000860D8F023E436643360C092D24DB520AE6
:1019E0007243801A7703460A6643360C16235B1B44
:1019F000DE40DF40BF1964466643821B70460435F3
:101A000006330100D940A840C01900D30131A242D9
:101A100006D20023F0BD0000000000D0FFFFFFFF52
:101A2000121B0130F3D3F1E709277F1BFE40644608
:101A3000A2B27243801A00D20139220C7243130CF5
:101A40001204821A99410B007046043513370100C5
:101A5000F940A840801900D30131002B02D1A242E5
:101A60000AD2F0BD013000D30131121BFAD2013B82
:101A7000F8D1A24200D2F0BD013000D30131121BD7
:101A8000F7E7F0B51C0C00D080E00CB400251C0A70
:101A900004D11B02160E3343120208351C0B04D16D
:101AA0001B01160F3343120104359C0B04D19B001C
:101AB000960F334392000235DC0B02D192185B4142
:101AC00001351C00971864410134464F7C66464C32
:101AD0003C660E0CFFE7FFE7FFE7C0463C6F66433E
:101AE000360C7703BE4697B27743C01B00D201394C
:101AF000C01B00D201399FB27743C91BC91B170C09
:101B000077437E04FF0B801BB941CE086643360C39
:101B10000C2D33DBB644120B1F053A431B0B97B257
:101B20007743C01B00D201399FB27743C91B170C02
:101B300077433E043F0C801BB941860D8F023E4324
:101B4000664329277F1BFE400C3D7746AF40BF19F7
:101B500030BCA2B2ABB272437343801A9941220CDB
:101B60007243130C1204801A994102000B000137D2
:101B7000001BA941F9D2781E0021F0BD0C277F1B64
:101B8000FE4077467F0BAF40FF19E0E700245D1C65
:101B900007D0144F7D663966FFE7FFE7FFE7FFE7F1
:101BA0003C6F95B29EB265436643401BB141150C34
:101BB0001E0C6543664336042F0C3E432D04401B28
:101BC000B141994204D202000B0020000021F0BD77
:101BD00001D19042F7D3801A994101349942F2D34E
:101BE000F6E70000000000D0FFFFFFFF4840414043
:101BF000484018B41B4B5B68FC46019308BD04DFEA
:101C0000BF1E001018B4174B1B68FC46019308BD9B
:101C100000DFC91E00109446134A926F920809D241
:101C2000624618B40F4BDB68FC46019308BD0CDF1D
:101C3000812100100C4AF0B5146E556E576F166F67
:101C40006246FFF7EEFF084A146655665767166747
:101C5000F0BD18B4034B9B68FC46019308BD08DF38
:101C600025200010241F0020000000D0FFB55040A8
:101C70004240504059404B40594000E0FFB5154F9D
:101C80004C00640D03D0BC4204D10C0314D80020D6
:101C9000090D09055C00640D03D0BC4204D11C038E
:101CA0000AD800221B0D1B0501264B4009D44B40CE
:101CB00003D58B4200D18242FFBD9942FCD19042B4
:101CC000FFBD0B43DB1803431343F5D0C943491849
:101CD000FFBD0000FF07000000B5FFF7CFFF804108
:101CE00000BDC04600B5FFF7C9FF01D9002000BD07
:101CF000012000BD00B5FFF7B9FF01D9002000BDEC
:101D0000012000BD00B5FFF7B1FF804100BD0120FB
:101D100040054A00121804D85A00121801D80020B1
:101D200070470120704700000021002805D170474E
:101D3000C1174840401AFAD0C90713B5064B1B68B3
:101D400098470CBC441CA2401005120B0349091B08
:101D500009051943114310BDD81E00201F040000BF
:101D600010B54C00620D8023D218DB00D21A5B053F
:101D70007E2A10DD9E3A13DACC170903490819436D
:101D80005242D140640001341532202A05DAD04095
:101D90000843604310BD002010BD0846604310BDDD
:101DA000C80FC018013810BD18B4044B5B6AFC465C
:101DB000019308BD24DF312300100000241F002000
:101DC000132370B51D78012D19D014DD2948FFF7B4
:101DD0007FFB06002848FFF77BFB284C8022310060
:101DE000200000F073FB022D06D02548FFF768FBAA
:101DF000244B186070BD214C234AA264F5E72E00E5
:101E00001E4C214AA3085B421E401D422FD03300C6
:101E100022602020B1006118801B0A604A608A603D
:101E2000CA600A614A618A61CA610A624A628A6258
:101E3000CA620A634A638A63CA630A644A648A6438
:101E4000CA640A654A658A65CA650A664A668A6618
:101E5000CA660A674A674008102803D18A67CA67BA
:101E6000A264C2E71E339B00E250A264BDE70023D8
:101E7000CFE7C0465344000053460000241F002013
:101E80004C330000D81E00208D1E001007B56046A0
:101E900001880A0A0230DF2AFAD1C9B2820804D3C3
:101EA000028840880004104300E00068014A505056
:101EB000039007BD241F00200FB403BC0CBCF0B579
:101EC0000124E407634000E0F0B50C0DCF0F661E5F
:101ED0003605891B640503D3C943404200D3013151
:101EE000640D03D0661CF60A07D0E41B00207F00B7
:101EF000791C89078912803C24031D0DDF0F6E1E9B
:101F000036059B1B6D0503D3DB43524200D30133DF
:101F10006D0D03D06E1CF60A07D0ED1B00227F006A
:101F20007B1C9B079B12803D2D032F1B661B58D4E7
:101F3000A446202E46DA20371400BC401D00BD40C8
:101F4000F24033412A4380185941CB0F05D0C94391
:101F5000C043002264425041514162464D0D28D198
:101F60000D0D07D100281FD0241940414941013AE5
:101F70000D0DF9D0640006D3013000D30131002CDF
:101F800001D140084000013A0BD4941CE40A04D16A
:101F900012051144DB071944F0BDD907204B194342
:101FA00000E0D9070020F0BD0029DDD1002CDBD1F5
:101FB000F0BD0132C6074008CD0728434908002E6E
:101FC000E1D0D9E73C2E29DA203E40371400BC404E
:101FD00000D00124F24014431A00BB401C43D31725
:101FE000ACE7AC46202F08DA20360400B4400D00E0
:101FF000B540F84039412843A5E73C2F0CDA203F93
:1020000040360400B44000D00124F84004430800E6
:10201000B1400C43C117EAE710001900002494E70F
:102020000000F07FF0B50C0D661E3605891BE60A30
:102030006405640D02D0651CED0A04D00020012166
:102040000905803C2403A4461C0D671E3F05DB1BCD
:10205000E70A6405640D02D0651CED0A04D0002275
:1020600001231B05803C24037740644497B484B269
:1020700096B27443070C7E43150C6F4380B26843DD
:10208000361802D3012000043F183004350C001923
:102090007D41844688B29AB250430C0C62431F0CB7
:1020A0007C438EB27E43921902D301263604A419D2
:1020B0001604170C3618674101BC81B29AB251431D
:1020C000040C62431B0C5C4380B25843121802D3C9
:1020D0000120000424181004130C401863412D182B
:1020E0005E410020474106BC88B293B258430C0CB5
:1020F0006343120C544389B251435B1802D301214C
:102100000904641819041A0C091862416D18564123
:102110000020474118BCF902720D1143F0026A0D0C
:102120001043ED020A0D03D16D1940414941013BB5
:10213000124E9B1B7600B3420ED26D0007D30130C6
:10214000002671416646354301D1400840001B0519
:10215000C918E4072144F0BD0BDA013306D1013080
:1021600004D101314F0D01D04908F2E7E107002009
:10217000F0BD013631050020EBE70000FF03000051
:10218000F0B51C0D671E3F05DB1BE70A6405640DF7
:1021900002D0661CF60A04D0002201231B05803CF5
:1021A0002403D0252D060026F6432E661E096E66F2
:1021B000CE0FF619B44649004F0D02D07E1CF60A28
:1021C00003D000200021403F3F033E1BB600B44433
:1021D000013F7F05C91B49082E6F013676089C0216
:1021E000950D25437543ED137543AD1301356D1002
:1021F000F603761B0CB4CC02450D2C43A2B2B3B24D
:102200005A43270C7B43350C6F43A4B26C431B1914
:1022100002D3012424043F191C041D0CA4187D4181
:1022200024196D41009A91B2ACB26143170C7C4302
:102230002B0C5F4392B25A43A41802D3012212041A
:10224000BF182204230C52187B41019C6C431B19BC
:10225000520ED9010A434401A01A81B2B2B25143CD
:1022600003145A43360C734387B27743D617D219F7
:1022700000277E4136049B191704160C7F185E4117
:102280007316ED18F301002680337541A90F06D1AE
:102290006400690AE8055B0A184309D22FE00422AA
:1022A000944480337541A90AA8059B0A184326D394
:1022B000404149412404009A019B0D005543641B91
:1022C0004343E41A95B286B27543170C7E43030C60
:1022D0005F4392B25A43B61802D301221204BF18C8
:1022E0003204330C52197B4152429C41002C02D4DF
:1022F0000022013051414008CA071043490802B08A
:102300006246D7079210084BD218084B9A4203D264
:1023100012058918C919F0BD0020002A01DC390016
:10232000F0BD01331905F5E7FD030000FE070000CD
:10233000002200B5203200F004F8080000BD0000C3
:1023400000220B150AD410B5944600F031F814148D
:10235000013400DA0021CB17144C20470020002163
:1023600070476244343A0CD40C2A07DA04009140D6
:10237000904052422032D440214310BDD843D9432B
:1023800010BD203207D40C469440524220321141F5
:10239000D040204310BD0800C917203203D4524258
:1023A0002032104110BD1800190010BD6323001029
:1023B0000A0DCC0F531E1B05C91A520503D3C9437E
:1023C000404200D30131520D03D0531CDB0A07D029
:1023D000121B00206400611C89078912803A1203D5
:1023E000014BD21A70470000FF03000051434343E2
:1023F000C9188C46110C83B24B4310B4040C6143D2
:1024000092B280B2504362431C041B0C001910BCF2
:1024100059411304120CC018514161447047000027
:10242000132310B512481C78FFF752F80100012C55
:102430000AD003DD80220F4800F048F80E48FFF76D
:102440003FF80E4B186010BD0A4C5422200000F0DB
:102450003DF80B4B6365A365E36523666366A3667E
:10246000E36623676367A367E3672362E361E5E7E6
:1024700053460000242000204C330000D81E0020CA
:102480008524001007B5604601880A0A0230DF2A59
:10249000FAD1C9B2820804D30288408800041043EC
:1024A00000E00068014A5050039007BD242000203E
:1024B00001480421014B1847F0100020E1140010DE
:1024C000014B1B6818470000F0100020014B5B68AF
:1024D00018470000F01000207047C046F8B5574676
:1024E0004E46DE464546E0B51F000A9B05009B466A
:1024F0000D9B0E00914692469B0718D10B9B0C9AA0
:10250000934214D213000B9AB8469B1A4B444C4684
:102510000F0006001D002200434601343900202030
:10252000B047AC42F7D1AA4635003E0047460B9B68
:10253000002B38D09A441C00D04653461A1B5B46E9
:10254000013C185D31003B00A847002CF5D10D9BE4
:102550009B0721D543464A469C1A0C9BA3421BD994
:102560003A009A464F469146E2194B4631002020E8
:102570000134A8475445F7D343460C99DB1B01337C
:10258000B9460022994203D343464A1E4A44D21A0E
:10259000434690460133984440463CBC9046994699
:1025A000A246AB46F8BDD046D1E7C046F0B54F468F
:1025B0004646D646C0B584B098460EAB1B78129FEF
:1025C000994694460D9C109B119EBA0725D4002E67
:1025D00069D19C4200D3C2E001223A4092461F2CAE
:1025E00000D9BBE00C9A551E302201E0202C03D00C
:1025F00001342A55A342F9D85246002A0DD0B442DC
:102600000BD21F2C62D80C9A551E302201E0202CD0
:102610005CD001342A55B442F9D1FA0635D57A0591
:102620005DD4002C57D10F9B102B00D17CE00F9B69
:10263000022B00D18DE030230C9A012413704B46FD
:10264000002B27D02D230C9A135501340C9B624686
:1026500000930397434602960194FFF73FFF04B0AF
:102660001CBC90469946A246F0BDBB0663D4202C04
:10267000ECD00C9B1A19013478231370202CE5D070
:1026800030220C9B1B191A700134202CDED04B46D3
:10269000002BD7D17B0735D43B07D7D520230C9A05
:1026A00013550134D2E7012215003D40AA463A42B3
:1026B00020D04A46002A2AD10C323A4227D19C42E5
:1026C0009DD21F2C00D88DE7202E19D92024FA0680
:1026D000BCD57A0503D4A3421BD0A64219D00F9BC8
:1026E000102BC2D0022BC9D1202CAFD00C9B1B19B0
:1026F000013440E09C4200D38FE71F2C00D871E7E3
:1027000020248AE72B230C9A135501349EE7013EBF
:10271000D5E7631E012C00D185E70F9A102A20D03F
:10272000022A25D01C00ABE7BB060DD478230C9AF7
:1027300001241370A4E7202C00D187E758220C9BBA
:102740001B191A70013499E758230C9A012413704D
:1027500096E70C9A60330124137091E72024002639
:102760005BE7023CBA06E9D40C9A12191C0083E715
:102770000C9A9246534462221A707FE710B50028E3
:1027800000D110BD01F01EFBFBE7C0460B0010B5E9
:10279000002802D049681B68984710BDF0B5DE4696
:1027A000574645464E46E0B59BB09B46249B0A9053
:1027B0009846259B0B910C924046424619009A463A
:1027C000FFF7A5FA002800D0E8E001224046514674
:1027D0007F4B5242FFF796FA002800D0DEE001223C
:1027E000404651467B4B5242FFF776FA002800D014
:1027F000D4E00022002340465146FFF76DFA00283E
:1028000000D0CAE15346C14609938023289ADB00D1
:102810001A400E92289A1A4201D1062326934C465A
:10282000099B234300D0D9E0289B002600271B05E5
:1028300000D4AEE100230D93269B19000D9B994215
:1028400000DCB0E1C81A431E26938023289ADB00DF
:102850001A430023002528920D93279B0024AB42A6
:1028600000D95C1B0223289A1A400E92289A134220
:1028700003D06B426B415B421C400D9B002B07D089
:102880004846099932003B00FFF7C5F98146099196
:102890000022002340465146FFF71EFA002805D0CB
:1028A000802000068446099961440991289A4A4B80
:1028B0000A9E13404A460493269B0B990293099B58
:1028C00003940092019330005B460C9A884600F016
:1028D000A1F90400002D72D0289B220098061F2326
:1028E000C017984341465B466530B0470D9B671C57
:1028F000DA179C18DB0F98466B1E9946002554404A
:1029000001E0202D13D00AAA94461F23200063441F
:102910000A2101355E19FEF731FF30313170200098
:102920000A21FEF72BFF26000400092EE9D8052313
:1029300006934B460593002304930A3303934346BF
:102940003A000A9E0B9F029312AB009339005B463C
:1029500030000195FFF72AFE0E9B0400002B2ED0BD
:102960000C9B279AC51AAA4229D93C008146984651
:102970001700434621005A1920205B460135B04715
:10298000AF42F6D84C460C992798631A01330022BF
:10299000984200D30AE10134141910E0289B424602
:1029A0000493279B0B990393269B0A980293534603
:1029B000009201935B460C9A00F02CF90400200071
:1029C0001BB03CBC90469946A246AB46F0BDC04603
:1029D000FFFFEF7FFFFFEFFFFFF7FFFF764B099D44
:1029E0009C466800400D6044FFF7A2F9734A744B9F
:1029F000FFF72FF9734A744BFFF704F92B03734A5F
:102A00001B0B1A4306000F00714B110048460022B1
:102A10000995FFF7EEF86F4A6F4BFFF71AF90200BE
:102A20000B0030003900FFF7EDF8FFF799F90D9032
:102A3000FFF77EF9694A6A4B04000D00FFF709F9B8
:102A40000022684BFFF7DEF8FFF78AF9664A0600B6
:102A5000664B20002900FFF7FCF8040030000D0051
:102A60000F96FFF765F9624A624BFFF7F2F8020032
:102A70000B0020002900FFF7BCF802000B00060045
:102A80000F00FFF7E6F8320004000D003B003000B5
:102A90003900FFF7B7F8002210901191564B200033
:102AA0002900FFF7B8F80022544BFFF7ABF80200FB
:102AB0000B0020002900FFF7AEF80022504BFFF773
:102AC000A1F802000B0020002900FFF7A4F80D0078
:102AD000802132003B000400C9050020FFF789F87F
:102AE00002000B0020002900FFF78CF802000B0009
:102AF00010981199FFF78FF80022344BFFF782F8F6
:102B0000404A0F9B9446634400221B05FFF7A1F83F
:102B100006000F0002000B0048460999FFF7DCF899
:102B200000280AD00D9B3000013B39000D93002294
:102B3000324BFFF770F806000F00C6250D993300E1
:102B400063318D42AD4128996D420435090500D4A9
:102B500083E63B4300D16FE6099C484621002A4AA0
:102B60002A4BFFF7C7F8002808D00022484621006A
:102B7000274BFFF7B1F8002800D05DE6269B002B1D
:102B800000D16AE60E9B5A1E9341269AD31A2693C9
:102B900063E6002304250D935FE680231B06534460
:102BA000C146099331E6002326934EE60A00844687
:102BB000013A6244121BEEE601FCFFFFFB799F50D5
:102BC0001344D33FB3C8608B288AC63F0000F03F50
:102BD0000000F83F61436F63A787D23F71A3790973
:102BE0004F930A400000E03F1655B5BBB16B024061
:102BF000EF39FAFE422EE63F00002C400000244050
:102C000000001840FF0300002D431CEBE2361A3F82
:102C100080842E41F0B54E46DE4657464546E0B527
:102C200097B09946209E219F229B83469846079104
:102C30000C923B00320030003900FFF768F80028A2
:102C400000D0C1E1012230003900CA4B5242FFF7E7
:102C500043F8002800D0E0E0012230003900C64BE4
:102C60005242FFF74FF8002800D0B6E000223000B3
:102C70003900C24BFFF746F8002800D098E0002248
:102C800030003900BE4BFFF727F8002800D08FE056
:102C90000022002330003900FFF71EF8002800D082
:102CA000B0E000230D93249B5B0501D406239846D6
:102CB00008AB9C461722002430234146624404E0BE
:102CC000013413550139202C01D00929F8D8884640
:102CD00030003900FFF744F84346DA00A94B0500FD
:102CE0009B181A685B6808920993FFF721F80200A5
:102CF0000B0030003900FEF77CFF089A099BFEF7B5
:102D0000A8FF0A900B91FFF74FF88246FFF70CF8E7
:102D100002000B000A980B99FEF76BFF00229A4BFA
:102D20000A900B91FEF7EEFF002800D1C0E00123CE
:102D30009C46E2445046FEF7F7FF02000B0008985D
:102D40000999FEF7CFFF002802D000239A460135EB
:102D50004346002B69D008AB17269C46089566446D
:102D6000554614E001235B4243440A2128009A4659
:102D7000FEF704FD013430313719397028000A217B
:102D8000FEF7FCFC092D00D8D5E0D0460500202C2C
:102D9000E8D10323249A1340012B00D100E10EABAC
:102DA0009846249B01940393239B029343461EE081
:102DB000249B58460493239B009601970393434614
:102DC0000C9A029307994B46FFF7E8FC17B03CBCFE
:102DD00090469946A246AB46F0BD249B5B070ED4B5
:102DE00003226A4B24990192039123990291009343
:102DF00058464B460C9A0799FFF770FBE6E704220A
:102E0000634BEFE73B00320000200021FEF7F1FEAC
:102E1000012306000F000D9345E7249B0393239B9A
:102E20000293042301935B4BE1E72800FEF780FF48
:102E300002000B0030003900FEF7DBFE524B00228F
:102E400006000F00FEF748FF0EAB984600280AD197
:102E50000022300039004C4BFEF754FF002802D10D
:102E6000EB0700D50135202C32D008AA9446172351
:102E7000280063440A2101341E19FEF757FC303143
:102E8000280031700A21FEF751FC051EEBD1032307
:102E9000249A1340012B00D191E01F2C00D980E728
:102EA0000D9B002B3BD02D2342461355013478E770
:102EB00000220A980B99344BFEF70EFF002800D031
:102EC00046E75346002B67D101239C46E2443FE787
:102ED0000323249A1340012B00D062E7239B002B8D
:102EE00000D15EE70D9B002B03D1249A0C331342D3
:102EF00002D0239B013B2393239B9C42CDD208AB62
:102F00009C461722302362441F2C06D82399013493
:102F100013558C42C1D0202CF8D1202441E7249BAA
:102F20005B0721D4249B1B0700D43AE720234246A9
:102F30001355013435E75746089D202C37D0220021
:102F400030214046002F08D00132B154202A43D00E
:102F5000D3431B191B18002BF6D10EAB98462E231A
:102F60004146541C8B547EE72B23424613550134B3
:102F700017E7C046FFFFEFFFFFFFEF7F65CDCD41B5
:102F800065CDCDC1206C00100000E03F286A001024
:102F90002C6A0010386A0010DB0700D4D8E693E7EB
:102FA000239B002B00D1FAE60EAB98469AE7032349
:102FB000249A1340012B00D0F1E60EAB9846239BD8
:102FC000002B00D169E78DE7249B0393239B029399
:102FD00003230193064B0AE70323249A202413407A
:102FE000012B00D0DBE6239B2024002BDCD1D6E68E
:102FF000346A0010F0B5DE464E4657464546E0B509
:103000009FB01C00289B93460993CF4ACF4B89461B
:1030100008901A60002900D116E2002320789A4611
:10302000002800D118E226001D004C460AE02A00C4
:103030006F1C5B46089D2100A8473D000136307893
:1030400000287AD02528F2D110239A46083B9946C9
:10305000043B9846023B00219C46721C10781600E7
:103060000300203BDBB2102B03D8B94F9B00FB5869
:103070009F460300303B092B3CD900230A932A28A2
:1030800000D171E0002398462E2847D00300683B0A
:10309000DBB2122B1FD8AF4A9B00D3589F460123A7
:1030A00001321943DAE7634601321943D6E7434652
:1030B00001321943D2E7534601321943CEE74B465A
:1030C00001321943CAE770786C2800D1BFE280232F
:1030D0005B00194301360300253BDBB2532BA6D816
:1030E0009D4A9B00D3589F4680235B00707819430C
:1030F0000136F0E700270300B800C0190136400090
:10310000C018337830381A00303A0700092AF3D94A
:103110000A901800002398462E28B7D18023707893
:10312000DB0019430300303B721C092B00D895E1EA
:103130002A2800D1A6E11600A8E7A146AA462C003D
:10314000D34503D801235B425B449A465B46524613
:1031500049460020089DA84720001FB03CBC90466F
:103160009946A246AB46F0BD099B40CB0A96002E7D
:1031700003DB50780993561C84E7283801437042DA
:103180000A9009935078561C7CE7782800D1D4E146
:10319000582800D168E26F2800D152E3622800D19C
:1031A000D8E110230A009A430B92692801D000F05D
:1031B000A2FC0A230C934B0500D4D5E101230B9A02
:1031C0009A430B92692800D1CEE1642800D1CBE16B
:1031D0000B9A802311009B0019408A461A4200D0A6
:1031E00032E3802311005B00194089461A4201D066
:1031F00000F002FC13005B0600D510E30B9B1B06DE
:1032000001D400F06EFC099B04CB1204120C924610
:1032100009935346002B00D064E30B9A103311003E
:1032200099430B91520500D45CE3002399460B9B14
:1032300006930A9B0593434604930C9B0393002338
:10324000DEE27078682800D107E280230136194356
:1032500041E780239B007078194301363BE74628FD
:1032600000D174E10722099B0491073393430A9A22
:1032700019000392424602920CC9089800920193E9
:1032800009912A005B462100FFF7C4FC01360500C6
:10329000D5E6099B1A0008CA9146002B00D105E12A
:1032A000212211438A460EA884461F2161440995B4
:1032B00000220F27A4460D0002E0202A0CD00B00AC
:1032C0003C001C4020003730092C00D80738013260
:1032D000A85419090F2BF0D86446099DF0E08B071C
:1032E00000D4D1E1099B2A0099466B1C98464B46B5
:1032F00001CB21009946089F5B46C0B2B8470A9BA4
:103300009C466544012B00D890E2B2465E46474693
:10331000A846089D3A003300013721002020A84725
:103320004745F7D1B3464B4656463D000993013613
:1033300085E62A006F1C5B46089D21002520A847D2
:1033400001363D007BE6C046F52F0010AC1E002084
:10335000406A0010846A0010D06A0010099B04CBF8
:10336000994643460992002B00D097E013789C467B
:10337000002B00D1B3E302235B425A1C099B924607
:1033800018000A9F0B92504402E0834200D169E189
:103390005A780133002AF8D1099A0A979B1A0B939D
:1033A00080230A00DB001A400C92194204D00B9BC8
:1033B000434501D943460B9302231A000A400D925C
:1033C0000B4200D184E16046002823D00C9B002BE7
:1033D00000D124E1A844C246099B57465B1B98468E
:1033E000089BB2462A0026005C469B4609E0230063
:1033F0003100551CD8474346585D002800D13FE1B5
:103400002A009742F3D1A3463D00340056460D9B57
:10341000002B69D00B9B0A99A846994264D98C4627
:103420006544ED1A089B47469A46B04626005C461E
:103430003A002300013731002020D047AF42F7D1B6
:10344000A346340046464FE0D24B20780893002331
:103450009A46002800D0E6E5002471E643460600BF
:103460000A9F9800C01801324000801916780300A6
:1034700030003038303B0928F3D930009846160028
:103480000A9703E6099B023604CB9046D243404696
:10349000D2171040804609933078F7E513789C46A0
:1034A000002B00D11AE34346013B66E710220800D7
:1034B00090431132104382460022490500D4F2E6BF
:1034C000534606930823059343460493102303931E
:1034D0000023029316AB019200932A005B46210061
:1034E0000898FFF763F805004B4601360993A6E5F7
:1034F000202302009A43472A04D180231B01194349
:1035000002239843452801D1202319430722099B10
:103510000491073393430A9A190003924246029298
:103520000CC908980092019309912A005B4621007A
:10353000FFF734F90136050081E510230C930C23C5
:103540000A009A430B924B0500D43BE636E6202353
:10355000194387E602230C930B910B996428EED153
:103560000B9B5B0500D529E60B9A802311009B007D
:1035700019408A461A4200D0CEE0802311005B0039
:10358000194089461A4200D0DBE113005B0600D5E2
:103590001DE10B9B09991B0600D499E208C91BB2D7
:1035A000D8171A18424092B209919246DA0F129235
:1035B000002B09D1802310220B99DB000B40914393
:1035C0000B91002B00D012E10B9A6123920600D5DB
:1035D00041230EA91F228C46DBB262440A3B5746A8
:1035E0001395A2464D460C9CB1460D9316000AE079
:1035F0003033DBB201357355A74200D21CE1202DD8
:1036000000D119E1070021003800FEF7B7F8CBB26E
:103610000929EDD90D9A94466344DBB2EAE7099B88
:103620005F465B1B98460A9BB3469A462600089C59
:103630002A003B003100A04743460135585D002871
:10364000F6D1534634000A935E46BB46DFE6C023FC
:103650009B00B078194302363DE5C023B07819438A
:10366000023638E50A979BE60C230A009A43143386
:103670001A4310230B920C934B0500D4A8E59DE54B
:10368000A34634005646C2E60A9A012A00D82EE222
:103690006B1E9F18089BB046994626005C462A0080
:1036A0002300013531002020C847BD42F7D1A34691
:1036B00034004646099B3A0001CB210098467D1C08
:1036C0005B46089FC0B2B847434601360993B6E44B
:1036D0000B9A0A98531C904200D80AE243199B1A8D
:1036E0001F00089BB24626005C469B462A0023002A
:1036F000013531002020D847BD42F7D10A9BA346AF
:1037000001330B93099B34001B7856469C46604658
:10371000002800D05AE6E7E60722099B07339343C7
:10372000013294469C4462465F6809921A68FB170E
:103730001093119310981199030053400E930B00AE
:103740007B400F9394460E9A0F9B121A8B410E9258
:103750000F93FB0F6246129300233A439A463DD0E3
:103760000B9A6123920600D541230022DBB20EA9F9
:103770000A3B8C4691460D9343461F326244139593
:1037800015964D460E9E0F9FA14690460C9C149395
:103790000FE0C046D92400103032D2B24346013582
:1037A0005A55BA4500D17CE1202D00D17CE10600BC
:1037B0000F002200002330003900FEF71DF8D2B2BE
:1037C000092AE9D90D9B9C466244D2B2E6E7FF2361
:1037D000099904C913401A000991E6E60B9A1033BF
:1037E000110099430B915205BAD5002399460B9BC2
:1037F00006930A9B0593434604930C9B0393129BE9
:1038000002934B46019316AB2A00009321005B46BE
:103810000898FEF7CBFE01360500FFF710FCFF22EB
:10382000099B02CB11408A460993F2E44B46454678
:1038300009930136FFF703FC4E465446A946139DF3
:10384000D5E708230C9387E60722099B07339343A8
:10385000013294469C44624609921A685B681000E3
:103860009A4613005246134307D10B9A10331100A6
:1038700099430B91520500D5D7E40B9A6123920628
:1038800000D541230022DBB20EA90A3B8C469146AB
:103890000D9343461F32624457461295A2464D4649
:1038A0000400B14690460C9E13930DE03032D2B224
:1038B000434601355A550023BB4200D1FDE0202D7F
:1038C00000D1FDE004000F00320000232000390089
:1038D000FDF792FFD2B2092AE8D90D9B9C466244BB
:1038E000D2B2E5E70B9A6123920600D54123DBB201
:1038F0000EA90A3B1F228C460D93230062445446B6
:10390000129517004D469A46B1460C9E08E030339A
:10391000DBB201357B55B4420ED3202D0CD0040010
:1039200031002000FDF72AFFCBB20929EFD90D9A0B
:1039300094466344DBB2ECE74E465446A946129DDA
:1039400075E4099B1A0008CAD91713925A184A40FD
:103950009146DA0F1292002B08D1802310220B9986
:10396000DB000B4091430B91002B2BD10B9A612371
:10397000920600D541230EAA1F279446DBB20A3BCC
:103980000D95674455460993A2464C46B1460C9E98
:1039900008E03033DBB201357B55B4420ED3202D25
:1039A0000CD0040031002000FDF7E8FECBB209295D
:1039B000EFD9099A94466344DBB2ECE74E4654468D
:1039C000AA460D9D0B9B2A0006930A9B2100059396
:1039D000434604930C9B08980393129B0136029371
:1039E0005346019316AB00935B46FEF7DFFD139B36
:1039F00005000993FFF723FB099B04CB9146129323
:103A0000002A08D1802310220B99DB000B40914340
:103A10000B91002B2BD10B9A6123920600D54123E9
:103A20000EAA1F279446DBB20A3B0D956744554604
:103A30000993A2464C46B1460C9E08E03033DBB2F7
:103A400001357B55B4420ED3202D0CD0040031003B
:103A50002000FDF793FECBB20929EFD9099A9446CD
:103A60006344DBB2ECE74E465446AA460D9D0B9BE1
:103A70002A0006930A9B21000593434604930C9B5E
:103A800008980393002302935346019316AB0093C7
:103A90005B46FEF78BFD129B050009930136FFF78D
:103AA000CEFAB44200D87FE6149B4C460E960F9790
:103AB000A9469846159E139D99E6A64200D8FEE6B3
:103AC000139B4E469846A9465446129DFFF7AFFBFE
:103AD00008C9D8171A184240099166E500230B93CC
:103AE0005EE4099B04CB92460993FFF792FB2F00FB
:103AF000E0E50B930BE6063B0C932EE500B585B095
:103B00000391012102900093034813004A4202A945
:103B1000FFF770FA05B000BD8D27001010B5094AF7
:103B20000300146884B0002C08D0012200910648DC
:103B3000524203A9A047012004B010BD00F08EF945
:103B40000020F9E7AC1E00207D27001000BEFDE735
:103B500010B5FFF7FBFFC04670B5FDF70FFD074C32
:103B6000074B9C4209D2013B1D1BAD080135AD003E
:103B70002D1908CC9847AC42FBD170BDE468001009
:103B8000EC680010030010B508001B68110098478E
:103B900010BDC046F8B54746CE4680B5437D070008
:103BA0000D001600002B37D000240020002A1EDD57
:103BB0004B1E98461B4B9946002C2BD043461B5D51
:103BC0000D3B5A425341DBB22A5D0A2A13D001341D
:103BD000A642F1DC864203DD311A3B68281898477B
:103BE000AD19013D2B780D3B5A4253413B750CBC3E
:103BF00090469946F8BD002BE9D1A04203DA211A7C
:103C00003B6828189847484602213B68013498478A
:103C10002000DDE73B7DD7E70368110028009847C7
:103C2000E5E7C046706C0010F0B5C6460C000968A8
:103C3000060000B5802906D04B1C2360641826714D
:103C400004BC9046F0BD0F4B1D68002D16D0231DFF
:103C500098460D4F02E02D69002D0FD02B68002BE8
:103C6000F9D03B68002B01D0AB42F4D1280041468B
:103C70002268FFF78FFF2D69002DEFD1012300216E
:103C8000DBE7C046A01A0020A81A0020F0B5DE46E7
:103C900057464E464546E0B585B017001C00060065
:103CA0000D00FDF75DFA0023314A12184B41002B3D
:103CB00059DB304908008A4602F0D6FD01906B1CA2
:103CC00003D1300002F052FD0500002C26D12A4B12
:103CD00098462A4B1C68002C15D0002F21D1284F64
:103CE00002E02469002C0ED02368002BF9D03B6839
:103CF000002B01D0A342F4D120002A003100C0479C
:103D00002469002CF0D1019B002B28D1280005B09C
:103D10003CBC90469946A246AB46F0BD194B98462E
:103D2000D7E7174B994602ABDF1D0A239B4602E0FB
:103D30002469002CE7D02368002BF9D04B461B6880
:103D4000002B01D0A342F3D12A0031002000C0474C
:103D50005B460122390020003B70C047E8E750462F
:103D600002F042FDD2E70122074B5242A1E7C046D2
:103D700040420F0040110020853B0010A01A002097
:103D8000A81A0020953B0010FFFFFF7F0A4A136826
:103D9000002B05D10CE01A001B691032002B07D054
:103DA0009842F8D1002902D103691360016170477C
:103DB0000029FCD01060FAE7A01A002010B500F02E
:103DC00003FB10BDF0B5CE46474680B583B06B46C9
:103DD0000500DE1D3070FDF7C3F900231A4A1218E2
:103DE0004B41002B2CDB19490800884602F03CFDB2
:103DF000174B07001C68002C16D0164B994602E0A2
:103E00002469002C10D02368002BF9D04B461B6886
:103E1000002B01D0A342F3D1200001223100FFF793
:103E2000B9FE2469002CEED1002F05D1280003B083
:103E30000CBC90469946F0BD404602F0D5FCF5E733
:103E40000122054B5242CEE740420F0040110020B4
:103E5000A01A0020A81A0020FFFFFF7F70B5040001
:103E600002F084FC01230100050001222000FFF77D
:103E70000DFF084B1C68002C06D06368002B05D092
:103E800098472469002CF8D1280070BD2469002CC3
:103E9000F3D1F9E7A01A0020F0B5CE46474680B529
:103EA000A5B004000D00FDF75BF900232A4A1218A3
:103EB0004B41002B49DB294E300002F0D5FC00239A
:103EC0000700039322002B00254803A9FFF716FEE5
:103ED000039B8046002B14D1224B1C68002C06D07B
:103EE0006368002B0BD098472469002CF8D1002F71
:103EF00027D1404625B00CBC90469946F0BD2469B8
:103F0000ECE7184B1D689946002D22D0164C02E0B4
:103F10002D69002D11D02B68002BF9D02368002BC0
:103F200001D09D42F4D1039B28001A0004A90193FB
:103F3000FFF730FE2D69002DEDD14B4603951C682F
:103F4000CCE7300002F050FCD3E70122074B52428D
:103F5000B1E70395CBE7C04640420F004011002077
:103F6000293C0010A01A0020A81A0020FFFFFF7FA4
:103F70000FB400B583B004A901C90191FFF78CFF0C
:103F800003B008BC04B018477047C0460022014B7C
:103F90001A707047011F00204B790020FF2B0BD1B6
:103FA0008B79002B08D1CB79012B05D1082A03D9B5
:103FB0008A78024B09301A707047C046011F0020F2
:103FC0000120704710B5012909D11549537910799D
:103FD00009781B0203430020994202D010BD012042
:103FE000FCE75378012B08D0022BF7D10020642284
:103FF0000021FDF711FA0120F0E7D37891781B0238
:104000001943DB0507D54A0A100001231A407E3305
:104010001940FDF783FA01204A0A4042F5E7C046FD
:10402000011F002000487047946C001070B5050017
:1040300014000120012909D153780020012B05D15A
:10404000637912791B021343072B00D070BD210046
:104050002800024A9F3301F04BFAF7E7B86C0010D2
:104060000123037000487047746C00104A780B7885
:1040700012021A438B7810B51B041A43CB781B0627
:1040800013439622D200934200D010BD002201209B
:1040900011004042FDF742FA024B1860024B1960D2
:1040A0007047C046401A0020441A002010B5024B49
:1040B0001878FCF757FA10BD021F0020154B70B599
:1040C0001A68002A22D0EFF3108172B61068002817
:1040D000FCD0BFF35F8F00220F48596002701B684D
:1040E000BFF35F8F1A6081F31088002400250B4E08
:1040F0003078FCF72BFA002804D100240025290091
:10410000200070BD3078FCF72DFAF8E7FA2400257E
:10411000A400ECE7B81E0020031F0020021F0020AF
:1041200070B5040000200E0001F006FB002835D019
:10413000002001F019FB002830D0FDF711F8002312
:10414000184A12184B41002B24DB174D280002F0AF
:104150008BFB002822D0002001F0EEFA00280BD1C2
:10416000012000210324404200F006FD64422800A3
:1041700002F03AFB200070BD002001F0F5FA0028A3
:10418000EED021003200002001F0FAFA041EEED138
:10419000033CECE70122054B5242D6E7032464427C
:1041A000E8E7C04640420F00E01E0020FFFFFF7F0F
:1041B00010B5FCF7D5FF00230E4A12184B41002B17
:1041C00013DB0D4C200002F04FFB00280CD0012027
:1041D0000021404200F0D0FC002001F01DFB00282F
:1041E000F5D1200002F000FB10BD0122034B52422A
:1041F000E7E7C04640420F00E01E0020FFFFFF7FC0
:10420000F8B5DE46574680B505000C00FCF7A8FF60
:104210000023364A12184B41002B5ADB3449080060
:104220008A4602F021FB002803D10CBC92469B4633
:10423000F8BD002001F080FA00284ED00026002CA6
:1042400043DD2C4B9B4614E0A919002001F020FB14
:10425000070001200021404200F08EFC002001F008
:10426000DBFAFCF77DFF234BF61918605960B44266
:104270002BDD002001F02EFBA71B0200B84200DD61
:104280003A00002AE0D101200021404200F074FCF5
:10429000002001F0C1FA002001F04EFA002814D0ED
:1042A000002001F017FB0028E1D1FCF759FF5B4625
:1042B0000F001A685B68002184460F4812184B41B2
:1042C0009F4202D8D3D19445D1D9504602F08CFAFE
:1042D000ABE70122094B5242A0E700200021054B29
:1042E00018605960504602F07FFA9EE740420F0086
:1042F000E01E0020C812002020A10700FFFFFF7F62
:1043000030B52A4C85B00021200002F08DFA00283B
:104310001CD1274B1A68002A16D0EFF3108172B611
:1043200010680028FCD0BFF35F8F0124214859603A
:1043300002781B68D2B20470BFF35F8F0020186050
:1043400081F31088002A17D005B030BD012000216C
:10435000404200F011FC002001F006FA05002000A8
:1043600002F042FA002DEFD0134B1B68002BEBD06C
:10437000124A10689847E7E7FCF7F2FC0400FCF7E4
:10438000EFFEFA220023920012184B41002B09DBAA
:104390000121029100210191094920000091FCF7BF
:1043A000E3FCD1E70122074B5242F1E7E01E002077
:1043B000B81E0020031F0020401A0020441A0020CD
:1043C000BD400010FFFFFF7FD02310B51B0684B057
:1043D0001C68FCF7C5FCFCF7BDFDA04202D0002024
:1043E00004B010BD284B1B7801F0A6FD27480368D8
:1043F000002B41D00120FCF739FAFF23244C25493A
:1044000020701840FCF7CCF820780121FCF78CF8DC
:104410000520FCF7AFF8002821D1082200211E4812
:10442000FEF74EF8FCF79CFC0400FCF799FEFA221C
:104430000023920012184B41002B20DB0121029136
:1044400000210191154920000091FCF78DFC002806
:10445000C5DB13480121FFF799FC0120C0E70120CB
:10446000FCF732F801000C48FCF764FA0022052042
:104470000C49FCF7BFF8ECE7FCF740FABAE7012279
:10448000094B5242DAE7C046AC6F0010E01E002034
:10449000021F002001430010B81E0020BD40001084
:1044A00000110020AD400010FFFFFF7F0048704763
:1044B000006E001000487047AC6D001070B504002D
:1044C00016480378002B20D0002C06D1C1241448B4
:1044D000144BA4004380048070BD052C1CD8124BE3
:1044E0000F48A400E558811C002304E001330A8032
:1044F0000231132B0DD0EA5CDCB2002AF6D1C023C6
:10450000013464009B001C43E5E7112100F016F81C
:10451000DAE7CA24A400DEE70020DDE7E81E002079
:10452000781A002009040000146E001010B502482B
:1045300000F0E2F810BDC046D01E002030B54B1E82
:10454000012900D1B0E06B4A11780D112C003034F4
:104550009F2900D9ABE00470012B00D1C7E00F21E7
:10456000147821400C003034092900DDA1E04470AA
:10457000022B00D1BBE051780D112C0030349F2963
:1045800000D999E08470032B00D1B0E00F2154785A
:1045900021400C003034092900DD8FE0C470042B69
:1045A00000D1A4E091780D112C0030349F2900D95E
:1045B00087E00471052B00D199E00F219478214008
:1045C0000C003034092900DD7DE04471062B00D158
:1045D0008DE0D1780D112C0030349F2900D975E081
:1045E0008471072B00D182E00F21D47821400C0088
:1045F0003034092900DD6BE0C471082B00D176E06E
:1046000011790D112C0030349F2964D80472092BC4
:1046100000D16CE00F21147921400C0030340929BD
:104620005BDC44720A2B62D051790D112C003034BE
:104630009F2955D884720B2B59D00F2154792140D2
:104640000C00303409294DDCC4720C2B4FD0917909
:104650000D112C0030349F2900D9073404730D2B21
:1046600045D00F21947921400C003034092901DD17
:1046700037310C0044730E2B39D0D1790D112C0039
:1046800030349F2900D9073484730F2B2FD0D17970
:104690000F220A4011003731092A01DC30321100A3
:1046A000C173102B23D010300023037030BD0734AA
:1046B00051E737310C005AE7073463E737310C0014
:1046C0006CE7073475E737310C007EE7073487E77E
:1046D00037310C0090E7073498E737310C00A0E73A
:1046E0000734A7E737310C00C4720C2BAFD1C018C8
:1046F000DAE7C046D01E002030B5002589B004009E
:104700000922002101A80095FDF7DAFE0922002107
:1047100005A80495FDF7D4FE4B236A46684613703E
:1047200004A90D2202F058F815210822200069443E
:10473000FDF7CCFE09B030BDF8B500F041F90C230F
:104740001A4DFF22AB6705201949FBF753FF194C9F
:10475000402200212000FDF7B3FE40270023012660
:10476000002221201449667063802783E276A160CD
:104770000B6022545F306084453810492254104A3F
:1047800063602787A262E16013606362E16202F006
:1047900063F880239B052E64EB649023094AEA505A
:1047A0008022094B5202DA64F8BDC0460000115065
:1047B0001D050020AC1A002084001050000110508C
:1047C0008000105010D001000020115010B50121C0
:1047D0000520FBF7A9FE10BD10B5002200210248FC
:1047E00000F00EF910BDC046CC1A0020044B197021
:1047F000002904D080219023024A8902D1507047B9
:10480000FD1E0020002011500B785B0602D14B7872
:10481000052B00D070478A78014B1A60FAE7C04632
:1048200000001150F0B5C64600B5CC7888780A79FA
:104830004B797F21A40701401B02C50913434F0098
:10484000A20F1400324E7A195201B2189070012052
:104850006840507000205B055B0DD0701383D476E8
:104860008046CA00012D33D02A488446880162441C
:104870008446B4446046826040461060002933D0CC
:10488000254AC90090466246414451603F223F3369
:104890009343022C00D15B0020487A190168520131
:1048A000B218D1601E4ACB18036051405340802299
:1048B00088465201934228D84346A4061C438023CD
:1048C0007F197F011B06F6191C4373681C6011E0F9
:1048D00014488446880162448446B4446046826237
:1048E00040461060002909D100236D0176197360DC
:1048F0000D4BF360012004BC9046F0BD084AC9008E
:104900009046624641445162C0E7FCF731FED3E76E
:10491000AC1A00208400105004001050B41E002077
:1049200000001050800010500001105010B501F030
:1049300093FF10BD10B57F200C0020404000E4091B
:10494000110000191A00034B4001C01800F058F87C
:10495000012010BDAC1A00207F23180010B50840BC
:104960000B420BD0C9098022400040180649400183
:1049700040181201002101F08FFF10BD0223034AED
:10498000C9095B1A9366EEE7AC1A002000201150AB
:104990007F23180010B508400B4200D110BD002342
:1049A0004000C90941180448490140180022034940
:1049B000C37001F071FFF1E7AC1A0020FFF7FFFFB1
:1049C00080220A4B520410B51A60094B09491A603B
:1049D00010000B689843FBD1802200215201064849
:1049E000FDF76EFD0922054B5A6710BD00E000403F
:1049F00000F0004008C000400000105000001150BE
:104A000070B5837E04000D001600002B19D1002321
:104A10002100E3820133A682A3762561A01C1B310D
:104A200001F012FF002804D080219023084A890257
:104A3000D150200001F0E8FE002805D001232377A3
:104A400070BD01F021FFE2E7200001F015FFF7E75C
:104A5000002011507047C0467047C0460020704784
:104A6000002070477047C0467047C0467047C04638
:104A70007047C046024B5878431E9841C0B27047F9
:104A800018160020024B18784007C00F7047C04628
:104A900018160020F8B54746CE4680B52B4F804605
:104AA0003B780120FF2B03D00CBC90469946F8BD03
:104AB000002154222648FDF703FD0022254C264BF9
:104AC00020001A70FBF71AFF244B1C60244C2000B6
:104AD0001430FBF721FF200001F0F4FD214B224DA3
:104AE0001C60224B002B04D02800FFF7B9FA204BA2
:104AF000186020490024002389462A781C4E10E0C3
:104B00003268630194466344002B12D05B68002B2B
:104B10000FD098472A780134E4B2511C2300A142F7
:104B200009DBA242ECD89B1A5B014B445B68002B6B
:104B3000EFD10020B8E7434640463B70FFF7FCFD4D
:104B40004046FFF743FE0120AEE7C0463411002087
:104B500018160020D0150020FE1E00206C16002024
:104B60001811002070160020FC1E0020614000106B
:104B7000EC120020306F0010F0B5DE4657464E466E
:104B80004546E0B5BF4B8BB01B78FF2B00D126E12B
:104B9000BD4B07AC9A46BD4B9B4653461D686A69A0
:104BA000EFF3108172B61368002BFCD0BFF35F8F58
:104BB000A9612800210001F0CFFB6A69AB69BFF34E
:104BC0005F8F0021116083F31088002800D106E177
:104BD0006378082BE1D85A469B00D3589F466368F8
:104BE000002BDAD0A0689847D7E77F232179A84D1A
:104BF0000B405800CA092D18AD182A000126303282
:104C00001079B043107110790336B0431071002B46
:104C100000D1EDE09F4A2B7D1278934200D3DBE078
:104C20009D4A5B011268D318002B00D1D7E09D6923
:104C300062792078A368A847AFE7984A1378002BD9
:104C400000D1CCE01378013BDBB213701378002B5A
:104C5000A3D101228E4B01211B788D4813438C4A2E
:104C60008B4D13703423D25C8A43C254C25C04203F
:104C70008243EA540133EA5C8A43EA54EA5C8243A1
:104C8000EA5423780020994600F098FC60222379AA
:104C90001A40602A0DD0402A00D1B4E0DB06DB0EBA
:104CA000012B00D102E1022B00D1C6E0002B00D184
:104CB000B5E020780021FFF74FFE80212078FFF734
:104CC0004BFE6AE7724D2B78DB0700D465E7FFF7F0
:104CD000CFFE62E76E4BDB78DB0700D45DE76068F0
:104CE000FFF7BAFE59E76A4D2B78DB0700D454E78B
:104CF00028780007C00FFFF7B9FE4EE76849654DF9
:104D00008946654900230026884627782A7810E0DE
:104D100042461268730194466344002B66D0DB68F8
:104D2000380098472A780136F6B2511C33008E427B
:104D30003CDC9642ECD39B1A5B014B44EFE75849AD
:104D4000544D8946544900230026884627782A78FE
:104D500010E042461268730194466344002B20D051
:104D6000DB68380098472A780136F6B2511C3300C8
:104D70008E4205DCB242ECD89B1A5B014B44EFE754
:104D8000434D542200212800FDF79AFB1022FF21F9
:104D9000281DFDF795FB28002022FF211430FDF788
:104DA0008FFB00F001FCFFF75FFEF6E6384D542262
:104DB00000212800FDF784FB1022FF21281DFDF7AC
:104DC0007FFB28002022FF211430FDF779FB00F043
:104DD000EBFB2379AB70E0E6501C98420EDA0BB087
:104DE0003CBC90469946A246AB46F0BD284DEEE746
:104DF00062792078A36800F0F5FBCEE69B1A284A7A
:104E00005B01D31813E7274800F0D8FB012148467F
:104E100008AAFFF70BF9002800D0BEE649E7202AD0
:104E200000D149E1002A00D043E76379092B00D97A
:104E30003FE71D4A9B00D3589F467023217A0B42BF
:104E400000D036E77F25124B0D406D00CF095B196E
:104E5000DB191E7D0F4B1B789E425DD3581CB04260
:104E600000DA45E1F61A0E4B76019E19002A00D1B0
:104E700042E1706900F0A2FB01214846736908AA6B
:104E80009847C8E73411002070160020886E001083
:104E900018160020FC1E0020EC120020FE1E002030
:104EA000306F00102D400010AC6E0010237A0F2BD5
:104EB00000D9FEE6D44A9446D44A63441B7912785A
:104EC000934234D3511C994200DAF2E6D04D9B1A3A
:104ED0005B01ED18686900F071FB012148466B69C0
:104EE00008AA9847002800D057E6602215002379C9
:104EF0001D401A4200D0DCE663790A3B012B00D941
:104F0000D7E600F05BFB63790A2B00D150E14846FD
:104F100008A900F0D5FA40E6BE4B76011B689E1941
:104F2000002A00D1E8E0002E00D1C2E6A1E7B94A8C
:104F30005B011568ED18002D00D1BAE6CAE7B24B47
:104F4000A6795B789E42E2D0AF4B5B78002B00D015
:104F500066E1AD4B5E70002E00D151E1701EC0B213
:104F6000FFF7A8FA002800D146E143780493022B0A
:104F700000D041E10121C2790700931152110B4089
:104F80000A4012015B0113439F4A2F3112780937FF
:104F90008A4313439C4A1370C37882781B021343DD
:104FA000C31802939B4B9846029BBB4200D808E172
:104FB00001227B7800920B2B04D1FB7800933B7885
:104FC000FF187B78042B00D016E1029B0026DB1B28
:104FD0009BB203938D4B1D78002301931BE0424647
:104FE00012687301D518002D00D105E1390048463B
:104FF000039A2B6998470590082803D9039A82429F
:1050000000D3E1E0814B01361D78F6B26B1C0196AE
:105010009E4200DDF0E0B542E1D8019B5D1B7C4B78
:105020006D019C466544E1E7774B06AA5B78023246
:1050300013704846012308A900F05AFAADE5E0884C
:10504000030AC0B20F2B00D933E673499A008A587D
:10505000974608A800F0B8FA4846A179FFF7BCFBCC
:105060000222694B1B781343674A137095E5E38866
:10507000012B00D01DE60822634B1B789343624A44
:10508000137044E70220604B197806AB9A1C8B061C
:105090008908DB0F01400B4313804846022308A90F
:1050A00000F026FA79E5E388012B00D001E608221A
:1050B000554B1B781343E2E7237A0F2B00D9F8E511
:1050C000514A9446514A63441B791278934228D23C
:1050D000504A5B011568ED18002D00D1E9E56869BB
:1050E00000F06CFA012148466B6908AA984792E6DD
:1050F0000026002A00D0DCE502226379984693431B
:10510000012B17D04346002B00D0D2E53E4B06AA18
:105110009C466544EF1930373B7902329B07DB0F21
:10512000BAE7511C994200DAC3E5394D9B1A5B017D
:10513000ED18D4E7E388002B13D14346012B25D08B
:10514000364B1878FFF708FC2F4B02229C4665442B
:10515000EF1930373B79134301223B713B791343FD
:105160003B71002E00D118E5706900F027FA7369D1
:1051700008AA012148469847002000F01FFA35236D
:10518000214AD35CDB0700D507E5C0E6234B18783E
:10519000FFF7FEFB1C4B02229C466544EF1930379B
:1051A0003B79934342463B713B7993433B71D8E74C
:1051B00006AB9A1C4846012308A9157000F098F91F
:1051C000EBE4FFF74FFCA2E6009B012B00D184E04B
:1051D000009B002B70D00023B97805E016710133D5
:1051E000009ADBB2934267D207485A188446D2B27B
:1051F00062441079FF28F1D00023034A537058E528
:10520000FFF732FC83E6C04618160020FC1E002083
:10521000306F0010EC120020D46E0010341100200A
:1052200000214846FFF7E2FA4846FFF77FFB434B71
:10523000434D9B78434900930027002388462A78F2
:1052400010E0424612687B0194466344002B21D053
:10525000DB68484698472A780137FFB2511C3B006B
:105260008F4207DCBA42ECD89B1A374A5B0194465E
:105270006344EDE7542200213048FDF721F92F4B1C
:105280001022FF21181DFDF71BF92022FF212F48B6
:10529000FDF716F9294B009A9A705AE6FEF7C2FEFE
:1052A000021E00D105E5D37891781B020B434846D6
:1052B00008A900F01DF9AEE5059D33002A0039006C
:1052C000224800F0BFFEAC461D4B019A1B78674494
:1052D0000133934200DB67E68EE71D4B2A699A4251
:1052E00000D078E7049B009375E7FFF7B7FB021E39
:1052F00000D1DEE44846137808A900F0F9F88AE501
:105300002189FFF7DBF8021EF4D1D2E4022B0FD083
:10531000FFF7A6FB021EC6D1CBE4FFF7C7F8021EBB
:1053200000D1C6E41223484608A900F0E1F872E56E
:10533000FFF7C0F8021EB6D1BBE4C0461816002025
:10534000FC1E0020EC120020306F00102C160020F4
:10535000DD590010F8B557464E46DE4645460C006E
:10536000E0B516001F00002A3CD0702398461E4B63
:1053700000259B461D4B9A461AE05B461B78200091
:1053800099465346997800F021FE00281CD0210050
:105390004846FFF747FA002816D0A378DA09012A11
:1053A00019D00A9A013513702378E418B54219DA36
:1053B0006378052B08D1E3789B079B0FBB4203D191
:1053C0004246A3781A42D8D000203CBC9046994669
:1053D000A246AB46F8BD0B9A013513702378E4184A
:1053E000B542E5DB0120F0E734110020181600205B
:1053F000702270B58B780C001A4201D0002070BD6D
:10540000064B20001D78064B997800F0DFFD002840
:10541000F4D021002800FFF705FAF0E7341100204E
:10542000181600200B007F20064A184010B5DB0933
:10543000116834334200D018034B181800F082FD75
:1054400010BDC0466C160020181600200B007F20EF
:10545000064A184010B5DB09116834334200D018F1
:10546000034B181800F096FD10BDC0466C160020C6
:105470001816002070B57F240C4060000E4CCD093A
:1054800024186419303425790020ED0700D570BD4B
:10549000012625790948354300782571FFF74AFA36
:1054A0000028F4D101222379934323712379033215
:1054B00093432371EBE7C0461816002034110020F7
:1054C00070B50A4E0500082230000C00FCF7FEFF04
:1054D000002161560023C943C90F2800F360002250
:1054E000C901B360FFF7C6FF70BDC046BC15002000
:1054F000F8B5CE4647469046294E80B581460822EB
:1055000030000D001F00FCF7E1FF4346B3600023AD
:10551000F381EC79AB7924021C43231CBC4200D9F3
:105520003B1C9FB2B381002C12D0002F1ED04346EB
:10553000002B32D03B1C402F1ED89FB233787F2BDC
:105540001FD80021174A3B004846FFF793FF09E0A8
:10555000002169560023C943C90F00224846C901EA
:10556000FFF788FF0CBC90469946F8BD33787F2B37
:1055700010D980210022E6E740239FB233787F2BA9
:10558000DFD9084C3A0041462000FCF79FFF8021FC
:105590002200D8E700210022D5E70020E2E7C0463C
:1055A000BC150020D815002010B514220021024897
:1055B000FCF786FF10BDC046BC150020014B1861EA
:1055C0007047C046BC15002010B5054C01000822EC
:1055D0002000FCF77BFF0023A360E36010BDC04602
:1055E000BC150020F8B5394C1D0023780600DA09F7
:1055F000C9098A4210D00020002D00D0F8BD21003A
:105600003000FFF701F92369002B41D0220003216C
:10561000300098470120F1E77F2B06D8A0680028CA
:1056200038D02A002A49FCF751FFA368E2895919AA
:105630005219E38892B2E281A160934214D03F2DC7
:1056400012D9A589A81A071C80B240282ED8237821
:10565000BFB27F2B2CD80021AA4234D01C4A3B0079
:105660003000FFF707FFC9E72369002B05D02200B0
:1056700002213000984700280ED0002161560023F7
:10568000C943C90F00223000C901FFF7F3FEB5E797
:105690000120B3E70020B1E700213000FFF75CF9FB
:1056A00030008021FFF758F90120A7E74027CEE717
:1056B000AA4207D0064C3A002000FCF707FF8021E1
:1056C0002200CCE780210022C9E7C046BC1500209B
:1056D000D815002070B50400FFF7CCF9002802D1DE
:1056E0000025280070BDFFF7CDF9051EF8D1E3783D
:1056F000002BF5D026001036300000F017FE3F28B2
:10570000EED90020E178FFF78DFE0028E8D03000C8
:1057100000F00CFE3F2809D992239B00E2180020DC
:105720004023E178FFF7A6FE0500DAE7E1780020E4
:10573000FFF78CFED5E7C04610B50400FFF79AF9D5
:10574000002801D1002010BDFFF79CF90028F9D1F5
:10575000B220800044430348001903790120184017
:10576000F1E7C046F4120020B2239B00584310B565
:10577000024B1030C01800F0BBFD10BDF412002029
:10578000F0B5B226B60046433500C6461F4F204B43
:105790001035040000B57D199A4200D91D4A280031
:1057A00092B200F027FE8046FFF764F9002803D18B
:1057B000404604BC9046F0BDFFF764F90028F7D1DD
:1057C000B2239B005C433C19E378002BF0D0280007
:1057D00000F0ACFD3F28EBD90020E178FFF722FE76
:1057E0000028E5D0280000F0A1FD3F2809D9922328
:1057F0009B00F218E1784023BA180020FFF73AFE28
:10580000D6E7E1780020FFF721FED1E7F41200206F
:10581000FEFF0000FFFF0000F8B50400FFF72AF9C3
:10582000002801D10020F8BDFFF72CF90028F9D19C
:10583000B220800044432500144E2435AD192800C1
:1058400000F056FD0028EDD037190020B978FFF799
:10585000E9FD0028E6D0A2239B009C466444A419DD
:1058600021002800402200F0C5FDB978051E08D0AF
:10587000030022000020FFF7FDFD0028D2D0280001
:10588000D1E70020FFF7E2FDCCE7C046F41200208C
:1058900070B5B224A40044430B4B2434E4180B4BE2
:1058A00005009A4200D90A4A200092B200F05EFE3A
:1058B0000600200000F01CFD3F2801D8300070BD1C
:1058C0002800FFF7A9FFF9E7F4120020FEFF00000F
:1058D000FFFF0000B2239B00584310B5024B243059
:1058E000C01800F023FD10BDF4120020B222F0B564
:1058F00000251C4C83B0002120009200FCF7E0FD45
:10590000194B80261D70FF236371E1235B02A360A6
:105910002100082320007600A3733200A5813831CE
:105920000095073B103000F0ABFC21000123200064
:1059300039313200FF310093243000F0A1FC8E2376
:105940009B00E7183800FAF7D9FF90239B00E61870
:105950003000FAF7D3FFE56127622663656303B081
:10596000F0BDC046F4120020F0120020074B1A6A66
:10597000196B002A02D00022DA611A62002902D0D3
:1059800000221A635A6301207047C046F4120020B7
:1059900070B50F4C052200212000FCF791FD0D4D44
:1059A0002B78DA0707D50C4C9B070CD5012120007A
:1059B00000F0A8FE70BD2000103000F083FE2B78B0
:1059C000054C9B07F2D4200000F07CFEEEE7C046B9
:1059D000F4120020F012002018130020F0B5C64683
:1059E00000B54B79060082B0022B02D18B79022BD5
:1059F00005D00025280002B004BC9046F0BD224F1F
:105A0000BB78002BF5D18B7809253B700C780C19ED
:105A10006378242B0BD1082A02D80FE0AA420DD3B9
:105A20002378E418ED186378ADB2242BF6D0052B5B
:105A300008D0042B02D163790A2B11D03800FFF76C
:105A400049FED7E721003000FFF7D2FC0028D0D074
:105A5000A3787B702378ED18E4186378ADB2E8E79B
:105A6000237821009846094B0222019301330093C9
:105A7000300002234144FFF76DFC0028B9D00E35F9
:105A80004544ADB2DAE7C046F4120020F612002019
:105A9000F8B5602314001278050013400020202B75
:105AA00012D1304E6379277932781B023B439A42F8
:105AB0000AD16378222B28D007D8202B17D0212B8E
:105AC00002D101293FD00120F8BD232BFCD10129AF
:105AD00041D00329F7D1244B002BF4D0E178A378EF
