:020000041000EA
:1000000000B5324B212058609868022188439860DF
:10001000D860186158612E4B002199600221596106
:100020000121F02299502B49196001219960352056
:1000300000F044F80222904214D00621196600F024
:1000400034F8196E01211966002018661A6600F04E
:100050002CF8196E196E196E052000F02FF8012189
:100060000842F9D1002199601B49196000215960AB
:100070001A491B48016001219960EB211966A021F2
:10008000196600F012F800219960164914480160C1
:100090000121996001BC002800D000471248134993
:1000A000086003C880F30888084703B5996A0420EC
:1000B0000142FBD001200142F8D103BD02B5186610
:1000C0001866FFF7F2FF186E186E02BD00000240BE
:1000D000000000180000070000035F00212200005C
:1000E000F4000018222000A00001001008ED00E03C
:1000F00000000000000000000000000074B24E7A12
:1001000000200420F7010010C3010010C5010010F9
:10011000C1010010C1010010C1010010C101001097
:10012000C1010010C1010010C1010010C701001081
:10013000C1010010C1010010C9010010CB01001065
:10014000CD010010CD010010CD010010CD01001037
:10015000CD010010CD010010CD010010CD01001027
:10016000CD010010CD010010CD010010CD01001017
:10017000CD010010CD010010CD010010CD01001007
:10018000CD010010CD010010CD010010CD010010F7
:10019000CD010010CD010010CD010010CD010010E7
:1001A000CD010010CD010010CD010010CD010010D7
:1001B000CD010010CD010010CD010010CD010010C7
:1001C00000BE00BE00BE00BE00BE00BEEFF3058054
:1001D000103800BEF2EB8871544700107C470010C5
:1001E0003802001090A31AE71E481F49086006C88D
:1001F00081F3088810471D480068002801D019487D
:10020000F3E70DA40ECC002902D000F012F8F9E7B4
:100210001749184A002000E001C19142FCD116495B
:100220008847164988471649884700BEFDE701C937
:1002300001C29A42FBD370477C470010C0000020E7
:1002400028030020E44900100000042000000420DE
:10025000E4490010001004200010042000000000F9
:10026000704700000000000008ED00E0000000D032
:100270002803002028070020993A0010A503001049
:10028000913A0010F8B5C0460448054B10B58342BA
:1002900003D0044B002B00D0984710BD280300204A
:1002A000280300200000000006480749091A8B10A7
:1002B000C90FC91810B5491003D0044B002B00D04A
:1002C000984710BD280300202803002000000000EC
:1002D00010B5074C2378002B09D1FFF7D5FF054B4C
:1002E000002B02D0044800E000BF0123237010BDA2
:1002F000A804002000000000C8430010054B10B502
:10030000002B03D00449054800E000BFFFF7CCFFF5
:1003100010BDC04600000000AC040020C84300101F
:10032000F0B5C64600B51C4982B01C4803F030FF4A
:1003300001210A2000F052F801210B2000F04EF8B4
:100340000121082000F04AF80121092000F046F8B8
:10035000092000F05DF86B46D0278024DD1D1423B2
:100360003F06A400BC622B706B469E1D0C4B98464A
:100370007B682342FCD1012332000021074803F0AF
:10038000D3FF29000122054803F0EEFF40462A78FA
:10039000317803F08FFDEBE750C30000000004400C
:1003A000C843001070B5D025802403F0A7FC0A488C
:1003B00003F0C8FE2D061920A40400F029F86C6291
:1003C000FA206C61400000F069FDFA20AC61400049
:1003D00000F064FDF4E7C0462103001010B540248E
:1003E000084A83009A181268C0005440C022224074
:1003F000054CA44663441A60044B9C46604441602B
:1004000010BDC04604C0014004D00140004001407E
:100410000123D02283404021120693629361094A4E
:1004200083009A181268C0005140C0220A40064951
:100430008C4663441A60054B9C4605236044436028
:100440007047C04604C0014004D001400040014054
:100450000FB400B5084883B003F0A2FC049B002B46
:1004600007D005A91800019103F0F8FA034803F03A
:1004700097FC012003F00AFBEC430010E843001056
:10048000F8B5EFF3108772B60E4E3368002BFCD030
:10049000BFF35F8FCB08C4180725A446C45C0123B3
:1004A0000D40AB4018002040234208D16246234350
:1004B0001370BFF35F8F306087F31088F8BD1000B2
:1004C000FFF7C6FF2C0100D0044A1078431CDBB2B2
:1004D000172B00D9102313707047C04670020020FC
:1004E0000021044B044ABFF35F8F02C39342FAD149
:1004F0007047C046000100D0800100D0054B064A7D
:100500001360064A136053609360D36013615361B4
:10051000936170478080808000E400E004E400E0A4
:100520001F2318401E3B8340002905D0C021044AE8
:100530004900535013607047802201498B50FAE7FD
:1005400000E100E001228240034B1B681340581E6B
:100550008341D8B27047C04600E100E070B50D009D
:10056000EFF3108672B60F4A1368002BFCD0BFF36E
:100570005F8F0D4B10309B6884001B590B4A9342D0
:1005800003D09D4201D000F085FF074B9B681D51B1
:10059000BFF35F8FBFF35F8F0022024B1A6086F3B9
:1005A000108870BD240100D000ED00E0CD010010E6
:1005B000F0B5DE4657464E464546E0B50C0083B0E2
:1005C000EFF3108972B65F4A1368002BFCD0BFF3BB
:1005D0005F8F5D4B9A68030010339F00D5595B4ACB
:1005E000904695423DD0A5424ED0594EAA1B2F2A87
:1005F00037D8584A9346126894460122614692467B
:10060000824011401F221040524682409246019182
:100610008022514658468150BFF35F8FEFF3058229
:100620009346002A32D101232A009A4390688442DB
:1006300008D17DE04B005B189B00F318986884425A
:100640002ED01A00062151560029F3DA84424ED0EA
:10065000019B002B1FD0C02251463E4B52009950A7
:100660001960394B9B68DD51BFF35F8FBFF35F8F1C
:100670000022344B1A6089F3108803B03CBC9046CA
:100680009946A246AB46F0BD1500EAE79342CAD0B0
:1006900000F000FFC7E7802351462E4AD150E0E723
:1006A00006215956002923DB4A00501880003418CF
:1006B0008046A0689860E079D8710620205698712D
:1006C000A0797F2825D8A488F01A6405241544440D
:1006D0000019E0240005400D2402204398805218A0
:1006E0001D4B9200B6181A781970B271B0E713005A
:1006F000594600290FD1FF3191711849918016494F
:100700000A789A71164A9B1B5B415A43120D0A7074
:100710009EE71448E2E7144A1449D21A083A5002F4
:10072000400D01439980124952080A43DA808FE74D
:100730000621515613000029B6DA5A46002AEAD19A
:100740004546DCE7240100D000ED00E0CD010010BB
:100750007402002000E100E02005002001BDFFFF41
:10076000AAAA000001BD0000AE02002000F0FFFFB9
:1007700000F8FFFFF0B501240443EFF30581EFF328
:10078000108672B6214A1368002BFCD0BFF35F8F2E
:100790001F4B05001F4AED1A6D416A43120D1E4D95
:1007A0008900AF6852B27F58A7421CD00621595623
:1007B00091421CD012215956914222D01E215956E5
:1007C000914220D02A2159560324914210D0134B34
:1007D00019781A708171BFF35F8F00220B4B1A607A
:1007E00086F31088F0BDAB680D4C5C50EFE7002439
:1007F0006100091989005B18FF21997109499980E5
:10080000E5E70124F4E70224F2E7C046240100D022
:1008100074020020AAAA000000ED00E020050020DC
:10082000CD01001001BDFFFF024B9C4661448900D1
:100830000160704740000034F8B5134D134E2C0092
:10084000FF27B5421ED22368002B0FD0FFF73CFED6
:1008500001002800FFF7E8FFA780BFF35F8F08348F
:10086000B4420FD223682500002BEFD1FFF72CFEF6
:1008700001002800FFF7D8FF2771BFF35F8F08340E
:10088000B442EFD3F8BDC04618030020280300206F
:100890000A4B1968EFF3108072B60A68002AFCD080
:1008A000BFF35F8F1B68BFF35F8F00221A6080F376
:1008B000108840BF002000217047C0461805002066
:1008C000F0B5DE4657464E464546E0B585B0EFF3F7
:1008D0000582032313409A0011000392B74A52582D
:1008E000904601229A40B64B91461A6033E0434647
:1008F0009B881BB2002B00DB9FE043469B79002BBB
:1009000000D0F1E0434608241C5F002C00DA19E116
:1009100042465269630094461B19DB0063449C689D
:10092000DD68631C00D115E1A648A64B84469A6A8F
:10093000039BA01A634419001B699B1A984200D2BA
:100940000C61A04800F03EFB241A8D41002D00DD13
:10095000F8E000D12EE14B469A4843634346082213
:100960009B5E9A46002BC2DB424652695B0093466F
:100970005344DB009B445B469E68DF6800F022FB2B
:10098000801BB9410029B2DB002F00DAEDE05B46A5
:100990008D4A1B69934200D1E0E041465A46082047
:1009A000085E5288000410435A4651699847040073
:1009B0000D0023002B4300D1D7E0002D00DBF0E039
:1009C000361BAF4134003D005B469C60DD6000217A
:1009D000595E00298BDB43465B6922009C462B0055
:1009E00048004018C00060448668C768921BBB413D
:1009F000002B00DA7BE7434666460200009401952F
:100A000019810CE07B00DB19DB00F31800980199D9
:100A10009C68DD68001BA941002904DB1A00002343
:100A2000D75E002FEEDA5B461F80534613804346A5
:100A30009B881BB2002B00DA5FE743461A69EFF38D
:100A4000108172B61368002BFCD0BFF35F8F434652
:100A50009B8842461BB29A4601235B4293801369EE
:100A6000BFF35F8F00221A6081F310885346002B7A
:100A700000DA42E743465B699C46082343449B46B1
:100A800053465F0043465744FF0008229A5E67447E
:100A90005E46BC68FD68002A19DB3B0000940195A6
:100AA00067469C4604E01E000023F25E002A0BDB32
:100AB0000098019953009B18DB00FB189C68DD68C7
:100AC000001BA9410029EEDA6346BC461F005346CD
:100AD000338000217B5E3A809A46002BD0DA434671
:100AE0009B79002B00D10DE70023424693714346CA
:100AF00046460821595E08364B1C23D047468C4693
:100B0000556902E006004B1C17D04B005B18DB0058
:100B1000E8180A00E95E43881BB2002BF2DA0123D1
:100B20005B42DC178360C4609445ECD031803B8924
:100B3000944603803A814B1CE7D16446B846002CAA
:100B400000DBE5E640BF05B03CBC90469946A246B6
:100B5000AB46F0BD6B1C00D0E6E6F2E65B465C6996
:100B6000200023699847002821D15B4642461B8814
:100B700013811269EFF3108372B611680029FCD05B
:100B8000BFF35F8F4246594652880A80424651461B
:100B900051801269BFF35F8F0021116083F31088C9
:100BA000A5E6084800F00EFA24184D410CE76568E8
:100BB0002468FEE6002C00D1CDE6C3E70405002042
:100BC0003C70054000400540C108001070B52E4C37
:100BD0002569002D04D00A212C48FFF725FE70BDA1
:100BE0002B4E0321300000F0E3F9E660FFF76CFCC8
:100BF000284B03229C46D02322701B061B68012130
:100C00006370254B6044A3600F23800020610220A5
:100C1000638063694942A180198002311986473196
:100C20001D83585218315A5275325C399952183214
:100C300001319952183201319952183201319952C9
:100C4000083518329D52023118329952183201314A
:100C50009952183201319952183201319952183291
:100C6000013199521832013199520C4B0C49DC6018
:100C700001303562FFF772FC01210320FFF750FCC1
:100C8000084B1D60A7E7C046BC02002018050020E5
:100C90000040054040000034FFFF10000405002024
:100CA000C108001038600540F0B501000469EFF399
:100CB000108772B620680028FCD0BFF35F8F022037
:100CC0000D5E48696C0084466419E4006444002D9C
:100CD00001DB208848800869BFF35F8F002606602B
:100CE00087F31088002D2EDBE360638805980133BD
:100CF00020615B0406985B0CA26060611A1C002BEB
:100D00001FD090B22B04628018430A69EFF310865B
:100D100072B61368002BFCD0BFF35F8F8B882380E3
:100D20008D800B69BFF35F8F00221A6086F31088F5
:100D30000B7801329A40CB6804498C4663441A60B0
:100D4000F0BD0122DDE701204042F9E73C20000030
:100D500030B543890A14934233DD53009B1842692E
:100D6000DB00944604696344EFF3108572B6226891
:100D7000002AFCD0BFF35F8F5A88090494B2090C93
:100D80008A4208D00369BFF35F8F00221A6085F39F
:100D90001088002030BD8022120214435C800123A1
:100DA00002698371BFF35F8F0021116085F31088A2
:100DB000054902788C469340C26801206244136062
:100DC000E8E70020E6E7C0463C200000F0B504005C
:100DD0000D0006267642F717C64636196F4100B554
:100DE00082B08F4214D811D000F0F4F832003B00EA
:100DF000121A8B41002B15DC002B44D02000290057
:100E000000F01CF902B004BC9046F0BD8642EBD95C
:100E10000026002700F0DEF832003B00121A8B415A
:100E2000002BE9DD00F0D6F832003B00121A8B41AE
:100E3000002B0ADB00230193144B3200009314486B
:100E40003B00FFF731FF0028D8DBB0460026BC4648
:100E5000104A114F7B6A9C4504D8B96A8845CDD9A0
:100E60009C45CBD11168EFF3108072B60B68002B54
:100E7000FCD0BFF35F8F1368BFF35F8F1E6080F3FA
:100E8000108820BFE6E7002AB8D0CBE79108001011
:100E9000BC020020180500200040054070B5060087
:100EA00000F098F8FA2204000D0000233000002121
:100EB000920001F041FA00196941002902DBFFF7B5
:100EC00085FF70BD012001494042F8E7FFFFFF7F29
:100ED000F0B5CE46474680B504000D0083B0EFF371
:100EE0000587002F3BD12F4E81463378F2680433BB
:100EF0009B00916A9B58421A5B1A9A420ED320BFFC
:100F0000294A0020536AAB4203D3926A01309145CB
:100F10003CD803B00CBC90469946F0BD00F05AF89E
:100F200022002B00121A8B41002B26DB1F4B2200C4
:100F3000009330002B000197FFF7B6FE011E1CDD69
:100F4000194BA8465A6A954225D920BF3000FFF7B1
:100F5000FFFE154A0020536A9845DAD8D5E7124AB1
:100F60000020536A8B42D4D3926A0130A242D0D27D
:100F70005B1A581E8341D8B2CBE70B4A0020536A54
:100F8000AB42C6D3926A01209145C2D9EB1A581ED2
:100F90008341D8B2BDE79B6A9C42D7D99542D5D14F
:100FA000D3E7C046BC020020004005409108001075
:100FB00010B5024A0248FFF763FA10BDFC43001067
:100FC000CC0400200300416A0A00986A596A8A42E8
:100FD000FAD17047034B596A0A00986A596A9142DC
:100FE000FAD170470040054070B504000D00124A68
:100FF000536A1900966A536A8B42FAD1300019007D
:1010000024184D41AB4211D80ED02B000A494A6A30
:101010009A42FCD307D1084A02E0516A994202D1B0
:10102000916AA142F9D370BDA642EED901230124F1
:101030006442E5175B42E9E700400540064A536A0F
:101040009942FCD807D1044B02E05A6A914202D17E
:101050009A6A8242F9D3704700400540F8B504000F
:1010600006200D0000F074F9002843D0364B3749B4
:10107000E3185A4253418022D20394465B42134004
:10108000334A63441360334A136018000A6890437C
:10109000FBD12D4B8021E3185A4253412E4A5B006D
:1010A00049000620995200F053F92900C00000F0D1
:1010B0000BFB0130C3091ED1402701226262A362EB
:1010C000266BF30722D4E36A244B0620E51800239D
:1010D0002B60266300F03CF93900800000F0F4FA40
:1010E0007022E36A5A407E2313402B601C4B23631B
:1010F0000323A364F8BD1B4A93421ED900231A4A56
:101100001A4F6262A362266BF307DCD5184B144AB0
:10111000E3181A60656AA36A0620AD01ED1800F0B5
:1011200017F9144900F0D0FAAD020100280000F0D0
:10113000CBFA0021FFF758FFC5E74006800E9F015C
:101140001A003F180300B9E70080FCBF08C0004048
:1011500000E0004000F00040240500202C100000BA
:1011600001030000FEFF0000FFFF0000C0FF3F0082
:10117000303000004E0E0000F8B54E464546DE46C3
:101180005746E0B5884605000A991800160000F099
:101190009BFA0A9B6C001F02324B64199C46A40008
:1011A0006444636881469F4200D967602B1FDBB2AD
:1011B0009A46012B30D9C02380229B01E3181201EB
:1011C0001A60294BAD0059599B4600291BD1226852
:1011D00076017240E0268023164052465B01E318F8
:1011E0001E60012A30D9802380229B01E31812015E
:1011F0001A605B464A4667605A513CBC9046994625
:10120000A246AB46F8BD586900F05EFA431C580090
:10121000C0180338FDD2DAE74346012BCBD1C023F7
:1012200003229B01E3181A60023AA3681A42FCD019
:10123000226876015640E022802316400A4A5B016C
:101240009346E3181E60AD004246216851400322D8
:101250000A401A60012342469340A2681342FCD020
:10126000C1E7C04600800040D0040020F0B54646EB
:101270009846354B4F469C46D64644002418A40059
:1012800064446368C0B50F001600FF2B02D88023AA
:101290005B006360031FDBB29946012B31D9C02389
:1012A00080229B01E31812011A60284B85005959CE
:1012B0009A4600291CD1226876017240E0268023DC
:1012C00016404A465B01E3181E60012A30D980238C
:1012D00080229B01E31812011A6080235B004246C2
:1012E000636053465A511CBC90469946A246F0BDD5
:1012F000586900F0E9F9431C5800C0180338FDD2C2
:10130000D9E7012FCBD1C02303229B01E3181A6038
:10131000023AA3681A42FCD0226876015640E022C5
:1013200080231640094A5B019246E3181E6085003F
:101330000322216879400A401A600123BB40A26859
:101340001342FCD0C3E7C04600800040D004002018
:10135000014B8000C0587047D0040020F8B504004D
:10136000204817001D000E0000F0AEF90100380003
:1013700000F0AAF9069A2B04120313432268002AEC
:101380001FDB194AA21851424A41802149018C466B
:1013900052420A40154962440A6015490A601549DB
:1013A00017000D68AF43FBD1134A2660A118212214
:1013B000A0600A602268002AFCDAE36008230B6060
:1013C000F8BD3F2221680A40B242DAD1A268120574
:1013D000120D8242D5D1EE21E268C9020A409A423A
:1013E000CFD1EDE7001BB7000040FDBF00E000409B
:1013F00000F0004008C00040043000008023024A92
:101400009B000B43D362704700800540142310B546
:101410000100188804331B88984710BD162310B5A7
:101420000100188802331B88984710BDF0B5C646E6
:1014300000B5002916D0142304000125984618276A
:10144000890046184346216818883B88984701C49C
:10145000431E984140420540A642F3D1280004BCF7
:101460009046F0BD0125F9E7AA23064A1B01136047
:101470002F230549D360054B19605368002BFCDA14
:101480007047C0460040024000B0FA0000600240D1
:101490007047C04610B50148FEF7DAFF204400103F
:1014A00070B5074B074C9C4209D2013B1D1BAD0890
:1014B0000135AD002D1908CC9847AC42FBD170BD69
:1014C000C44300108843001070B5074B074C9C4282
:1014D00009D2013B1D1BAD080135AD00651908CCD3
:1014E0009847AC42FBD170BDC4430010BC43001010
:1014F000054B064A06491A60064A074B1A60100057
:101500000B689843FBD1704700E00040BFCDFBFE65
:1015100008C00040FE7F3C0000F00040044BDB6C44
:10152000002B03D18022034BD2021A607047C046C1
:10153000000011504C201150044A054B1A60054A16
:101540001368DB018033FBD17047C046FFFFFF010A
:1015500000F0004008C000404022034B9A675A67E1
:101560001A67DA667047C04600F0014010B5FEF712
:10157000B7FF10BD70B5044D044C2800C022A1680F
:1015800000F044FFA56070BD0000002000ED00E009
:10159000002310B5294C82B0A367FFF765FF012235
:1015A000274B1A60636C012BFCD10322254B1A6078
:1015B000224A936B012BFCD1013300930121224A73
:1015C00022480433FFF7CAFE052301210093204A75
:1015D0002048FFF7C3FE0022022104201E4BFFF724
:1015E00045FE0022012105201C4BFFF73FFE002293
:1015F000002107201A4BFFF739FE002200210820A6
:10160000174BFFF733FE8023DB00009300220021FD
:101610000920134BFFF7B0FD0022104B00210620DC
:10162000FFF724FE0420FFF793FE0E4900F04CF86C
:1016300001000020FFF7E2FE02B010BD0080004074
:101640003CB0004030B00040002F6859008002409C
:10165000008C864700C00240001BB700405973074A
:10166000006CDC0240420F0001480421014B184786
:10167000E00200202D140010124A936F9B0815D22F
:101680009066D166002905D0FFE7FFE7FFE7516FBD
:10169000106F704704B580210906C2175140002819
:1016A00000D0C84302F058FE002104BDF0B5146E0E
:1016B000556E576F166FFFF7E3FF14665566576751
:1016C0001667F0BD000000D0114A936F9B0813D23B
:1016D00010665166002905D0FFE7FFE7FFE7516F6D
:1016E000106F704704B5002801D00020C04302F0FD
:1016F00033FE002104BDC046F0B5146E556E576F21
:10170000166FFFF7E5FF1466556657671667F0BD5D
:10171000000000D094464A4A926F9208624601D275
:1017200028E0C046F0B5464E346E756E776F366F62
:1017300000F020F89446424A1466556657671667CB
:101740006246F0BD94463E4A926F9208624601D2CC
:1017500054E0C046F0B53A4E346E756E776F366F12
:1017600000F04CF89446364A14665566576716677B
:101770006246F0BD002B24DB11D000293EDA00B513
:10178000C943404200D1013100F038F8C94340421A
:1017900000D10131DB43524200D1013300BD002AA8
:1017A000EBD1002801D1002905D00020C90FC907BD
:1017B00001D1C043410800B502F0C6FD002200235C
:1017C00000BD00B500290ADBDB43524200D10133E2
:1017D00000F014F8C943404200D1013100BDC943B3
:1017E000404200D10131DB43524200D1013300F0CD
:1017F00005F8DB43524200D1013300BD002923D15B
:10180000002B18D1002A0CD0BC460D4F38667A66E2
:1018100000210023FFE7FFE7FFE77A6F386F674695
:101820007047002801D00748010000B502F08CFD88
:101830000022002300BD02000B00002000217047A1
:10184000000000D0FFFFFFFF002B00D0BFE0130C13
:1018500028D1002AE7D080B4114F39667A66FFE7B5
:10186000FFE730B4040C7B6F396F1B0423433B66E6
:101870007A66FFE7FFE7FFE7C04684B27B6F3D6F04
:101880001B0423433B667A66FFE7FFE7C04600235D
:101890002C042D0C7A6F386F00196941B0BC704769
:1018A000000000D0F0B594460025140E01D11202BC
:1018B0000835140F01D112010435940F01D19200A3
:1018C0000235D40F01D152000135D40B0134254F1C
:1018D0007C66254C3C660E0C93B2FFE7FFE7FFE702
:1018E0003C6F6643360C7703BE467343DF0B5B04E5
:1018F000C01AB941130C7343DB18C91ACE086643EA
:10190000360CB64493B273431F0F1B01C01AB94182
:10191000130C73431F0B1B05C01AB941860D8F02B0
:101920003E436643360C092D24DB520A7243801A6B
:101930007703460A6643360C16235B1BDE40DF4006
:10194000BF1964466643821B7046043506330100A6
:10195000D940A840C01900D30131A24206D20023C9
:10196000F0BD0000000000D0FFFFFFFF121B0130A0
:10197000F3D3F1E709277F1BFE406446A2B272430E
:10198000801A00D20139220C7243130C1204821AFD
:1019900099410B007046043513370100F940A84007
:1019A000801900D30131002B02D1A2420AD2F0BD2E
:1019B000013000D30131121BFAD2013BF8D1A2420F
:1019C00000D2F0BD013000D30131121BF7E7F0B5B2
:1019D0001C0C00D080E00CB400251C0A04D11B02B2
:1019E000160E3343120208351C0B04D11B01160FCF
:1019F0003343120104359C0B04D19B00960F3343F3
:101A000092000235DC0B02D192185B4101351C00BB
:101A1000971864410134464F7C66464C3C660E0C78
:101A2000FFE7FFE7FFE7C0463C6F6643360C7703EE
:101A3000BE4697B27743C01B00D20139C01B00D20B
:101A400001399FB27743C91BC91B170C77437E042A
:101A5000FF0B801BB941CE086643360C0C2D33DBDF
:101A6000B644120B1F053A431B0B97B27743C01BBA
:101A700000D201399FB27743C91B170C77433E044C
:101A80003F0C801BB941860D8F023E4366432927D8
:101A90007F1BFE400C3D7746AF40BF1930BCA2B261
:101AA000ABB272437343801A9941220C7243130CF8
:101AB0001204801A994102000B000137001BA94152
:101AC000F9D2781E0021F0BD0C277F1BFE4077461F
:101AD0007F0BAF40FF19E0E700245D1C07D0144FD7
:101AE0007D663966FFE7FFE7FFE7FFE73C6F95B2EA
:101AF0009EB265436643401BB141150C1E0C654305
:101B0000664336042F0C3E432D04401BB1419942DD
:101B100004D202000B0020000021F0BD01D1904250
:101B2000F7D3801A994101349942F2D3F6E70000C5
:101B3000000000D0FFFFFFFF48404140484018B47C
:101B40001B4B5B68FC46019308BD04DF0B1E0010B5
:101B500018B4174B1B68FC46019308BD00DF151E27
:101B600000109446134A926F920809D2624618B444
:101B70000F4BDB68FC46019308BD0CDFCD20001045
:101B80000C4AF0B5146E556E576F166F6246FFF72C
:101B9000EEFF084A1466556657671667F0BD18B41D
:101BA000034B9B68FC46019308BD08DF711F0010C2
:101BB00028050020000000D0FFB5504042405040B2
:101BC00059404B40594000E0FFB5154F4C00640DA3
:101BD00003D0BC4204D10C0314D80020090D090520
:101BE0005C00640D03D0BC4204D11C030AD800225F
:101BF0001B0D1B0501264B4009D44B4003D58B42DE
:101C000000D18242FFBD9942FCD19042FFBD0B43FF
:101C1000DB1803431343F5D0C9434918FFBD000047
:101C2000FF07000000B5FFF7CFFF804100BDC046B1
:101C300000B5FFF7C9FF01D9002000BD012000BD9C
:101C400000B5FFF7B9FF01D9002000BD012000BD9C
:101C500000B5FFF7B1FF804100BD012040054A00FB
:101C6000121804D85A00121801D800207047012019
:101C7000704700000021002805D17047C117484077
:101C8000401AFAD0C90713B5064B1B6898470CBC1D
:101C9000441CA2401005120B0349091B09051943F6
:101CA000114310BD140500201F04000010B54C00A6
:101CB000620D8023D218DB00D21A5B057E2A10DD6C
:101CC0009E3A13DACC170903490819435242D1400E
:101CD000640001341532202A05DAD04008436043FD
:101CE00010BD002010BD0846604310BDC80FC018CD
:101CF000013810BD18B4044B5B6AFC46019308BD63
:101D000024DF7D220010000028050020132370B579
:101D10001D78012D19D014DD2948FFF77FFB06003F
:101D20002848FFF77BFB284C80223100200000F080
:101D30006DFB022D06D02548FFF768FB244B186089
:101D400070BD214C234AA264F5E72E001E4C214AA7
:101D5000A3085B421E401D422FD03300226020208A
:101D6000B1006118801B0A604A608A60CA600A611B
:101D70004A618A61CA610A624A628A62CA620A6305
:101D80004A638A63CA630A644A648A64CA640A65E5
:101D90004A658A65CA650A664A668A66CA660A67C5
:101DA0004A674008102803D18A67CA67A264C2E75D
:101DB0001E339B00E250A264BDE70023CFE7C0467C
:101DC0005344000053460000280500204C33000017
:101DD00014050020D91D001007B5604601880A0AC5
:101DE0000230DF2AFAD1C9B2820804D302884088BF
:101DF0000004104300E00068014A5050039007BD02
:101E0000280500200FB403BC0CBCF0B50124E40786
:101E1000634000E0F0B50C0DCF0F661E3605891B40
:101E2000640503D3C943404200D30131640D03D09C
:101E3000661CF60A07D0E41B00207F00791C890786
:101E40008912803C24031D0DDF0F6E1E36059B1B7F
:101E50006D0503D3DB43524200D301336D0D03D034
:101E60006E1CF60A07D0ED1B00227F007B1C9B072F
:101E70009B12803D2D032F1B661B58D4A446202E99
:101E800046DA20371400BC401D00BD40F24033410B
:101E90002A4380185941CB0F05D0C943C0430022C3
:101EA00064425041514162464D0D28D10D0D07D17C
:101EB00000281FD0241940414941013A0D0DF9D0A5
:101EC000640006D3013000D30131002C01D1400859
:101ED0004000013A0BD4941CE40A04D112051144C9
:101EE000DB071944F0BDD907204B194300E0D9079F
:101EF0000020F0BD0029DDD1002CDBD1F0BD013286
:101F0000C6074008CD0728434908002EE1D0D9E78D
:101F10003C2E29DA203E40371400BC4000D001247A
:101F2000F24014431A00BB401C43D317ACE7AC4645
:101F3000202F08DA20360400B4400D00B540F840E8
:101F400039412843A5E73C2F0CDA203F40360400F6
:101F5000B44000D00124F84004430800B1400C43D1
:101F6000C117EAE710001900002494E70000F07F91
:101F7000F0B50C0D661E3605891BE60A6405640D76
:101F800002D0651CED0A04D0002001210905803C27
:101F90002403A4461C0D671E3F05DB1BE70A6405EE
:101FA000640D02D0651CED0A04D0002201231B053C
:101FB000803C24037740644497B484B296B274435F
:101FC000070C7E43150C6F4380B26843361802D36A
:101FD000012000043F183004350C00197D4184466F
:101FE00088B29AB250430C0C62431F0C7C438EB2F1
:101FF0007E43921902D301263604A4191604170C45
:102000003618674101BC81B29AB25143040C624355
:102010001B0C5C4380B25843121802D30120000409
:1020200024181004130C401863412D185E41002041
:10203000474106BC88B293B258430C0C6343120C60
:10204000544389B251435B1802D301210904641837
:1020500019041A0C091862416D18564100204741B5
:1020600018BCF902720D1143F0026A0D1043ED0223
:102070000A0D03D16D1940414941013B124E9B1B92
:102080007600B3420ED26D0007D3013000267141B5
:102090006646354301D1400840001B05C918E407D6
:1020A0002144F0BD0BDA013306D1013004D10131F6
:1020B0004F0D01D04908F2E7E1070020F0BD0136DD
:1020C00031050020EBE70000FF030000F0B51C0D18
:1020D000671E3F05DB1BE70A6405640D02D0661C22
:1020E000F60A04D0002201231B05803C2403D025DE
:1020F0002D060026F6432E661E096E66CE0FF619D3
:10210000B44649004F0D02D07E1CF60A03D00020D1
:102110000021403F3F033E1BB600B444013F7F0512
:10212000C91B49082E6F013676089C02950D254380
:102130007543ED137543AD1301356D10F603761B32
:102140000CB4CC02450D2C43A2B2B3B25A43270CB7
:102150007B43350C6F43A4B26C431B1902D301249B
:1021600024043F191C041D0CA4187D4124196D4141
:10217000009A91B2ACB26143170C7C432B0C5F43C5
:1021800092B25A43A41802D301221204BF182204A7
:10219000230C52187B41019C6C431B19520ED90130
:1021A0000A434401A01A81B2B2B2514303145A4304
:1021B000360C734387B27743D617D21900277E4176
:1021C00036049B191704160C7F185E417316ED1820
:1021D000F301002680337541A90F06D16400690A16
:1021E000E8055B0A184309D22FE0042294448033A7
:1021F0007541A90AA8059B0A184326D340414941C5
:102200002404009A019B0D005543641B4343E41AC8
:1022100095B286B27543170C7E43030C5F4392B2AE
:102220005A43B61802D301221204BF183204330CE9
:1022300052197B4152429C41002C02D400220130B1
:1022400051414008CA071043490802B06246D70707
:102250009210084BD218084B9A4203D212058918E3
:10226000C919F0BD0020002A01DC3900F0BD01339E
:102270001905F5E7FD030000FE070000002200B588
:10228000203200F004F8080000BD000000220B1509
:102290000AD410B5944600F031F81414013400DA71
:1022A0000021CB17144C20470020002170476244C6
:1022B000343A0CD40C2A07DA040091409040524280
:1022C0002032D440214310BDD843D94310BD203221
:1022D00007D40C469440524220321141D040204352
:1022E00010BD0800C917203203D4524220321041D9
:1022F00010BD1800190010BDAF2200100A0DCC0F40
:10230000531E1B05C91A520503D3C943404200D3CB
:102310000131520D03D0531CDB0A07D0121B0020E1
:102320006400611C89078912803A1203014BD21A9A
:1023300070470000FF03000051434343C9188C4617
:10234000110C83B24B4310B4040C614392B280B2BF
:10235000504362431C041B0C001910BC5941130468
:10236000120CC0185141614470470000132310B58E
:1023700012481C78FFF752F80100012C0AD003DD47
:1023800080220F4800F042F80E48FFF73FF80E4B4E
:10239000186010BD0A4C5422200000F037F80B4B97
:1023A0006365A365E36523666366A366E3662367E7
:1023B0006367A367E3672362E361E5E753460000D1
:1023C000280600204C33000014050020D123001003
:1023D00007B5604601880A0A0230DF2AFAD1C9B27D
:1023E000820804D3028840880004104300E000689B
:1023F000014A5050039007BD2806002001480421DF
:10240000014B1847F00200202D140010014B5B68AF
:1024100018470000F00200207047C046F8B5574644
:102420004E46DE464546E0B51F000A9B05009B462A
:102430000D9B0E00914692469B0718D10B9B0C9A60
:10244000934214D213000B9AB8469B1A4B444C4645
:102450000F0006001D0022004346013439002020F1
:10246000B047AC42F7D1AA4635003E0047460B9B29
:10247000002B38D09A441C00D04653461A1B5B46AA
:10248000013C185D31003B00A847002CF5D10D9BA5
:102490009B0721D543464A469C1A0C9BA3421BD955
:1024A0003A009A464F469146E2194B4631002020A9
:1024B0000134A8475445F7D343460C99DB1B01333D
:1024C000B9460022994203D343464A1E4A44D21ACF
:1024D000434690460133984440463CBC904699465A
:1024E000A246AB46F8BDD046D1E7C046F0B54F4650
:1024F0004646D646C0B584B098460EAB1B78129FB0
:10250000994694460D9C109B119EBA0725D4002E27
:1025100069D19C4200D3C2E001223A4092461F2C6E
:1025200000D9BBE00C9A551E302201E0202C03D0CC
:1025300001342A55A342F9D85246002A0DD0B4429C
:102540000BD21F2C62D80C9A551E302201E0202C91
:102550005CD001342A55B442F9D1FA0635D57A0552
:102560005DD4002C57D10F9B102B00D17CE00F9B2A
:10257000022B00D18DE030230C9A012413704B46BE
:10258000002B27D02D230C9A135501340C9B624647
:1025900000930397434602960194FFF73FFF04B070
:1025A0001CBC90469946A246F0BDBB0663D4202CC5
:1025B000ECD00C9B1A19013478231370202CE5D031
:1025C00030220C9B1B191A700134202CDED04B4694
:1025D000002BD7D17B0735D43B07D7D520230C9AC6
:1025E00013550134D2E7012215003D40AA463A4274
:1025F00020D04A46002A2AD10C323A4227D19C42A6
:102600009DD21F2C00D88DE7202E19D92024FA0640
:10261000BCD57A0503D4A3421BD0A64219D00F9B88
:10262000102BC2D0022BC9D1202CAFD00C9B1B1970
:10263000013440E09C4200D38FE71F2C00D871E7A3
:1026400020248AE72B230C9A135501349EE7013E80
:10265000D5E7631E012C00D185E70F9A102A20D000
:10266000022A25D01C00ABE7BB060DD478230C9AB8
:1026700001241370A4E7202C00D187E758220C9B7B
:102680001B191A70013499E758230C9A012413700E
:1026900096E70C9A60330124137091E720240026FA
:1026A0005BE7023CBA06E9D40C9A12191C0083E7D6
:1026B0000C9A9246534462221A707FE710B50028A4
:1026C00000D110BD01F020FBFBE7C0460B0010B5A8
:1026D000002802D049681B68984710BDF0B5DE4657
:1026E000574645464E46E0B59BB09B46249B0A9014
:1026F0009846259B0B910C924046424619009A46FB
:10270000FFF7ABFA002800D0E8E00122404651462E
:102710007F4B5242FFF79CFA002800D0DEE00122F6
:10272000404651467B4B5242FFF77CFA002800D0CE
:10273000D4E00022002340465146FFF773FA0028F8
:1027400000D0CAE15346C14609938023289ADB0092
:102750001A400E92289A1A4201D1062326934C461B
:10276000099B234300D0D9E0289B002600271B05A6
:1027700000D4AEE100230D93269B19000D9B9942D6
:1027800000DCB0E1C81A431E26938023289ADB00A0
:102790001A430023002528920D93279B0024AB4267
:1027A00000D95C1B0223289A1A400E92289A1342E1
:1027B00003D06B426B415B421C400D9B002B07D04A
:1027C0004846099932003B00FFF7CBF98146099151
:1027D0000022002340465146FFF724FA002805D086
:1027E000802000068446099961440991289A4A4B41
:1027F0000A9E13404A460493269B0B990293099B19
:1028000003940092019330005B460C9A884600F0D6
:10281000A1F90400002D72D0289B220098061F23E6
:10282000C017984341465B466530B0470D9B671C17
:10283000DA179C18DB0F98466B1E9946002554400A
:1028400001E0202D13D00AAA94461F2320006344E0
:102850000A2101355E19FEF737FF30313170200053
:102860000A21FEF731FF26000400092EE9D80523CE
:1028700006934B460593002304930A330393434680
:102880003A000A9E0B9F029312AB009339005B46FD
:1028900030000195FFF72AFE0E9B0400002B2ED07E
:1028A0000C9B279AC51AAA4229D93C008146984612
:1028B0001700434621005A1920205B460135B047D6
:1028C000AF42F6D84C460C992798631A0133002280
:1028D000984200D30AE10134141910E0289B4246C3
:1028E0000493279B0B990393269B0A9802935346C4
:1028F000009201935B460C9A00F02CF90400200032
:102900001BB03CBC90469946A246AB46F0BDC046C3
:10291000FFFFEF7FFFFFEFFFFFF7FFFF764B099D04
:102920009C466800400D6044FFF7A8F9734A744B59
:10293000FFF735F9734A744BFFF70AF92B03734A13
:102940001B0B1A4306000F00714B11004846002272
:102950000995FFF7F4F86F4A6F4BFFF720F9020073
:102960000B0030003900FFF7F3F8FFF79FF90D90E7
:10297000FFF784F9694A6A4B04000D00FFF70FF96D
:102980000022684BFFF7E4F8FFF790F9664A06006B
:10299000664B20002900FFF702F9040030000D000B
:1029A0000F96FFF76BF9624A624BFFF7F8F80200E7
:1029B0000B0020002900FFF7C2F802000B00060000
:1029C0000F00FFF7ECF8320004000D003B00300070
:1029D0003900FFF7BDF8002210901191564B2000EE
:1029E0002900FFF7BEF80022544BFFF7B1F80200B0
:1029F0000B0020002900FFF7B4F80022504BFFF72E
:102A0000A7F802000B0020002900FFF7AAF80D002C
:102A1000802132003B000400C9050020FFF78FF839
:102A200002000B0020002900FFF792F802000B00C3
:102A300010981199FFF795F80022344BFFF788F8AA
:102A4000404A0F9B9446634400221B05FFF7A7F8FA
:102A500006000F0002000B0048460999FFF7E2F854
:102A600000280AD00D9B3000013B39000D93002255
:102A7000324BFFF776F806000F00C6250D9933009C
:102A800063318D42AD4128996D420435090500D46A
:102A900083E63B4300D16FE6099C484621002A4A61
:102AA0002A4BFFF7CDF8002808D000224846210025
:102AB000274BFFF7B7F8002800D05DE6269B002BD8
:102AC00000D16AE60E9B5A1E9341269AD31A26938A
:102AD00063E6002304250D935FE680231B06534421
:102AE000C146099331E6002326934EE60A00844648
:102AF000013A6244121BEEE601FCFFFFFB799F5096
:102B00001344D33FB3C8608B288AC63F0000F03F10
:102B10000000F83F61436F63A787D23F71A3790933
:102B20004F930A400000E03F1655B5BBB16B024021
:102B3000EF39FAFE422EE63F00002C400000244010
:102B400000001840FF0300002D431CEBE2361A3F43
:102B500080842E41F0B54E46DE4657464546E0B5E8
:102B600097B09946209E219F229B834698460791C5
:102B70000C923B00320030003900FFF76EF800285D
:102B800000D0C1E1012230003900CA4B5242FFF7A8
:102B900049F8002800D0E0E0012230003900C64B9F
:102BA0005242FFF755F8002800D0B6E0002230006E
:102BB0003900C24BFFF74CF8002800D098E0002203
:102BC00030003900BE4BFFF72DF8002800D08FE011
:102BD0000022002330003900FFF724F8002800D03D
:102BE000B0E000230D93249B5B0501D40623984697
:102BF00008AB9C461722002430234146624404E07F
:102C0000013413550139202C01D00929F8D8884600
:102C100030003900FFF74AF84346DA00A94B0500B7
:102C20009B181A685B6808920993FFF727F802005F
:102C30000B0030003900FEF782FF089A099BFEF76F
:102C4000AEFF0A900B91FFF755F88246FFF712F896
:102C500002000B000A980B99FEF771FF00229A4BB5
:102C60000A900B91FEF7F4FF002800D1C0E0012389
:102C70009C46E2445046FEF7FDFF02000B00089818
:102C80000999FEF7D5FF002802D000239A460135A6
:102C90004346002B69D008AB17269C46089566442E
:102CA000554614E001235B4243440A2128009A461A
:102CB000FEF70AFD013430313719397028000A2136
:102CC000FEF702FD092D00D8D5E0D0460500202CE6
:102CD000E8D10323249A1340012B00D100E10EAB6D
:102CE0009846249B01940393239B029343461EE042
:102CF000249B58460493239B0096019703934346D5
:102D00000C9A029307994B46FFF7E8FC17B03CBCBE
:102D100090469946A246AB46F0BD249B5B070ED475
:102D200003226A4B24990192039123990291009303
:102D300058464B460C9A0799FFF770FBE6E70422CA
:102D4000634BEFE73B00320000200021FEF7F7FE67
:102D5000012306000F000D9345E7249B0393239B5B
:102D60000293042301935B4BE1E72800FEF786FF03
:102D700002000B0030003900FEF7E1FE524B00224A
:102D800006000F00FEF74EFF0EAB984600280AD152
:102D90000022300039004C4BFEF75AFF002802D1C8
:102DA000EB0700D50135202C32D008AA9446172312
:102DB000280063440A2101341E19FEF75DFC3031FE
:102DC000280031700A21FEF757FC051EEBD10323C2
:102DD000249A1340012B00D191E01F2C00D980E7E9
:102DE0000D9B002B3BD02D2342461355013478E731
:102DF00000220A980B99344BFEF714FF002800D0EC
:102E000046E75346002B67D101239C46E2443FE747
:102E10000323249A1340012B00D062E7239B002B4D
:102E200000D15EE70D9B002B03D1249A0C33134293
:102E300002D0239B013B2393239B9C42CDD208AB22
:102E40009C461722302362441F2C06D82399013454
:102E500013558C42C1D0202CF8D1202441E7249B6B
:102E60005B0721D4249B1B0700D43AE7202342466A
:102E70001355013435E75746089D202C37D02200E2
:102E800030214046002F08D00132B154202A43D0CF
:102E9000D3431B191B18002BF6D10EAB98462E23DB
:102EA0004146541C8B547EE72B2342461355013474
:102EB00017E7C046FFFFEFFFFFFFEF7F65CDCD4176
:102EC00065CDCDC1B84600100000E03FC044001001
:102ED000C4440010D0440010DB0700D4D8E693E7C8
:102EE000239B002B00D1FAE60EAB98469AE703230A
:102EF000249A1340012B00D0F1E60EAB9846239B99
:102F0000002B00D169E78DE7249B0393239B029359
:102F100003230193064B0AE70323249A202413403A
:102F2000012B00D0DBE6239B2024002BDCD1D6E64E
:102F3000CC440010F0B5DE464E4657464546E0B557
:102F40009FB01C00289B93460993CF4ACF4B8946DC
:102F500008901A60002900D116E2002320789A46D2
:102F6000002800D118E226001D004C460AE02A0085
:102F70006F1C5B46089D2100A8473D000136307854
:102F800000287AD02528F2D110239A46083B99468A
:102F9000043B9846023B00219C46721C10781600A8
:102FA0000300203BDBB2102B03D8B94F9B00FB582A
:102FB0009F460300303B092B3CD900230A932A2863
:102FC00000D171E0002398462E2847D00300683BCB
:102FD000DBB2122B1FD8AF4A9B00D3589F46012368
:102FE00001321943DAE7634601321943D6E7434613
:102FF00001321943D2E7534601321943CEE74B461B
:1030000001321943CAE770786C2800D1BFE28023EF
:103010005B00194301360300253BDBB2532BA6D8D6
:103020009D4A9B00D3589F4680235B0070781943CC
:103030000136F0E700270300B800C0190136400050
:10304000C018337830381A00303A0700092AF3D90B
:103050000A901800002398462E28B7D18023707854
:10306000DB0019430300303B721C092B00D895E1AB
:103070002A2800D1A6E11600A8E7A146AA462C00FE
:10308000D34503D801235B425B449A465B465246D4
:1030900049460020089DA84720001FB03CBC904630
:1030A0009946A246AB46F0BD099B40CB0A96002E3E
:1030B00003DB50780993561C84E72838014370429B
:1030C0000A9009935078561C7CE7782800D1D4E107
:1030D000582800D168E26F2800D152E3622800D15D
:1030E000D8E110230A009A430B92692801D000F01E
:1030F000A2FC0A230C934B0500D4D5E101230B9AC3
:103100009A430B92692800D1CEE1642800D1CBE12B
:103110000B9A802311009B0019408A461A4200D066
:1031200032E3802311005B00194089461A4201D026
:1031300000F002FC13005B0600D510E30B9B1B069E
:1031400001D400F06EFC099B04CB1204120C9246D1
:1031500009935346002B00D064E30B9A10331100FF
:1031600099430B91520500D45CE3002399460B9BD5
:1031700006930A9B0593434604930C9B03930023F9
:10318000DEE27078682800D107E280230136194317
:1031900041E780239B007078194301363BE74628BE
:1031A00000D174E10722099B0491073393430A9AE3
:1031B00019000392424602920CC9089800920193AA
:1031C00009912A005B462100FFF7C4FC0136050087
:1031D000D5E6099B1A0008CA9146002B00D105E1EB
:1031E000212211438A460EA884461F216144099575
:1031F00000220F27A4460D0002E0202A0CD00B006D
:103200003C001C4020003730092C00D80738013220
:10321000A85419090F2BF0D86446099DF0E08B07DC
:1032200000D4D1E1099B2A0099466B1C98464B4675
:1032300001CB21009946089F5B46C0B2B8470A9B64
:103240009C466544012B00D890E2B2465E46474654
:10325000A846089D3A003300013721002020A847E6
:103260004745F7D1B3464B4656463D0009930136D4
:1032700085E62A006F1C5B46089D21002520A84793
:1032800001363D007BE6C046352F001000050020CA
:10329000D84400101C45001068450010099B04CB61
:1032A000994643460992002B00D097E013789C463C
:1032B000002B00D1B3E302235B425A1C099B9246C8
:1032C00018000A9F0B92504402E0834200D169E14A
:1032D0005A780133002AF8D1099A0A979B1A0B935E
:1032E00080230A00DB001A400C92194204D00B9B89
:1032F000434501D943460B9302231A000A400D921D
:103300000B4200D184E16046002823D00C9B002BA7
:1033100000D124E1A844C246099B57465B1B98464E
:10332000089BB2462A0026005C469B4609E0230023
:103330003100551CD8474346585D002800D13FE175
:103340002A009742F3D1A3463D00340056460D9B18
:10335000002B69D00B9B0A99A846994264D98C46E8
:103360006544ED1A089B47469A46B04626005C46DF
:103370003A002300013731002020D047AF42F7D177
:10338000A346340046464FE0D24B207808930023F2
:103390009A46002800D0E6E5002471E64346060080
:1033A0000A9F9800C0180132400080191678030067
:1033B00030003038303B0928F3D9300098461600E9
:1033C0000A9703E6099B023604CB9046D243404657
:1033D000D2171040804609933078F7E513789C4661
:1033E000002B00D11AE34346013B66E71022080098
:1033F00090431132104382460022490500D4F2E680
:1034000053460693082305934346049310230393DE
:103410000023029316AB019200932A005B46210021
:103420000898FFF763F805004B4601360993A6E5B7
:10343000202302009A43472A04D180231B01194309
:1034400002239843452801D1202319430722099BD1
:103450000491073393430A9A190003924246029259
:103460000CC908980092019309912A005B4621003B
:10347000FFF734F90136050081E510230C930C2386
:103480000A009A430B924B0500D43BE636E6202314
:10349000194387E602230C930B910B996428EED114
:1034A0000B9B5B0500D529E60B9A802311009B003E
:1034B00019408A461A4200D0CEE0802311005B00FA
:1034C000194089461A4200D0DBE113005B0600D5A3
:1034D0001DE10B9B09991B0600D499E208C91BB298
:1034E000D8171A18424092B209919246DA0F1292F6
:1034F000002B09D1802310220B99DB000B40914354
:103500000B91002B00D012E10B9A6123920600D59B
:1035100041230EA91F228C46DBB262440A3B574668
:103520001395A2464D460C9CB1460D9316000AE039
:103530003033DBB201357355A74200D21CE1202D98
:1035400000D119E1070021003800FEF7BDF8CBB229
:103550000929EDD90D9A94466344DBB2EAE7099B49
:103560005F465B1B98460A9BB3469A462600089C1A
:103570002A003B003100A04743460135585D002832
:10358000F6D1534634000A935E46BB46DFE6C023BD
:103590009B00B078194302363DE5C023B07819434B
:1035A000023638E50A979BE60C230A009A43143347
:1035B0001A4310230B920C934B0500D4A8E59DE50C
:1035C000A34634005646C2E60A9A012A00D82EE2E3
:1035D0006B1E9F18089BB046994626005C462A0041
:1035E0002300013531002020C847BD42F7D1A34652
:1035F00034004646099B3A0001CB210098467D1CC9
:103600005B46089FC0B2B847434601360993B6E40B
:103610000B9A0A98531C904200D80AE243199B1A4D
:103620001F00089BB24626005C469B462A002300EA
:10363000013531002020D847BD42F7D10A9BA3466F
:1036400001330B93099B34001B7856469C46604619
:10365000002800D05AE6E7E60722099B0733934388
:10366000013294469C4462465F6809921A68FB17CF
:103670001093119310981199030053400E930B006F
:103680007B400F9394460E9A0F9B121A8B410E9219
:103690000F93FB0F6246129300233A439A463DD0A4
:1036A0000B9A6123920600D541230022DBB20EA9BA
:1036B0000A3B8C4691460D9343461F326244139554
:1036C00015964D460E9E0F9FA14690460C9C149356
:1036D0000FE0C046192400103032D2B24346013503
:1036E0005A55BA4500D17CE1202D00D17CE106007D
:1036F0000F002200002330003900FEF723F8D2B279
:10370000092AE9D90D9B9C466244D2B2E6E7FF2321
:10371000099904C913401A000991E6E60B9A10337F
:10372000110099430B915205BAD5002399460B9B82
:1037300006930A9B0593434604930C9B0393129BA9
:1037400002934B46019316AB2A00009321005B467F
:103750000898FEF7CBFE01360500FFF710FCFF22AC
:10376000099B02CB11408A460993F2E44B46454639
:1037700009930136FFF703FC4E465446A946139DB4
:10378000D5E708230C9387E60722099B0733934369
:10379000013294469C44624609921A685B681000A4
:1037A0009A4613005246134307D10B9A1033110067
:1037B00099430B91520500D5D7E40B9A61239206E9
:1037C00000D541230022DBB20EA90A3B8C4691466C
:1037D0000D9343461F32624457461295A2464D460A
:1037E0000400B14690460C9E13930DE03032D2B2E5
:1037F000434601355A550023BB4200D1FDE0202D40
:1038000000D1FDE004000F00320000232000390049
:10381000FDF798FFD2B2092AE8D90D9B9C46624475
:10382000D2B2E5E70B9A6123920600D54123DBB2C1
:103830000EA90A3B1F228C460D9323006244544676
:10384000129517004D469A46B1460C9E08E030335B
:10385000DBB201357B55B4420ED3202D0CD00400D1
:1038600031002000FDF730FFCBB20929EFD90D9AC6
:1038700094466344DBB2ECE74E465446A946129D9B
:1038800075E4099B1A0008CAD91713925A184A40BE
:103890009146DA0F1292002B08D1802310220B9947
:1038A000DB000B4091430B91002B2BD10B9A612332
:1038B000920600D541230EAA1F279446DBB20A3B8D
:1038C0000D95674455460993A2464C46B1460C9E59
:1038D00008E03033DBB201357B55B4420ED3202DE6
:1038E0000CD0040031002000FDF7EEFECBB2092918
:1038F000EFD9099A94466344DBB2ECE74E4654464E
:10390000AA460D9D0B9B2A0006930A9B2100059356
:10391000434604930C9B08980393129B0136029331
:103920005346019316AB00935B46FEF7DFFD139BF6
:1039300005000993FFF723FB099B04CB91461293E3
:10394000002A08D1802310220B99DB000B40914301
:103950000B91002B2BD10B9A6123920600D54123AA
:103960000EAA1F279446DBB20A3B0D9567445546C5
:103970000993A2464C46B1460C9E08E03033DBB2B8
:1039800001357B55B4420ED3202D0CD004003100FC
:103990002000FDF799FECBB20929EFD9099A944688
:1039A0006344DBB2ECE74E465446AA460D9D0B9BA2
:1039B0002A0006930A9B21000593434604930C9B1F
:1039C00008980393002302935346019316AB009388
:1039D0005B46FEF78BFD129B050009930136FFF74E
:1039E000CEFAB44200D87FE6149B4C460E960F9751
:1039F000A9469846159E139D99E6A64200D8FEE674
:103A0000139B4E469846A9465446129DFFF7AFFBBE
:103A100008C9D8171A184240099166E500230B938C
:103A20005EE4099B04CB92460993FFF792FB2F00BB
:103A3000E0E50B930BE6063B0C932EE500B585B055
:103A40000391012102900093034813004A4202A906
:103A5000FFF770FA05B000BDCD26001010B5094A79
:103A60000300146884B0002C08D00122009106489D
:103A7000524203A9A047012004B010BD00F090F904
:103A80000020F9E700050020BD26001000BEFDE77C
:103A900010B5FFF7FBFFC04670B5FDF701FD074C01
:103AA000074B9C4209D2013B1D1BAD080135AD00FF
:103AB0002D1908CC9847AC42FBD170BDC44300100F
:103AC000C8430010030010B508001B681100984798
:103AD00010BDC046F8B54746CE4680B5437D0700C9
:103AE0000D001600002B37D000240020002A1EDD18
:103AF0004B1E98461B4B9946002C2BD043461B5D12
:103B00000D3B5A425341DBB22A5D0A2A13D00134DD
:103B1000A642F1DC864203DD311A3B68281898473B
:103B2000AD19013D2B780D3B5A4253413B750CBCFE
:103B300090469946F8BD002BE9D1A04203DA211A3C
:103B40003B6828189847484602213B68013498474B
:103B50002000DDE73B7DD7E7036811002800984788
:103B6000E5E7C04608470010F0B5C6460C000968F6
:103B7000060000B5802906D04B1C2360641826710E
:103B800004BC9046F0BD0F4B1D68002D16D0231DC0
:103B900098460D4F02E02D69002D0FD02B68002BA9
:103BA000F9D03B68002B01D0AB42F4D1280041464C
:103BB0002268FFF78FFF2D69002DEFD1012300212F
:103BC000DBE7C046F8040020FC040020F0B5DE4628
:103BD00057464E464546E0B585B017001C00060026
:103BE0000D00FDF7F7F90023314A12184B41002B65
:103BF00059DB304908008A4600F0BEFB01906B1C7F
:103C000003D1300000F058FB0500002C26D12A4BD0
:103C100098462A4B1C68002C15D0002F21D1284F24
:103C200002E02469002C0ED02368002BF9D03B68F9
:103C3000002B01D0A342F4D120002A003100C0475C
:103C40002469002CF0D1019B002B28D1280005B05D
:103C50003CBC90469946A246AB46F0BD194B9846EF
:103C6000D7E7174B994602ABDF1D0A239B4602E0BC
:103C70002469002CE7D02368002BF9D04B461B6841
:103C8000002B01D0A342F3D12A0031002000C0470D
:103C90005B460122390020003B70C047E8E75046F0
:103CA00000F04AFBD2E70122074B5242A1E7C0468F
:103CB00040420F0020030020C53A0010F804002005
:103CC000FC040020D53A0010FFFFFF7F0A4A13686A
:103CD000002B05D10CE01A001B691032002B07D015
:103CE0009842F8D1002902D103691360016170473D
:103CF0000029FCD01060FAE7F804002010B500F0AD
:103D0000AFF9012010BDC046F0B5CE46474680B59C
:103D100083B06B460500DE1D3070FDF75BF90023B4
:103D20001A4A12184B41002B2CDB1949080088460F
:103D300000F022FB174B07001C68002C16D0164B16
:103D4000994602E02469002C10D02368002BF9D09A
:103D50004B461B68002B01D0A342F3D12000012267
:103D60003100FFF7B7FE2469002CEED1002F05D1FA
:103D7000280003B00CBC90469946F0BD404600F0C8
:103D8000DBFAF5E70122054B5242CEE740420F0035
:103D900020030020F8040020FC040020FFFFFF7F28
:103DA00070B5040000F088FA01230100050001222B
:103DB0002000FFF70BFF084B1C68002C06D063683F
:103DC000002B05D098472469002CF8D1280070BD3D
:103DD0002469002CF3D1F9E7F8040020F0B5CE46B1
:103DE000474680B5A5B004000D00FDF7F3F80023A9
:103DF0002A4A12184B41002B49DB294E300000F0B3
:103E0000BBFA00230700039322002B00254803A9D7
:103E1000FFF714FE039B8046002B14D1224B1C6835
:103E2000002C06D06368002B0BD098472469002C27
:103E3000F8D1002F27D1404625B00CBC90469946BA
:103E4000F0BD2469ECE7184B1D689946002D22D07F
:103E5000164C02E02D69002D11D02B68002BF9D0F3
:103E60002368002B01D09D42F4D1039B28001A0047
:103E700004A90193FFF72EFE2D69002DEDD14B46CD
:103E800003951C68CCE7300000F056FAD3E7012216
:103E9000074B5242B1E70395CBE7C04640420F00C3
:103EA00020030020693B0010F8040020FC040020DF
:103EB000FFFFFF7F0FB400B583B004A901C90191D2
:103EC000FFF78CFF03B008BC04B01847F0B50D1E17
:103ED00015DD0E4B0D271A680D4B4519D3185942A5
:103EE0004B410C495B005E5E20210478A64207D05E
:103EF00093691942FCD101301460A842F5D1F0BD9C
:103F000093691942FCD11760F2E7C0461C050020F6
:103F10000080FCBF2405002030B50500002924DD09
:103F2000002010241A4B013D1A6893691C4217D1D6
:103F3000013093691C42FCD113682B548142F4D1A7
:103F4000144B1B68002B0AD050239363516B183B12
:103F50000B4011498C4662441360002814D030BDD8
:103F60000C4B1B68002BEFD1F7E70A4B1B68002BAB
:103F70000AD05022064B1B689A63596B183A0A40C4
:103F800005498C4663441A6003204042E7E7C04677
:103F90001C050020C404002034100000064B10B59E
:103FA0001B68002B06D00021044A12689163044A62
:103FB0001068984710BDC046C40400201C050020AE
:103FC000C80400200822034B19688B691A42FCD1EF
:103FD0007047C0461C05002070B51B4E1B4B326855
:103FE0000500D3185842434114331C00002D04D05F
:103FF000174B1A68002A11D070BD154E3368002B7C
:10400000FAD0002120009563FCF78AFA20001149BC
:10401000FCF7CEFA104B35601D60EDE71D600E4BCE
:10402000200019600B49FCF799FA01212000FCF7E8
:1040300077FA502233689A63596B183A0A40074955
:104040008C4663441A60D7E71C0500200080FCBF43
:10405000C40400209D3F0010C8040020341000005C
:104060000D4B10B51B780D4B0D4C1B780D4B0221E1
:104070001B780D4B00202360FCF7B0F902210120D2
:10408000FCF7ACF9E12120684902FCF7E7FF0121C8
:104090000648FFF71BFE10BD704700107447001064
:1040A0001C0500207847001000400340000300205A
:1040B00003BDC04610B50400FDF706FAA04710BDC9
:1040C000F0B5040087B00F200D001700FCF73AFA96
:1040D000002106000F20FCF723FA002300220092A3
:1040E000019301230293D023049505940025002019
:1040F0000121022403971B06002D14D01A6D1442CF
:10410000FCD05D6540BF1A6D114203D120BF1A6D0E
:104110001142FBD09A6DAA420AD000206D4682005F
:10412000AD58E9E79A6D1A6D1142FBD140BFE5E742
:1041300001300528F2D931000F20FCF7F1F907B062
:10414000F0BDC0460B4B0C4A10B5934201D201237F
:104150005B420A4C0A4A190092681851FF20A44693
:10416000C0001B50074B0848C85008486144FFF77F
:10417000A7FF10BD0008042000000420F407000081
:1041800000ED00E0FC070000B5400010B140001059
:10419000F0B545468046424B574643445A42534148
:1041A0008022DE464E4692029446E0B55B423D4A8E
:1041B0001B04634413603C4A8A463C4985B0136043
:1041C0001D000A689543FBD10620FDF7C1F8434660
:1041D0005A6802231A400192424604320292344A3B
:1041E00080214244136053465E02DF0D03923B0080
:1041F00032000224490006E0904206D302349219AC
:104200007B418C4201D0002BF6D02B008026270268
:10421000050099463F1B760002E03F1B012E3AD075
:1042200039002800B346013EFDF74EFA8245F4D22C
:1042300059466143A9463502434680221C611B68EA
:1042400092015D40FF23802694461B021D40029B85
:10425000019A76016344464435601A6042465068CC
:104260000222039C072522604446246810406540D2
:10427000CF242C403460032418600E48404404606E
:1042800048461A60FDF720FA05B03CBC90469946B6
:10429000A246AB46F0BD4B462100A9461D00CBE728
:1042A0000040FCBF00E0004000F0004008C00040BB
:1042B000043000002420000010B5830727D00378C5
:1042C000002B26D00300032102E01A78002A1CD01C
:1042D00001330B42F9D119680F4A104C8A188A43EE
:1042E00022420FD1043319680B4A8A188A432242AA
:1042F00008D104331968084A8A188A432242F1D047
:1043000000E001331A78002AFBD1181A10BD03000F
:10431000E1E70020FAE7C046FFFEFEFE80808080D5
:10432000F8B5C0460000000001B40248844601BC54
:10433000604700BFE501002001B40248844601BC8B
:10434000604700BF7101002001B40248844601BCEF
:10435000604700BF5902002001B40248844601BCF6
:10436000604700BF5902002001B40248844601BCE6
:10437000604700BF9901002001B40248844601BC97
:10438000604700BFC1000020F11400101D1500108F
:1043900069160010FD2300100D1D00106D23001084
:1043A0009115001039150010591500106D150010E9
:1043B0003908001075150010CD0B00109114001075
:0843C000FD040010FD020010D5
:1043C800526563656976656420646174613A202585
:1043D800642C2053656E7420646174613A202564EE
:1043E8000A0000000A2A2A2A2050414E4943202A5E
:1043F8002A2A0A00486172647761726520616C61DB
:10440800726D20256420616C726561647920636C2B
:1044180061696D65640000004861726420617373AE
:104428006572740052656C6561736500626F6F74C4
:10443800325F77323571303830000000322E312E3D
:10444800300000007069636F000000007370695FDE
:10445800736C617665000000466562203138203251
:104468003032350005005250DE65F468E44900102A
:10447800060052505422A29D60440010060052507B
:10448800861C03025444001006005250BBFF3CB681
:104498004C44001006005250ABB360534444001023
:1044A80006005250E182887F3444001006005250C2
:1044B800D3F075422C440010666E6900666E692B55
:1044C800000000006E616E00666E692D000000003D
:1044D800FE2F0010B22F0010B22F0010F62F001080
:1044E800B22F0010B22F0010B22F0010B22F001000
:1044F800B22F0010B22F0010B22F0010EE2F0010B4
:10450800B22F0010E62F0010B22F0010B22F0010AB
:10451800DE2F00108231001016300010923100108A
:10452800163000100630001016300010163000103B
:10453800163000101630001016300010163000101B
:1045480016300010283000101630001016300010F9
:1045580016300010163000101630001028300010E9
:10456800723200106E2F00106E2F00106E2F001088
:104578006E2F00106E2F00106E2F00106E2F00107F
:104588006E2F00106E2F00106E2F00106E2F00106F
:104598006E2F00106E2F00106E2F00106E2F00105F
:1045A8006E2F00106E2F00106E2F00106E2F00104F
:1045B8006E2F00106E2F00106E2F00106E2F00103F
:1045C8006E2F00106E2F00106E2F00106E2F00102F
:1045D8006E2F00106E2F00106E2F00106E2F00101F
:1045E800303400109E310010303400106E2F00104F
:1045F8006E2F00106E2F00106E2F00106E2F0010FF
:104608006E2F00106E2F00106E2F00106E2F0010EE
:104618006E2F00106E2F00106E2F00106E2F0010DE
:104628006E2F00106E2F00106E2F0010CA30001071
:104638006E2F00106E2F00106E2F00106E2F0010BE
:104648006E2F00106E2F00106E2F00106E2F0010AE
:104658006E2F0010CA3000101E320010CA30001031
:10466800303400109E310010303400106E2F0010CE
:10467800CA3000106E2F00106E2F00106E2F001021
:104688006E2F00106E2F0010CA300010D2310010AB
:104698006E2F00106E2F00109C3200106E2F00102D
:1046A800CA3000106E2F00106E2F0010CA30001094
:1046B800000000000000F03F00000000000024405F
:1046C80000000000000059400000000000408F403A
:1046D800000000000088C34000000000006AF840A5
:1046E8000000000080842E4100000000D0126341C9
:1046F8000000000084D797410000000065CDCD413F
:104708000D0A00005541525420737464696E00000C
:1047180055415254207374646F7574005541525456
:1047280020737464696E202F207374646F7574002D
:104738000600525053B4F4A1244700100800525008
:0C47480012000000080052509210000007
:104754006C4400107844001084440010904400100D
:104764009C440010A8440010B444001038470010C2
:08477400444700104C470010FF
:10477C00F0B5C6461E0000B5040015000368EFF343
:10478C00108272B619680029FCD0BFF35F8F042326
:10479C00E356002B36DB2168BFF35F8F00200860E7
:1047AC0082F31088D02200271206D7579F4203D1DC
:1047BC00002004BC9046F0BD002398460CE0226813
:1047CC00BFF35F8F4146116083F3108828003100DE
:1047DC0000F09EF80028EBD12268EFF3108372B63C
:1047EC0011680029FCD0BFF35F8F22797F2AE6D9AC
:1047FC0022682771BFF35F8F0021116083F310884B
:10480C000120D6E7D0231B061B6823712368BFF356
:10481C005F8F0021196082F310880120C9E7C04620
:10482C000268EFF3108172B61368002BFCD0BFF353
:10483C005F8FFF2303710368BFF35F8F00221A6041
:10484C0081F3108840BF704730B50400101E0AD0A9
:10485C000D008A180221E3681942FCD02B7801352F
:10486C00A360AA42F7D1E3685B0704D50421A368CF
:10487C00E3681942FBD11021E3681942FCD1E368CB
:10488C005B0704D50421A368E3681942FBD101231B
:10489C00236230BDF0B54746CE4605008846180069
:1048AC0080B5002B17D01E001C0002239C4602333F
:1048BC009946002E13D0330008336146EF68394215
:1048CC001AD0A34218D94346013EAB603300002CEA
:1048DC0014D1002BEDD10CBC90469946F0BD002CA8
:1048EC00F9D04946EB681942F9D0AB68013C13701A
:1048FC00230001323343ECE7002CDED04946EB6851
:10490C001942D6D0F1E7C0467047C04600000000FF
:10491C0001B40248844601BC604700BFD10E0010B0
:10492C00100000000000000000000100000000006A
:10493C000000000000000200000000000000000069
:10494C000000030000000000000000000000FF0059
:10495C000000000001B5486801318E4600477046E2
:10496C0009380149884701BD750700100000000097
:10497C00000000000000000000000000000000002B
:10498C0028030020000000000000000000000000D0
:10499C00503300004C3300005433000052330000FD
:1049AC004D5300004D4300005334000043340000CD
:1049BC00CD3E0010C53F0010193F0010D93F00102C
:1049CC0000000000000100000000000000000000DA
:0849DC000000000000000000D3
:04000005100001E9FD
:00000001FF
